:020000040800F2
:10000000D028002001010008994A01089B4A0108F4
:100010009F4A0108A34A0108A74A010800000000FE
:10002000000000000000000000000000AB4A0108D2
:10003000AD4A010800000000AF4A01081F4B01084B
:100040001B0100081B0100081B0100081B01000820
:100050001B0100081B0100081B0100081B01000810
:100060001B0100081B0100081B0100081B01000800
:100070001B0100081B0100081B0100081B010008F0
:100080001B0100081B0100081B0100081B010008E0
:100090001B0100081B0100081B0100081B010008D0
:1000A0001B0100081B0100081B0100081B010008C0
:1000B0001B010008F74A01081B0100081B0100088A
:1000C0001B0100081B0100081B0100081B010008A0
:1000D0001B010008B14A0108D74A01081B010008AA
:1000E0001B0100081B0100081B010008DFF80CD0F1
:1000F00016F0C8FF0048004759010008D02800202A
:100100000648804706480047FEE7FEE7FEE7FEE7B1
:10011000FEE7FEE7FEE7FEE7FEE7FEE77D230108D8
:10012000ED00000810B50446012C03D102209649C9
:10013000087010BD9448007860B193480078401E64
:10014000914908700846007820B990A20921012041
:1001500013F037FA00BFECE70025002600BF0024AB
:1001600000BF00BF00BF00BF14F028FD14F0F7FC73
:100170004FF4165014F050FF4FF4165014F09FFF38
:1001800014F088FF14F0DAFF40F2DF11632014F05E
:10019000EAFF14F046FD14F057FD14F0D1FD0DF008
:1001A0006FFD15F0F1F812F069F97D2010F015FEE1
:1001B00040B177A017F0AEF901217BA005F0BAF9A4
:1001C00010F06CFF40F6C41106200FF031FC4FF424
:1001D000967014F0B5FC10F0A6FD14F0ACFE14F00F
:1001E000FBFE14F029FE15F091F801207649087005
:1001F0000020764908707649087003F0BDFD04F0D0
:100200004FF8BFE04FF48071724812F07DF9044658
:10021000002C08DD6F484078072804D021466D483F
:1002200008F078FE19E0002C17DD6A4840780728AE
:1002300013D171B600BF6848006800F4E0606749F8
:1002400040EA010000F104004FF0E021C1F80C0D7C
:10025000BFF3408F00BF00BFFEE761480078012870
:100260000FD100205E49087005F0F6FA002108461B
:100270000EF081FA5BA21521012013F0A2F900F023
:100280008FFA51480078F0B357480068401B0A289D
:1002900078D35548056808F09FFF54480088401CF3
:1002A0005249088009F08AF95148016851480068AC
:1002B00016F040FD01D00BF087F84F48007808B1E8
:1002C0000CF0E4F90CF04DFA47480068801B6428F4
:1002D00058D30020454908804348066847480078BD
:1002E000012801D104F0BEFD09F006F803F09CFFDF
:1002F00003F0BFFF08F0DFFF4148007830B141A0B4
:1003000017F008F900E03DE00CF064FD0CF012FC81
:1003100046480078002805DD44480078401E4349DF
:10032000087007E00120414908704148007808B191
:100330000FF03DFB3F48007800280EDD3D48007877
:10034000401E3C4908700846007830B9012008700A
:100350002948007808B90CF099F90020FFF7E2FE6F
:1003600000F06CF814F0DEFA3348007820B1002079
:100370003149087004F0E1F904F031FA15F0AEFEED
:1003800010F0D1FC3EE70000170000200000000044
:100390002F2A20B6C0C1A2BFB4C3C5B9B7B8B4CE66
:1003A000BB202A2F0A0000004957444720524553DA
:1003B00045542E2E2E2E2E2E2E2E2E2E2E2E2E2E20
:1003C0002E2E2E2E2E2E0000140000208100002044
:1003D000260A0020B00B00200CED00E00000FA051A
:1003E000150000202D2D0000080000201000002026
:1003F000E009002054070020020000202700002010
:100400000D0000205461726765744C6F636B436F1D
:100410006E6669726D65642C2046435F5265747226
:100420006561746F7228293B0A00000012000020E9
:100430000C000020130000209500002003480068F5
:10044000C0F101000249C1F8AC017047AC01214282
:1004500000002142024600200BE012F0800F02D083
:1004600001230B5401E000230B5453061A0E431CC6
:10047000D8B20828F1DB7047002005E0FF49095C8D
:10048000FF4A1154411CC8B20628F7DB704730B54B
:1004900097B0002515220CA9FA4814F0B3FE9DF878
:1004A000590023280AD0F8A20921012013F089F865
:1004B000F5A205210B2013F084F82BE00CA815F011
:1004C0002DFE401EC4B20FE00CA8025D2146EFA035
:1004D00017F020F80CA8005D232804D1681CC5B2D1
:1004E000601EC4B200E001E0002CEDDC00BF01AAF8
:1004F000ECA10CA815F032FE01A9EC4815F024FE81
:1005000001AA05210B2013F05CF801AA09210120A2
:1005100013F057F817B030BDF0B589B00546002686
:10052000002406E004F16800285C05A90855601C59
:10053000C4B20E2CF6DB9DF8210023280FD0D2A2E6
:100540001A21012013F03DF8CFA202210B2013F055
:1005500038F8CDA23621012013F033F844E005A885
:1005600015F0DCFD401EC4B22146D1A016F0D2FF2A
:1005700013E005A8025D2146C4A016F0CBFF05A834
:10058000005D232808D1701CC6B2601EC4B221468B
:10059000C7A016F0BFFF00E001E0002CE9DC00BFBF
:1005A00001AAC0A105A815F0D9FD01A815F0B6FD56
:1005B00007460146C0A016F0ADFF01A9C2A016F083
:1005C000A9FF01A9C44815F0BFFD01AA02210B2013
:1005D00012F0F7FFC1A21A21012012F0F2FF01AAC6
:1005E0003621012012F0EDFF09B0F0BD0178152988
:1005F00015DC0178142912DB417863290FDC81783E
:100600000C290CDC817851B1C1781F2907DCC17835
:1006100029B10179012902DC417901290ADD14217E
:100620000170322141700C2181701F21C1700021A5
:100630000171417170477FB50546002406E004F161
:100640007600285C02A90855601CC4B2062CF6DBB3
:1006500002A8FFF7CBFF9DF809009DF8081001EBF9
:10066000C10202EB011100EB81009F4908809DF857
:100670000A0088709DF80B00C8709DF80C00087186
:100680009DF80D0048719DF809009DF8081001EBD8
:10069000C10303EB011100EB810294A1684616F03F
:1006A00049FF6A460321202012F08BFF9DF80A20A3
:1006B0008EA1684616F03EFF6A460421202012F003
:1006C00080FF9DF80B2089A1684616F033FF6A462B
:1006D0000521202012F075FF9DF80C20012120201B
:1006E00012F046FF05F021F99DF80D20022120208F
:1006F00012F03EFF7FBD08B50146002006E000F184
:100700007C028A5C0DF80020421CD0B20228F6DB85
:100710009DF80020012A02DD00228DF800209DF8BE
:100720000120012A02DD00228DF801209DF8002021
:100730006F4B1A709DF801206E4B1A7008BD38B5CA
:100740000546002406E004F17E00285C0DF8040054
:10075000601CC4B2022CF6DB9DF8000066490870EC
:100760009DF801006549087063480078012802DDA2
:10077000012061490870614800783C2802DC5F482C
:10078000007810B91E205D4908705B4801785CA0B4
:1007900016F0C0FE594801785FA016F0BBFE38BDC8
:1007A00030B587B0012205A9604814F02BFD9DF8F3
:1007B0001400092803DC9DF815000A2804DD002038
:1007C0005B490870487006E09DF8140058490870AD
:1007D0009DF8150048705648407840B955A016F06D
:1007E00099FE002052490870487007B030BD0024BF
:1007F00029E04F48007820440A2190FBF1F201FBE8
:1008000012004A49891C082202FB0015042205A98E
:10081000284614F0F7FC05A80EF020FD9DF81A30CC
:100820009DF819209DF818109DF817008DE80F000D
:100830009DF816309DF815209DF8141040A016F074
:1008400069FE601CC4B23A484078A042D1DC00BFC7
:10085000CBE72DE9FC4105460E4635480078344982
:10086000497808440A2190FBF1F201FB12002F495C
:10087000891C082202FB00172D4877E0850900201B
:1008800079090020521307082000000028726561D2
:10089000645F627566665B25645D203D2025630AA2
:1008A00000000000255B5E235D000000D60C0020E8
:1008B00069203D2025640A006C656E677468203DE0
:1008C0002025640A0A000000257340404040404053
:1008D0004040404040404000C80C0020B7FECEF1F0
:1008E000C8C8CFDF000000005000002025640000D1
:1008F000AB070020AC070020D408002059080020D6
:10090000424C5F436F6E74726F6C5F456E61626CD8
:1009100065203D2025640A00424C5F4F6E5F54699C
:100920006D65203D2025640A00000000BA1007080C
:100930007A0000204E6F206572726F72210A0000EB
:100940003230253032642D253032642D253032642A
:1009500020253032643A253032643A253032642D15
:100960002D2DB9CAD5CF25640A00000040780A2889
:1009700009D1FF480078401C0A2190FBF1F201FBED
:100980001200FB490870FA4840780A2804DAF8484F
:100990004078401CF6494870F54800788DF8000012
:1009A000F34840788DF8010001226946F14814F0BF
:1009B0003AFC002404E0285D0DF80400601CC4B279
:1009C000062CF8DB8DF8066000208DF80700042265
:1009D0006946384614F027FCBDE8FC8108B5E648B6
:1009E00000788DF8000001226946E44814F01BFCF1
:1009F00008BD38B504468DF8004001226946DF483D
:100A0000801C14F010FC38BD38B504468DF8004049
:100A100001226946D948083014F005FC01226946D4
:100A2000D6480A3014F0FFFB38BD38B504468DF8BF
:100A3000004001226946D1480C3014F0F4FB38BD67
:100A400038B504468DF8004001226946CB480E3087
:100A500014F0E9FB38BD38B504468DF8004001229A
:100A60006946C648603814F0DEFB38BD38B5044628
:100A7000C349204615F0A4FE054616F0C8F8C0B2DA
:100A80008DF8000001226946BC48801E14F0CBFBA3
:100A90009DF80020B949891EBAA016F03BFD38BD6B
:100AA00038B50446C149204615F08AFE054616F0C1
:100AB000AEF8C0B28DF8000001226946AF48103090
:100AC00014F0B1FB38BD10B5B9480068FFF7E8FF76
:100AD00010BD38B504468DF8004000208DF80100A7
:100AE00001226946A548801D14F09DFB38BD38B52C
:100AF0000446AE49204615F063FE054616F087F819
:100B0000000A8DF80000A949204615F059FE054657
:100B100016F07DF8C0B28DF80100012269469748B1
:100B2000123014F080FB38BD38B504468DF8004013
:100B300000208DF80100012269469048001D14F044
:100B400072FB38BD08B5012269468C48603814F044
:100B500059FB9DF80000B42803DD1E20954908705C
:100B600003E09DF80000934908709248017892A034
:100B700016F0D0FC08BD2DE9F04F8BB0092205A975
:100B80007E485E3814F03EFB642013F0D9FF9DF8D8
:100B90002400002801DD012000E000208D490870BC
:100BA000084601788CA016F0B5FC9DF8150016F0EB
:100BB00021F8804600228E4B15F08EFF04460D462C
:100BC0009DF8140016F016F8824622462B4615F0C2
:100BD0006DFECDE9000116F091F80746384616F093
:100BE0004EF804460022824B16F060F801D8814886
:100BF00007609DF816100122A2EB41019DF8172015
:100C000001FB02F015F0E5FF044600227A4B15F0D7
:100C100063FF804616F072F806463146304615F0FE
:100C2000CFFD804616F02BF804460022704B16F0DC
:100C30003DF801D871480660704800687049C86086
:100C40009DF8190015F0D6FF80460022684B15F07C
:100C500043FF04460D469DF8180015F0CBFF824671
:100C600022462B4615F022FECDE9000116F046F88B
:100C7000644908600846006816F001F8044600223E
:100C8000614B16F027F809D35E48006815F0F7FFAE
:100C9000044600225D4B16F009F802D25C4859491F
:100CA00008605449086815F0EAFF044602460B46FE
:100CB00058A102A816F03EFC02AA0221262012F03A
:100CC00080FC5048006815F0DAFF044602460B46E7
:100CD00050A102A816F02EFC02AA0421262012F030
:100CE00070FC4649086815F0CAFF044602460B46E8
:100CF00048A102A816F01EFC02AA0321262012F029
:100D000060FC3C49086815F0BAFF044602460B46F1
:100D100040A102A816F00EFC02AA0221262012F021
:100D200050FC2C4802781A21262012F021FC0BB02E
:100D3000BDE8F08FF0B585B000262E4951F82600A9
:100D400015F09DFF044602460B46314633A016F0CF
:100D5000E1FB2A4951F8260015F091FF04460246AE
:100D60000B46314633A016F0D5FB22496CE000005B
:100D70007A000020BA1007089E0B00208013070895
:100D80000000C84253544D33325F464C4153485FD4
:100D900057726974652061206279746520746F20D0
:100DA000202578203A202025640A000000002041F8
:100DB00050090020400700205461726765744C6F31
:100DC000636B657254696D696E67203D2025640A06
:100DD000000000007D00002054656D704D6F6E694D
:100DE000746F72456E61626C653D2025640A000077
:100DF000000059403000002000002440B00C0020CA
:100E0000600D00204800002000C0624000003E400D
:100E100000008242252E31660000000074656D706E
:100E20005F6C696D69745B25645D203D2025660AF1
:100E30000000000074656D705F626961735B25641A
:100E40005D203D2025660A0051F8260015F0DFFEE2
:100E5000C0B20DF826001DF8260015F0B5FE0746B5
:100E6000FF4850F82610384615F0A7FC0546FD4906
:100E700015F0A6FC044615F0CAFEC0B2012101EB34
:100E800086010DF80100F84951F82600002115F0FF
:100E900051FF01D2012000E00020C0B2022101EB8D
:100EA00086010DF80100F04951F82600002115F0E7
:100EB00041FF0CD2EC4850F8260080F00045EB4989
:100EC000284615F07DFC044615F0A1FE08E0E64931
:100ED00051F82600E54915F073FC044615F097FE1D
:100EE000C0B2032101EB86010DF801001DF8262098
:100EF000B100DFA016F00EFB012000EB86001DF80C
:100F00000020012000EB8601D9A016F003FB02208F
:100F100000EB86001DF80020022000EB8601D4A023
:100F200016F0F8FA032000EB86001DF800200320DD
:100F300000EB8601D2A016F0EDFAD548006815F056
:100F400066FEC0B28DF804009DF8040015F03CFE6A
:100F50000746CF480168384615F02FFC0546C149C1
:100F600015F02EFC044615F052FEC0B28DF80500B7
:100F7000C84800788DF8100009226946C64814F068
:100F800052F905B0F0BD10B5002409E0C348B449DA
:100F900041F824000020B44941F82400601CC4B288
:100FA000042CF3DBBE48BA4908600020B949087038
:100FB000FFF7C0FE10BD08B5BAA00068009001227E
:100FC0006946B5485A3014F02EF908BD2DE9FC5F8A
:100FD00006468846A8F10A0017287DD2DFE800F00F
:100FE000FDFC7C7C7CFB0C3BBFFAF9F8F7F67CF54A
:100FF000F4F37C7C7C7CF2003078AB49087070782C
:10100000AA490870F078AA490870F078401CA949EC
:1010100008703079A849087070794870B079887084
:10102000F179A64816F076FAF079072801DD032059
:10103000F071F07900F001009F49C870F079C0F3B9
:1010400040000871F079C0F380004871FFF714FA8E
:1010500004F06BFCE2E2307A99490870B27A717A56
:1010600002EB012015F0A7FD834615F008FE0446AB
:101070000022944B15F030FD814615F03FFE924959
:1010800008600846006815F0FAFD044602460B4663
:101090008EA016F03FFAF07A10F0800F20D0327B4D
:1010A000F17A01F07F0102EB012015F084FD834607
:1010B00015F0E5FD81460022824B15F00DFD04463A
:1010C0000022134615F094FCCDE9000115F016FE40
:1010D0008549086085A000E09FE216F01BFA12E047
:1010E000327BF17A02EB012015F073FD814600227C
:1010F000744B15F0F1FC044615F000FE7A490860C7
:1011000081A016F007FA00217748006803F0DCFBA5
:10111000707B84490870B07B15F06CFD814600221D
:10112000684B15F0D9FC044615F0E8FD7E490860CF
:10113000F07B7E490870727C317C02EB012015F057
:101140003AFD834615F09BFD814600225D4B15F06C
:10115000C3FC044615F0D2FD754908605EE275A037
:1011600016F0D8F9B07C7F490870327DF17C02EB33
:10117000012015F020FD834615F081FD0446002274
:10118000504B15F0A9FC814615F0B8FD7649086072
:10119000707D10F0800F2BD0B27D717D01F07F014A
:1011A00002EB012015F007FD834615F068FD81462E
:1011B0000022444B15F090FC04460022134615F023
:1011C00017FC0BE01DE2D0E134E1F8E0DAE1BFE129
:1011D0006EE149E13BE118E20DE21AE2CDE90001DE
:1011E00015F08CFD6149086061A016F093F912E0DA
:1011F000B27D717D02EB012015F0EBFC044600226C
:10120000304B15F069FC814615F078FD57490860B0
:101210005EA016F07FF901215448006803F054FBEA
:10122000F07D15F0E7FC81460022264B15F054FCBA
:10123000044615F063FD5C490860717E307E01EB69
:1012400000205A490880B07E15F0D4FC8146002267
:101250001C4B15F041FC044615F050FD5449A9E023
:10126000300000200000C842B00C002000002041E7
:10127000627566665B25645D203D2025642C000058
:10128000627566665B25645D203D2025640A0A0060
:10129000480000207D000020221307080000B4420F
:1012A00000008242002800006E080020F3080020A1
:1012B000F408002054090020850900208C8C0108C6
:1012C000F508002000005940F80800204F75746CA4
:1012D00065745F53656E736F725F52616E676520F0
:1012E0003D2025660A000000FC0800204F75746C44
:1012F00065745F50726573737572655F426961737F
:10130000203C20300A0000004F75746C65745F50FB
:10131000726573737572655F42696173203E203038
:101320000A0000000009002004090020080900202C
:101330000C090020737461727420766172696162B5
:101340006C65735F757064617465205343524545E5
:101350004E5F454E5452414E43455F53454E534FA9
:10136000520A00001009002014090020180900206A
:10137000456E7472616E63655F50726573737572EA
:10138000655F42696173203C20300A00456E7472CB
:10139000616E63655F50726573737572655F4269F4
:1013A0006173203E20300A001C0900202009002023
:1013B000240900200860F8A016F0ACF82EE1002700
:1013C00006E007F11C00305CFF49C855781CC7B225
:1013D0000C2FF6DBFC48007910F0800F0DD0FA4896
:1013E0004179007900F07F0001EB00204042F7498D
:1013F0000860F7A016F08EF809E0F348417900790B
:1014000001EB0020F1490860F5A016F083F8EF48E1
:10141000006815F0D0FB0446022103F055FAEB48B2
:101420000168F3A016F076F8E7480178F4A016F00A
:1014300071F8F3E0012707E007F12700315C781E1F
:10144000F64A1154781CC7B2042FF5DDE6E00127F7
:1014500007E007F12B00315C781EF14A1154781C2B
:10146000C7B2102FF5DDD9E0012707E007F13B00F7
:10147000315C781EEB4A1154781CC7B2092FF5DD98
:10148000E8490878C11700EB11710911E64A11709B
:1014900010460178E5A016F03DF8E2490878C1173A
:1014A00000EB11710911A0EB0111DE4A1170B5E0DA
:1014B000012707E007F14500315C781EE24A11542C
:1014C000781CC7B20C2FF5DDDF48407A10F0800F92
:1014D0001FD0DD498A7A497A01F07F0102EB0120B1
:1014E00015F069FB834615F0CAFB04460022D74B72
:1014F00015F0F2FA81460022134615F079FACDE98B
:10150000000115F0FBFBD2490860D2A016F002F8EA
:1015100013E0CD498A7A497A02EB012015F059FB94
:1015200081460022C94B15F0D7FA044615F0E6FBB8
:10153000C7490860CCA015F0EDFFC348007A022827
:1015400001DD002001E0C048007ABF49087265E073
:10155000012707E007F15100315C781EC74A11549A
:10156000781CC7B2082FF5DD58E0012707E007F126
:101570005900315C781EC24A1154781CC7B2052F3D
:10158000F5DD4BE0012707E007F15F00315C781ED5
:10159000BC4A1154781CC7B2082FF5DDB948007851
:1015A0000A2190FBF1F0B8490870B64800780A218A
:1015B00090FBF1F201FB1200B2490870B2480178C9
:1015C000B2A015F0A7FFAF48C178807801EB0020EA
:1015D000B4490880AB484179007901EB0020B24959
:1015E0000880A848C179807901EB0020AF490880C4
:1015F000FFF7A8FA12E0FEF74AFF3046FEF78CFF2D
:101600000CE03046FFF717F808E03046FFF773F8B4
:1016100004E03046FFF793F800E000BF00BFBDE8EC
:10162000FC9F1CB5A248027801210A2011F0A0FFFE
:10163000A0480278AFF64C51684615F07BFF6A4629
:1016400002210A2011F0BDFF9A480078C0EB00107B
:101650008004030C0022FF219548007811F008FB5C
:101660001CBD1CB594A015F055FF9E480278AFF63E
:101670008451684615F05EFF6A460B21102011F078
:10168000A0FF9948007868BB00220721012011F0D3
:101690001DFF01221146102011F06AFF00220221D5
:1016A000102011F065FF00220321102011F060FFCF
:1016B00000222421012011F009FF00220B2101202A
:1016C00011F004FF01223721104611F0FFFE002225
:1016D0002121022011F0FAFE00222221022011F025
:1016E000F5FE44E08048007801282DD10122072131
:1016F000104611F0EBFE00220121102011F038FFFE
:1017000001220221102011F033FF002203211020BA
:1017100011F02EFF01222421104611F0D7FE0122E4
:101720000B21104611F0D2FE00223721012011F0CA
:10173000CDFE01222121022011F0C8FE012222212A
:10174000022011F0C3FE12E06748007802280ED193
:1017500000220121102011F00BFF00220221102095
:1017600011F006FF01220321102011F001FF642077
:1017700013F0E6F90024C9E05C48025D211D102049
:1017800011F0F6FE5948005DC0F10100C2B204F14B
:1017900028010120ACE00000456E6420766172698A
:1017A00061626C65735F7570646174652053435248
:1017B00045454E5F454E5452414E43455F53454E5D
:1017C000534F520A00000000A00D0020C80800205E
:1017D000574C5F42696173203C20300A00000000D2
:1017E000574C5F42696173203E20300A00000000C0
:1017F000574C5F42696173203D2025640A00000058
:10180000456E7472616E63655F73656E736F72307F
:101810005B305D203D20253032780A002809002009
:10182000AC0D0020BC0D00205E000020536C6565EF
:1018300070696E67456E61626C654D6F6465203DD1
:101840002025640A00000000C50D0020000024408F
:10185000CC0800204663467265714F757442696119
:1018600073203C20300A00004663467265714F7554
:101870007442696173203E20300A00002C09002068
:10188000340900203A090020EC0900205265616407
:101890002050756D70506F696E746572203D202503
:1018A000640A0000D4090020D6090020D8090020CD
:1018B000D40800205908002020636F6E74726F6C8A
:1018C000735F7570646174655F53435245454E5F45
:1018D00050554D505F47524F5550494E4728290AA1
:1018E00000000000F30800206E0800208509002099
:1018F00011F0ECFDFF48005DC0F10100C2B204F13F
:101900007801012011F0E2FD601CC4B2032CFFF647
:1019100033AFF848C2780321102011F029FEF548B2
:10192000C078C0F10100C2B2F348017F012011F07C
:10193000CDFDF048C078C0F10100C2B2EE48417F51
:10194000012011F0C3FDEB4802790E21102011F0A7
:101950000FFEE8480079C0F10100C2B2E64890F8F5
:101960002410012011F0B2FDE2480079C0F101001D
:10197000C2B2E14890F82510012011F0A7FDDD4822
:1019800042790721102011F0F3FDDA484079C0F1C7
:101990000100C2B2D84890F82C10012011F096FD39
:1019A000D4484079C0F10100C2B2D34890F82D105C
:1019B000012011F08BFDD14802780921102011F08F
:1019C000D7FD1CBD7CB5CEA015F0A4FDD74800689E
:1019D00015F055F9044602460B46D5A1684615F0A8
:1019E000A9FD6A460521112011F0EBFDD2480068DF
:1019F00015F045F9044602460B46D0A015F08AFDC5
:101A0000CD48006815F03BF9044602460B46C8A1D4
:101A1000684615F08FFD6A4602212A2011F0D1FD9B
:101A2000CE48006815F02BF9044602460B46C0A1CB
:101A3000684615F07FFD6A4603212A2011F0C1FD9A
:101A4000C748006815F01BF9044602460B46B8A1CA
:101A5000684615F06FFD6A460721112011F0B1FDAF
:101A6000C048006815F00BF9044602460B46B0A1C9
:101A7000684615F05FFD6A460821112011F0A1FDAE
:101A8000B948007801280AD101221146112011F02D
:101A90006FFD00220221112011F06AFD0DE0B24815
:101AA0000078022809D100220121112011F060FDE7
:101AB00001220221112011F05BFDAC4802780321C4
:101AC000112011F055FDAA4802780421112011F0CF
:101AD0004FFD7CBD7CB5A748006815F0D0F80446E2
:101AE00002460B4692A1684615F024FD6A46052180
:101AF000122011F066FDA048006815F0C0F80446F9
:101B000002460B468AA1684615F014FD6A4602217A
:101B10002B2011F056FD9948006815F0B0F80446E6
:101B200002460B4682A1684615F004FD6A46032171
:101B30002B2011F046FD9248006815F0A0F80446ED
:101B400002460B467AA1684615F0F4FC6A46072166
:101B5000122011F036FD8B4802888BA1684615F0E3
:101B6000E9FC6A460821122011F02BFD8748006825
:101B700015F085F8044602460B466DA1684615F03F
:101B8000D9FC6A460921122011F01BFD804800781B
:101B900070B901221146122011F0EAFC0022022144
:101BA000122011F0E5FC00220321122011F0E0FCCC
:101BB0007748007801280ED100220121122011F06F
:101BC000D7FC01220221122011F0D2FC00220321B5
:101BD000122011F0CDFC6E480078022818D10022A6
:101BE0000121122011F0C4FC00220221122011F068
:101BF000BFFC01220321122011F0BAFC65A21421BE
:101C0000012011F0DEFC63A22021022011F0D9FC9A
:101C10007CBD7CB504242FE0052C06D15E485AA17A
:101C20000268684615F086FC1FE0042C0BD15B4867
:101C3000C178807801EB002086B2324652A1684616
:101C400015F078FC11E00520C0EB44005349095C15
:101C50000620C0EB4400514A105C01EB002086B224
:101C6000324649A1684615F065FC6A4621461920AE
:101C700011F0A7FC601CC4B2082CCDDD47480078E9
:101C800000F00F020121192011F072FC4348007886
:101C90000511022D00DD0025A5B901220A21192018
:101CA00011F066FC00220B21192011F061FC0022CA
:101CB0000C21192011F05CFC39A20A21012011F03D
:101CC00080FC8BE0012D73D100220A21192011F034
:101CD0004FFC01220B21192011F04AFC00220C219B
:101CE000192011F045FC30A20A21012011F069FCF5
:101CF00074E05DE085090020088E0108F4080020EA
:101D000020636F6E74726F6C735F7570646174655D
:101D10005F53435245454E5F4F55544C45545F53B6
:101D2000454E534F5228290A00000000F8080020B1
:101D3000252E326600000000FC0800204F75746CF0
:101D400065745F50726573737572655F4269617324
:101D5000203D2025302E32660A0000007000002051
:101D6000040900200C090020F508002000090020CB
:101D70000809002014090020180900207400002020
:101D80001C090020200900202564000024090020EF
:101D9000100900202D2D0000C8080020A00D0020F3
:101DA000286D6D290000000028636D2900000000E7
:101DB000022D13D100220A21192011F0D9FB002293
:101DC0000B21192011F0D4FB01220C21192011F054
:101DD000CFFBFFA20A21012011F0F3FBFD480078A0
:101DE00000F00F00012823D101221146192011F023
:101DF000BFFB00220221192011F0BAFB00220321AF
:101E0000192011F0B5FBAFF274021421012011F07A
:101E1000D8FBAFF280022021022011F0D2FB432236
:101E20003721012011F082FCEBA015F073FB1CE0C0
:101E300000220121192011F09BFBE648407850B99F
:101E400001220221192011F093FB00220321192005
:101E500011F08EFB09E000220221192011F088FB0D
:101E600001220321192011F083FB7CBD2DE9FC41E7
:101E7000E5498A78497802EB012014F0AAFE06466B
:101E80000022E24B14F028FE044614F037FF80468F
:101E9000404614F0F4FE044602460B46AFF27011C1
:101EA000684615F047FB6A4603211A2011F089FBAA
:101EB000D549C87814F09EFE04460022D34B14F096
:101EC0000BFE064614F01AFF8046404614F0D7FE7B
:101ED000044602460B46AFF2A811684615F02AFBED
:101EE0006A4604211A2011F06CFBC748007850B9EB
:101EF000012211461A2011F03BFB002202211A2078
:101F000011F036FB09E0002201211A2011F030FB0C
:101F1000012202211A2011F02BFBBDE8FC812DE9E2
:101F2000FC47012655E0012E09D0022E07D0042ED1
:101F300005D0072E03D0082E01D0092E15D1B448A4
:101F400050F82600401CB349095CB14850F82600FF
:101F5000B04A105C01EB00201FFA80FA5246AFF243
:101F6000D811684615F0E6FA2CE0032E03D0052EB2
:101F700001D0062E0CD1A64850F82600A54911F82C
:101F800000A05246AFF20021684615F0D3FA19E0DE
:101F90000A2E17D19F49C87B14F02CFE044600225C
:101FA0009A4B14F099FD804614F0A8FE0746384677
:101FB00014F065FE044602460B46AFF28C216846DB
:101FC00015F0B8FA6A463146132011F0FAFA701C7F
:101FD000C6B20A2EA7DD90480278AFF254216846B7
:101FE00015F0A8FA6A460C21132011F0EAFA8B4882
:101FF000006814F044FE044602460B46AFF2D021BE
:10200000684615F097FA6A460521122011F0D9FAB0
:102010008348006814F033FE044602460B46AFF2D4
:10202000F021684615F086FA6A460621122011F062
:10203000C8FA7C48006814F022FE044602460B46AB
:10204000AFF21431684615F075FA6A46072112207E
:1020500011F0B7FA74480288AFF2D421684615F03F
:1020600069FA6A460821122011F0ABFA6F4800683D
:1020700014F005FE044602460B46AFF24C316846AA
:1020800015F058FA6A460921122011F09AFA6848A8
:10209000006814F0F4FD044602460B4665496846A4
:1020A00015F048FA6A460D21132011F08AFA6248A9
:1020B000007870B901221146122011F059FA00225D
:1020C0000221122011F054FA00220321122011F0F3
:1020D0004FFA5948007801280ED100220121122020
:1020E00011F046FA01220221122011F041FA0022D9
:1020F0000321122011F03CFA4F48007802280ED13B
:1021000000220121122011F033FA002202211220B4
:1021100011F02EFA01220321122011F029FABDE854
:10212000FC872DE9FC474FF001088DE0B8F1010F65
:1021300002D0B8F1040F15D1404850F82800401CD7
:102140003F49095C3D4850F828003D4A105C01EBCE
:1021500000201FFA80FA5246AFF2D431684615F0DB
:10216000E9F92DE0B8F1030F02D0B8F1060F1BD149
:10217000324951F82810324A505C14F03BFD0446B5
:102180000022224B14F0A8FC064614F0B7FD81464D
:10219000484614F074FD044602460B46AFF2704107
:1021A000684615F0C7F90BE0244850F82800244988
:1021B00011F800A05246AFF23041684615F0BAF966
:1021C0006A464146142011F0FCF908F1010039E09B
:1021D000286D2900A00D002053657450726F67723E
:1021E00065737356616C75652853435245454E5F60
:1021F0004D41494E5F312C2035352C203130302077
:102200002F2032293B0A00002809002000005940F5
:102210007C080020AC0D00205D0000201409002087
:10222000180900201C090020200900202409002092
:10223000CC090020140E000810090020A40800207A
:10224000BC0D002000F0FF08B8F1070F7FF76EAF5C
:10225000FF48007820B1012812D0022830D11FE0B9
:1022600001220921142011F083F900220A211420EF
:1022700011F07EF900220B21142011F079F920E0F1
:1022800000220921142011F073F901220A211420DF
:1022900011F06EF900220B21142011F069F910E001
:1022A00000220921142011F063F900220A211420D0
:1022B00011F05EF901220B21142011F059F900E010
:1022C00000BF00BFBDE8FC872DE9FC41012609E005
:1022D000701EE0490F5C3A463146152011F048F96E
:1022E000701CC6B2072EF3DDDA48C079C0F3800255
:1022F0000821152011F03CF9D648C079C0F34002FE
:102300000921152011F034F9D248C07900F00102FA
:102310000A21152011F02CF9CF4802781021152040
:1023200011F026F9CC4802780F21102011F0CEF8D8
:10233000C9480078C0F10100C2B20921102011F093
:10234000EEF8C64802780F21152011F011F9C448A3
:10235000006814F094FC044602460B46C1496846E6
:1023600015F0E8F86A460A21152011F02AF9B94853
:10237000C17A007A01EB00201FFA80F84246AFF2E2
:10238000F851684615F0D6F86A460B21152011F071
:1023900018F9BDE8FC812DE9FC5F01264AE0032E17
:1023A00001D0042E19D10320C0EB4600AE49095CD0
:1023B0000420C0EB4600AC4A105C01EB00201FFA81
:1023C00080F84246AFF24061684615F0B3F86A46BD
:1023D0003146162011F0F5F82AE0052E01D0062E20
:1023E0001ED1A14A711C505C14F004FC044600226A
:1023F0009E4B14F071FB824614F080FC81464846E7
:1024000014F03DFC044602460B46AFF2DC61684620
:1024100015F090F86A463146162011F0D2F807E020
:10242000701E91490F5C3A463146162011F0A0F813
:10243000701CC6B2062EB2DDBDE8FC9F2DE9FC473C
:10244000012632E0012E01D0052E1ED1711E884AD0
:10245000505C14F0CFFB04460022844B14F03CFB8C
:10246000814614F04BFC8046404614F008FC0446BC
:1024700002460B46AFF24871684615F05BF86A46B3
:1024800031461B2011F09DF80DE0701E78490F5C5D
:102490003A46AFF20C71684615F04CF86A46314680
:1024A0001B2011F08EF8701CC6B2052ECADDBDE8E7
:1024B000FC872DE9F04786B06E4A07CA01AB07C317
:1024C000012639E0012E06D16B48027831461720EB
:1024D00011F04EF82EE0022E1CD16749487814F016
:1024E00089FB04460022654B14F0F6FA814614F08D
:1024F00005FC8046404614F0C2FB044602460B46EB
:102500005FA104A815F016F804AA3146172011F0AF
:1025100058F80FE0F01E01A951F8200007883A464C
:10252000AFF29C7104A815F005F804AA31461720F3
:1025300011F047F8701CC6B2052EC3DD524807786B
:102540003A46AFF2BC7104A814F0F4FF04AA0721C4
:10255000172011F036F84D48006814F090FB04463F
:1025600002460B463F4904A814F0E4FF04AA0821E0
:10257000172011F026F806B0BDE8F08710B5044624
:1025800043A014F0C7FFA4F10A0012282ED2DFE8FE
:1025900000F02A2D2D2D2D2D090C0F181B1E212783
:1025A0002D121524FFF75DF821E0FFF70BFA1EE06E
:1025B000FFF790FA1BE0FFF72CFB18E0FFF756FC43
:1025C00015E0FFF7ACFC12E0FFF7ABFD0FE0FFF703
:1025D0007BFE0CE0FFF7DFFE09E0FFF72FFF06E0D0
:1025E000FFF767FF03E0FFF71CF800E000BF00BF44
:1025F00010BD2DE9FF5F074697F800A0BAF1070F5D
:1026000072D178783049FDF725FF072011F089FB5A
:1026100001267BE0B01E052190FBF1F000F0FF0BDE
:10262000B01E90FBF1F201FB120000F0FF092748F9
:1026300010F80680B8F1010F61D0B8F10A0F47DB3E
:10264000B8F10F0F44DCB95D404611F07CFB56E059
:102650005E000020C50D0020250000205C00002049
:10266000CC080020140E00082C090020000059405E
:1026700034090020808C01083A0900200000244021
:1026800025302E3166000000400700205009002050
:102690003D3D3D3D3D3D3D3D3D3D3D3D3D3D3D3D6A
:1026A0003D3D3D3D3D3D3D3D3D3D3D3D3D3D7374ED
:1026B0006172743A636F6E74726F6C735F7570647D
:1026C0006174650A00000000840000202889010868
:1026D00009EBD9714910B9EB410106D1BA5DFFA1EF
:1026E00002A814F027FF06E080E0BA5DAFF668119B
:1026F00002A814F01FFF02A9404611F09AFBB85D32
:102700004A46594601F0D9FD701CC6B2202E81DB25
:1027100097F8212097F8201002EB012014F059FAC5
:1027200004460022EF4B14F0D7F9CDE9000114F074
:10273000E5FAED4908600846006814F0A0FA04467E
:1027400002460B46AFF6182102A814F0F3FE02A9C8
:10275000362011F06EFB00262DE0232101EB46010F
:102760007A5C222101EB4601795C02EB012014F036
:1027700030FA04460022DB4B14F0AEF9CDE900013B
:1027800014F0BCFAD94941F8260006F1300000F0F7
:10279000FF0851F8260014F072FA044602460B4670
:1027A000AFF6742102A814F0C5FE02A9404611F04C
:1027B00040FB701CC6B2062ECFDB002609E0F01CE1
:1027C00000F0FF08CA48815D404611F0BCFA701C59
:1027D000C6B2072EF3DB0120C6490870C648C17A8D
:1027E000007A01EB0020C549088006E051463846D2
:1027F000FEF7ECFB5046FFF7C1FE0120C049087010
:10280000BDE8FF9F08B5BF4800788DF80000BE48BE
:1028100000788DF8010001226946BC4812F003FDE2
:1028200008BD2DE9F04F85B00646102E33D1B848CB
:1028300000788DF80C00B74800788DF80D00002066
:102840008DF80E00B44800788DF80F00B34800787A
:102850008DF81000B14840788DF81100AF488078AD
:102860008DF81200AD48C078AC49097940EA4100C2
:10287000AA49497940EA8100C0B28DF813009DF859
:102880001310A7A014F046FE042203A99F487E3827
:1028900012F0C9FCD2E3112E75D1A549A5480068F4
:1028A00013F08EFF824614F0B2F90446C01704EB11
:1028B0001060C0F307259E499E48006813F080FF12
:1028C000824614F0A4F90446C01704EB106000120D
:1028D000A4EB0020C7B296499748006813F070FF38
:1028E000824614F094F90446C01704EB1060C0F35C
:1028F000072001908E499048006813F061FF8246DE
:1029000014F085F90446C01704EB10600012A4EB24
:102910000020C0B20090894800788DF808008DF83A
:1029200009508DF80A7000218548006814F002FAF9
:102930002AD28348006880F0004B7D49584613F046
:102940003FFF824614F063F90446C01704EB1060A1
:1029500000128030C0B28DF80B007948006880F01A
:10296000004B7349584613F02BFF824614F04FF981
:102970000446C01704EB10600012A4EB0020C0B2A4
:102980008DF80C0021E050E069496D48006813F0B3
:1029900017FF824614F03BF90446C01704EB1060A1
:1029A000000A8DF80B0062496548006813F008FFC3
:1029B000824614F02CF90446C01704EB1060001294
:1029C000A4EB0020C0B28DF80C005E4800788DF8B2
:1029D0000D0057495C48006813F0F2FE044614F0FD
:1029E00016F9C0B28DF80E00584800788DF80F0027
:1029F00001988DF8100000988DF81100052202A9A9
:102A00004248763812F00FFC49495148006813F0EB
:102A1000D7FE044614F0FBF8C0B28DF8080001227E
:102A200002A94C4812F0FFFB08E3122E55D1404991
:102A30004948006813F0C4FE824614F0E8F80446E2
:102A4000C01704EB1060C0F30720019038494248DA
:102A5000006813F0B5FE824614F0D9F80446C0179A
:102A600004EB10600012A4EB0020C5B23B490888BB
:102A7000C11700EB1161C1F3072738490888C11756
:102A800000EB11610912A0EB0121C9B20091344899
:102A900000788DF8080001988DF809008DF80A502B
:102AA00000213048006814F045F972D22D480068C2
:102AB00080F0004B1E49584613F082FE824614F007
:102AC000A6F80446C01704EB106000128030C0B2B4
:102AD0008DF80B002348006846E0ACE025303264F6
:102AE00000000000000059408C000020000D002074
:102AF0008400002027000020C50D00201E000020BB
:102B00002A000020D4080020590800207E10070861
:102B10006E080020F3080020F4080020850900203A
:102B200074656D705B375D203D2025640A000000F0
:102B30000000C842F80800200C090020F508002019
:102B4000FC080020000900200409002008090020DA
:102B500070000020881307081409002020090020B5
:102B6000100900201809002080F0004BFF4958464A
:102B700013F026FE824614F04AF80446C01704EB10
:102B800010600012A4EB0020C0B28DF80C0021E010
:102B9000FFE7F649F648006813F012FE824614F08B
:102BA00036F80446C01704EB1060000A8DF80B00DD
:102BB000EE49EF48006813F003FE824614F027F850
:102BC0000446C01704EB10600012A4EB0020C0B252
:102BD0008DF80C00E549E748006813F0F1FD044664
:102BE00014F015F8C0B28DF80D008DF80E70009835
:102BF0008DF80F00DD49E048006813F0E1FD044660
:102C000014F005F8C0B28DF81000052202A9DB48C7
:102C100012F009FBD549DA48006813F0D1FD0446EB
:102C200013F0F5FFC0B28DF80800012202A9D548C3
:102C300012F0F9FA02E2192E3AD1D34800680028BE
:102C400014DAD14909684842C11700EB1161091231
:102C50008031CE4A1171CC4909684842C11700EB56
:102C600011610912A0EB0121517110E0C6490868F9
:102C7000C11700EB1161090AC44A1171C249086801
:102C8000C11700EB11610912A0EB01215171002461
:102C900005E0BE48005D02A90855601CC4B20C2CBA
:102CA000F7DB062202A9B5480A3012F0BCFAC5E1EA
:102CB0001A2E18D11A208DF80C00012406E0601E8F
:102CC000B349085C03A90855601CC4B2042CF6DDA6
:102CD000B04890F8088090F8099003AA4946404609
:102CE00010F02AFBAAE1132E4DD1002705E0AA48D7
:102CF000C05D01A9C855781CC7B2102FF7DB0822A8
:102D000001A99E481A3012F08EFAA44800788DF876
:102D1000040000208DF80500012201A99948001F38
:102D200012F081FA9E499F48006813F049FD04465D
:102D300013F06DFF000A8DF8040099499948006866
:102D400013F03EFD044613F062FFC0B28DF805009B
:102D50009448006813F093FF044602460B4692A085
:102D600014F0D8FB9DF8041096A014F0D3FB9DF846
:102D7000051098A014F0CEFB012201A9814808306B
:102D800012F051FA5AE1142E19D1002405E09548A9
:102D9000005D02A90855601CC4B20A2CF7DB9DF83F
:102DA00008109148007801EB0010C0B28DF80800BF
:102DB000052202A971482A3012F035FA3EE1152E9B
:102DC00070D100218948006813F0B4FF27D28748EA
:102DD000006880F0004A7249504613F0F1FC074643
:102DE00013F015FF0546C01705EB10600012803088
:102DF0007F4948727D48006880F0004A6849504623
:102E000013F0DEFC074613F002FF0546C01705EB82
:102E100010600012A5EB0020754988721FE0604920
:102E20007248006813F0CCFC074613F0F0FE05462C
:102E3000C01705EB1060000A6D49487258496B488D
:102E4000006813F0BDFC074613F0E1FE0546C0170D
:102E500005EB10600012A5EB002065498872002484
:102E600005E06348005D02A90855601CC4B20C2C43
:102E7000F7DB062202A94148343012F0D4F95D484C
:102E800000788DF8080000208DF80900012202A9C1
:102E90003C48801F12F0C7F957480078FDF7A9FD9C
:102EA000CCE0FFE7162E10D1002405E05348005D6A
:102EB00003A90855601CC4B2082CF7DB042203A93F
:102EC0002E48403012F0AFF9B8E01B2E10D100248C
:102ED00005E04B48005D03A90855601CC4B2062CF0
:102EE000F7DB032203A92548483012F09CF9A5E03E
:102EF000172E39D1434800788DF80C0041484078AE
:102F00008DF80D0040490888C11700EB1161090ACE
:102F10008DF80E103C490888C11700EB11610912A9
:102F2000A0EB0121C9B28DF80F1038490888C117EC
:102F300000EB1161090A8DF8101034490888C11797
:102F400000EB11610912A0EB0121C9B28DF811103B
:102F50002F490888C11700EB1161090A8DF812107A
:102F60002B490888C11755E064E000000000C84202
:102F7000180900201C09002024090020121007084D
:102F8000740000208A130708C8080020A00D002044
:102F9000280900204C8C0108AC0D00205D000020A9
:102FA00000002041CC090020536176652050756DEA
:102FB00070204D617820467265713A20252E316669
:102FC0000A00000074656D705B305D203D20256453
:102FD0000A00000074656D705B315D203D20256442
:102FE0000A000000BC0D00205E000020CC0800207C
:102FF000C50D0020250000205C0000202C090020C9
:10300000340900203A090020D4090020D609002004
:10301000D809002000EB11610912A0EB0121C9B20F
:103020008DF81310042203A9FC4812F0FCF8FDF7F8
:103030004AFD03E00A2E01D1FFF7E4FB05B0BDE82D
:10304000F08F38B504468DF8004000208DF801005F
:1030500001226946F148563012F0E5F838BD70B5E6
:103060008CB00646304613F059F8C4B2314601A878
:1030700013F06AF82A2C0CDA012C0ADD601CC5B2A8
:1030800005E0E7A101A813F03BF8681CC5B22A2DA2
:10309000F7DD01A9E3A014F03DFA152201A9E248E9
:1030A00012F0C1F80CB070BD7FB50646304613F083
:1030B00035F8C4B22146DDA014F02CFA314668463A
:1030C00013F042F80E2C0ADA601CC5B205E0D4A158
:1030D000684613F015F8681CC5B20E2DF7DD694679
:1030E000D0A014F017FA07226946CC48083012F035
:1030F0009AF87FBD01464FF4C87091FBF0F300FBD6
:10310000131068B10A46C81701EB90708010B1EB3C
:10311000800007D1642091FBF0F300FB131008B18D
:10312000012000E00020C0B2704730B501460A46D9
:1031300001EBD1704010A1EB40000C46CD1701EB24
:10314000557500EBE50303EBD3704010A3EB400093
:10315000C0B230BD10B50446A078022817D120882F
:10316000FFF7C8FF48B1E0781D281DDD0320A070DF
:10317000E0781D38E070012010BDE0781C2813DDD8
:103180000320A070E0781C38E0700120F4E7A078FC
:10319000FFF7CBFF40B9E0781E2805DDA078401C82
:1031A000A0700120E070E7E70020E5E72DE9FC4191
:1031B00004460D4616461F46DDF82080642094FB29
:1031C000F0F0C0B28DF80000642094FBF0F100FB39
:1031D0001140C0B28DF801008DF802508DF80360E7
:1031E0008DF804708DF80580032269468B481630EF
:1031F00012F019F8BDE8FC812DE9F04786B00746CA
:1032000097F880008F49FDF725F9072010F089FD18
:10321000012642E0B01E052190FBF1F000F0FF0A0C
:10322000B01E90FBF1F201FB120000F0FF0986488E
:1032300010F80680B8F1010F26D0B8F10A0F09DBAB
:10324000B8F10F0F06DC06F17F00395C404610F044
:103250007AFD19E009EBD9714910B9EB410108D1A8
:1032600006F17F003A5CAFF28C7103A814F062F9AA
:1032700006E006F17F003A5C74A103A814F05AF945
:1032800003A9404610F0D5FD06F17F01785C4A465F
:10329000514601F012F8701CC6B2202EBADB97F826
:1032A000A02097F89F1002EB012013F092FC00225F
:1032B000674BCDE9000113F00FFC044613F01EFD2F
:1032C000644908600846006863490860012202A951
:1032D00055482A3011F096FF9DF809209DF80810F6
:1032E00002EB012013F075FC04460022584B13F04A
:1032F000F3FBCDE9000113F001FD5849086058497E
:103300005648006813F020FD02D256485349086021
:103310005148006813F0B3FC044602460B4652497C
:1033200003A814F007F903A9362010F082FD002647
:103330002CE0A22101EB46017A5CA12101EB4601C0
:10334000795C02EB012013F044FC04460022404B60
:1033500013F0C2FBCDE9000113F0D0FC434941F862
:10336000260006F1300000F0FF0851F8260013F0A7
:1033700086FC044602460B463B4903A814F0DAF8E3
:1033800003A9404610F055FD701CC6B2062ED0DBD6
:10339000002609E0F01C00F0FF082A48815D404645
:1033A00010F0D1FC701CC6B2072EF3DB3048017858
:1033B000282010F0C8FC2F4801782A2010F0C3FC08
:1033C00001202D4908702D48C17A007A01EB0020B8
:1033D0002B49088006B0BDE8F08770B505460C465D
:1033E00021462846FDF7F2FD2046FFF7C7F8642086
:1033F00011F0A6FB70BDF8B5012269460A482C30D1
:1034000011F000FF9DF80000032802DC9DF8000089
:1034100018B91C481C49086046E037E060100708EE
:103420002300000025730A005213070853617665D4
:1034300050686F6E654E627228293A2069203D20DF
:1034400025640A0084000020288901082564000002
:10345000000059404C0000208C000020A0000020FB
:1034600000004842CDCCCC3E301D0008000D0020AD
:10347000780000206007002027000020C50D0020F4
:103480001E0000200AD7233CD00900209DF8000030
:1034900013F0B0FB0446FF4AFF4B13F0ACFA0646AC
:1034A00013F02CFCFD490860F8BD08B501226946FF
:1034B000FB4811F0A7FE9DF80000FA49087008BD0E
:1034C00008B501226946F648801C11F09BFE9DF864
:1034D0000010F5A014F01EF89DF80000012802DD90
:1034E00000208DF800009DF80000F849087008469B
:1034F0000078012801D13C2000E03220F449087016
:1035000008460178F3A014F005F808BD08B50122BB
:103510006946E348001D11F075FE9DF80010F2A009
:1035200013F0F8FF9DF80000012802DD00208DF85F
:1035300000009DF80000F549087008460178F4A0E5
:1035400013F0E8FF08BD08B501226946D448801D84
:1035500011F058FE9DF80010F1A013F0DBFF9DF86C
:103560000000322802DD14208DF800009DF80000D4
:10357000F549087008460178F4A013F0CBFF08BDA8
:10358000F8B501226946C648083011F03BFE9DF8A7
:103590000010F4A013F0BEFF9DF80000962803DC95
:1035A0009DF80000322802DA64208DF800009DF8B2
:1035B000000013F01FFB04460022F64B13F08CFAB8
:1035C000064613F09BFBF44908600846006813F0B8
:1035D00056FB044602460B46F0A013F09BFFF8BDD5
:1035E000F8B501226946AE480A3011F00BFE9DF88D
:1035F0000010F2A013F08EFF9DF80000962803DC67
:103600009DF80000322802DA64208DF800009DF851
:10361000000013F0EFFA04460022DE4B13F05CFAD0
:10362000064613F06BFBF24908600846006813F089
:1036300026FB044602460B46EEA013F06BFFF8BDD6
:1036400008B50122694696480C3011F0DBFD9DF863
:103650000010F1A013F05EFF9DF80000012802DDCC
:1036600000208DF800009DF80000F649087008461B
:103670000178F5A013F04EFF08BD08B50122694698
:1036800087480E3011F0BEFD9DF80010F5A013F034
:1036900041FF9DF80000012802DD00208DF80000A8
:1036A0009DF80000FA49087008460178F9A013F067
:1036B00031FF08BDF8B5012269467948103011F094
:1036C000A1FD9DF80010FAA013F024FF9DF8000062
:1036D000642803DC9DF800000A2802DA14208DF823
:1036E00000009DF8000013F085FA04460022F94B13
:1036F00013F0F2F9064613F001FBF749086008469B
:10370000006813F0BCFA044602460B46F3A013F01F
:1037100001FFF8BDF8B5012269466148123011F089
:1037200071FD9DF801209DF80010F2A013F0F2FE4B
:103730009DF801109DF8002041EA022013F049FA9B
:1037400004460022E34B13F0C7F9064613F0D6FAFD
:10375000F24908605E48007813F036FA0446EF48F4
:103760000168204613F0E6FA05D25948007813F0B4
:103770002BFAEA490860E948006813F080FA044629
:1037800002460B46E6A013F0C5FEF8BD30B5B1B059
:10379000E84BE84AB13AB221E74813F0BBFE5922A0
:1037A00004A9E448B13811F02DFD0DF0BCFAFFF783
:1037B00087FEFFF7ABFEFFF7C6FEFFF7E1FEFFF760
:1037C0000FFFFFF73DFFFFF758FFFFF773FFFFF70E
:1037D000A1FF102104A8FFF700FE112104A8FFF7A4
:1037E000FCFD122104A8FFF7F8FD192104A8FFF73A
:1037F000F4FD1A2104A8FFF7F0FD0DF094FA13214F
:1038000004A8FFF7EAFD142104A8FFF7E6FD15213F
:1038100004A8FFF7E2FD162104A8FFF7DEFD1B2137
:1038200004A8FFF7DAFD0DF07EFA172104A8FFF7D0
:10383000D4FD0B2104A8FFF7D0FD202104A8FFF739
:10384000CCFD0F2104A8FFF7C8FD0A2104A8FFF74B
:10385000C4FD04A8FFF7D0FCFFF7CDFDFFF72AFF5A
:10386000FDF789F9FFF721FE0E480278AFF22441F7
:1038700001A813F05FFE01AA012128200FF0A1FE8C
:10388000AEA2202104200FF09CFE0DF04CFAAE48B1
:1038900000685BE17B14AE47E17A843FD0090020E9
:1038A000801307089E0B00206C6F61645F75736561
:1038B0003630687A28766F6964293A2062756666C0
:1038C0005B305D203D2025640A0000005C00002084
:1038D000240000204D6178467265714F7574203D5B
:1038E000202564487A0A00006C6F61645F61766627
:1038F0005F6D6F646528766F6964293A206275662A
:10390000665B305D203D2025640A00002500002014
:103910004176664D6F6465203D2025640A000000F5
:103920006C6F61645F70756D705F63616E63656C11
:103930005F667265713A20627566665B305D203D38
:103940002025640A000000005D00002050756D70A5
:1039500043616E63656C46726571203D2025640A83
:10396000000000006C6F61645F6F75746C65745F5C
:1039700070726573737572655F63616C695F636FA5
:103980006566663A20627566665B305D203D20257F
:10399000640A000000005940700000204F75746CEC
:1039A0006574507265737375726543616C69436FBA
:1039B000656666203D20252E32660A006C6F6164C4
:1039C0005F656E7472616E63655F70726573737547
:1039D00072655F63616C695F636F6566663A2062FA
:1039E0007566665B305D203D2025640A000000009E
:1039F00074000020456E7472616E63655072657369
:103A00007375726543616C69436F656666203D201E
:103A1000252E32660A0000006C6F61645F72656D6E
:103A20006F74652074617267657420656E61626C85
:103A3000653A20627566665B305D203D2025640A2C
:103A4000000000007800002052656D6F74655461BD
:103A500072676574456E61626C65203D2025640A5D
:103A6000000000006C6F61645F7573655F696F5F74
:103A70007461726765745F70726573737572653AAD
:103A800020627566665B305D203D2025640A00007B
:103A900060070020557365496F5461726765745003
:103AA00072657373757265203D2025640A000000FD
:103AB0006C6F61645F73706565645F75705F66618C
:103AC00063746F723A20627566665B305D203D20DC
:103AD00025640A00000024405009002053706565E9
:103AE0006420557020466163746F72203D20252E3E
:103AF00031660A006C6F61645F70756D705F6D6137
:103B0000785F667265713A20627566665B205D203B
:103B10003D207B25642C2025647D0A00CC090020F3
:103B200050756D704D617846726571203D20252E6F
:103B300031660A00B1100708D88C01085665722D4D
:103B4000312E332E34000000A000002013F097F82F
:103B5000044602460B46F9A013F0DCFCFF4800685F
:103B600013F08DF8044602460B46FD4901A813F0F8
:103B7000E1FC01AA012107200FF023FDF9480068AC
:103B800013F07DF8044602460B46F7A013F0C2FC82
:103B9000F448006813F073F8044602460B46F049F7
:103BA00001A813F0C7FC01AA092117200FF009FD95
:103BB00001A9AFF2907013F0ADFC0120F14908703B
:103BC00031B030BD38B504468DF800400122694659
:103BD000ED4811F028FB38BD30B5ADB005460024E6
:103BE00007E0EA4850F82400C0B20DF80400601C59
:103BF000C4B2B22CF5DB5A2D03D02846FFF7E2FF02
:103C00002EE059226946E048AE3811F00CFB0BF06B
:103C1000F0FE1E20FCF71FFFFDF7B5F9DCA0FFF753
:103C20001EFAFDF7C8F9DB48FCF720FF1420FCF76B
:103C300050FF0120D8490870FCF7D0FE0020FCF7A7
:103C4000D8FE6420FCF7E0FE0020FCF7EEFE00202A
:103C5000FCF7F6FED148FCF723FFD148FCF747FFFD
:103C60002DB030BD10B5CF48007858280BD1CD48C5
:103C70000078582807D1CB480078582803D1002075
:103C8000C949087002E00120C7490870C648027897
:103C900001210F200FF06CFC642010F051FF10BDCB
:103CA00010B50446C14813F035FC6078BD49087072
:103CB000A0784870E0788870A07ABD4908700846FE
:103CC0000178BCA013F026FCB9480078A52808D0DC
:103CD0004220BE49087048708870BDA013F01AFCDD
:103CE0001AE02079642801DA207900E04220B749FF
:103CF00008706079642801DA607900E04220B349F5
:103D00004870A079642801DAA07900E04220AF4928
:103D10008870B5A013F0FEFBA2480178B8A013F09C
:103D2000F9FBA0484178BBA013F0F4FB9D488178D3
:103D3000BDA013F0EFFBA5480178C0A013F0EAFB8B
:103D4000A2484178C2A013F0E5FBA0488178C5A045
:103D500013F0E0FB9348007858280AD19148407846
:103D6000582806D18F488078582802D10120C249AE
:103D70000870FFF777FF10BD0EB5834A0B328249FA
:103D80008A484C3013F0C6FB062269467E4811F083
:103D900039FA9DF8080018B19DF808000A2802DDDC
:103DA00001208DF808009DF80800B4490870B44857
:103DB0000078D0B9B3A013F0ADFB9DF800005A28ED
:103DC00008D09DF800107948903013F0A3FB5A20DA
:103DD000FFF702FFB1A013F09DFB6846FFF760FFFD
:103DE0000120A7490870FFF7D1FC0EBD08B55A2085
:103DF0008DF800006B4800788DF801006948407824
:103E00008DF80200674880788DF803000222694629
:103E10005D4811F008FA08BD08B56C4800788DF8C7
:103E200000006A4840788DF80100684880788DF875
:103E30000200022269465448001D11F0F4F9A52041
:103E40008DF8000000208DF80100012269464E48DF
:103E50000A3011F0E8F908BD0020002105E0974A7A
:103E6000525C0244D0B24A1CD1B20629F7DB70473B
:103E700000B593B005F012FA9148407980B19048AE
:103E8000016804918088ADF814008E4801680291A1
:103E90008088ADF80C0002A80FC805F0D3F9B8BBB4
:103EA00089480078012832D1002087490870874866
:103EB000007800280ADD85480078401E8349087094
:103EC0000846007810B900208149086000220D21C1
:103ED00001200FF0FBFA642010F032FE7D480078DC
:103EE000012807D17CA21E210FF06BFB01207E4927
:103EF000087007E07DA21E2101200FF062FB002068
:103F000079490870642010F01BFE01F00EFD56E1A7
:103F1000FFE76D48007878B977A013F0FBFA01202D
:103F20006949087069480078401C68490870012098
:103F3000674908600246EFE041E1000052656D6F9D
:103F400074655461726765745072657373757265D8
:103F5000203D20252E32660A00000000A00000202F
:103F6000301D0008D00900205461726765744C6FE1
:103F7000636B657244656C7461203D2025302E3280
:103F8000660A00002A000020AE10070850890108C8
:103F9000200000000AD7233C9E0B00200000404078
:103FA00000004842F0080020AB0700201C8D0108EB
:103FB0006E000020466163746F7279496E666F4CC3
:103FC0006F636B6564203D2025640A00A80700200C
:103FD000464143542050494E204E4F54205345549F
:103FE000205945540A000000464143542050494E90
:103FF00020414C524541445920534554200A000069
:104000005573657250696E5B305D203D2025640AF2
:10401000000000005573657250696E5B315D203D94
:104020002025640A000000005573657250696E5BBC
:10403000325D203D2025640A000000004661637463
:104040006F727950696E5B305D203D2025640A00F7
:10405000466163746F727950696E5B315D203D20FB
:1040600025640A00466163746F727950696E5B3231
:104070005D203D2025640A006708002079000020AB
:1040800064080020466163746F7279206368656319
:104090006B696E672E2E2E0A000000006368656350
:1040A0006B206F6B2C206A756D7020746F206E65AD
:1040B00078742070686173650A000000850900202B
:1040C000500000205600002026000020280A002072
:1040D000AC0123421C000020D7D4B6AFD4CBD0D043
:1040E000D7B4CCAC00000000A40B0020B5C8B4FDD0
:1040F000D7B4CCAC00000000212121547269616C5E
:1041000020706572696F64206861732065787069DA
:104110007265640A0A0000004FF00D0110460FF0AE
:10412000D5F9642010F00CFD26480078012809D14B
:1041300000202449087024490871012008F04CF936
:1041400009F04CFC21A21E2101200FF03AFA0020B8
:1041500022490870642010F0F3FCAFF204220B2116
:1041600005200FF02EFA642010F0EAFC1CA31E4874
:1041700002781E4801781E480078CDE90323CDE976
:1041800001011C4803781C48009303781B480278FF
:104190001BA106A813F0CEF906AA22480078411CFC
:1041A00005200FF00EFA1F480078401C0A2190FBF2
:1041B000F1F201FB12001B49087001F0B6FB13B0CD
:1041C00000BD00001C000020200A0020B5C8B4FD7E
:1041D000D7B4CCAC2DB9CAD5CF000000A40B0020B9
:1041E000B9CAD5CF00000000980000209700002039
:1041F00096000020160B0020150B0020140B002049
:10420000323025642D253032642D2530326420254E
:104210003032643A253032643A253032642D2D2D07
:10422000257300002B0A0020FC48007880B1FC4870
:10423000007868B9FB480088401CFA4908800846A5
:104240000088F9490978884202DB0120F4490870A6
:1042500070470020F3490880F14908707047F3481F
:104260000078022802D1F24840787047F14800886F
:10427000FBE700B5F0480078012810D1EF4800882E
:10428000401CEE490880FFF7EAFFEC4909888842A4
:1042900005DC0120EA4908700020E749087000BDEC
:1042A0000020E6490880E64908707047024602EBA4
:1042B0008200E44B1844405C704710B501EB810369
:1042C000E04C2344985410BD10B502460B46002123
:1042D00008E04406200E545C012C01D1441CE0B2DD
:1042E0004C1CE1B29942F4DB10BDF0B58DB0D6485C
:1042F0000078D649C8710821D448FFF7E5FF8DF84A
:104300000400002412E000250CE004EB8400CD49F9
:104310000844415D04EB84002844401C01AA115468
:10432000681CC5B2052DF0DB601CC4B2062CEADBAC
:10433000C749C848006812F043FA074612F067FC04
:104340000646C01706EB1060000A8DF82300C0492E
:10435000C048006812F034FA074612F058FC0646CE
:10436000C01706EB10600012A6EB0020C0B28DF85B
:10437000240000242AE0B84951F82400B44912F07E
:104380001FFA074612F043FC0646C01706EB106002
:10439000C0F30720212101EB440101AA5054AE498A
:1043A00051F82400AA4912F00BFA074612F02FFC2C
:1043B0000646C01706EB10600012A6EB0020222173
:1043C00001EB440101AA5054601CC4B2062CD2DB9C
:1043D000172201A9A14810F026FF9D49A0480068B6
:1043E00012F0EEF9074612F012FC0646C01706EB73
:1043F0001060000A8DF8000095499948006812F095
:10440000DFF9074612F003FC0646C01706EB106002
:104410000012A6EB0020C0B28DF80100012269460F
:10442000904810F000FF90480078FCF7FEFA8F48A3
:104430000078FCF705FB0DB0F0BD002106E08348D5
:10444000405C012800D17047481CC1B20729F6DB47
:104450000020F8E7F0B500256C1E002227E002EBF3
:104460008200784E305C00B3681CC5B200211AE0AF
:1044700002EB8200734E3044022606EB4106805D5B
:1044800002EB82066F4F3E44012707EB4107F65DC2
:10449000C6EB061600EB8603A34201DC0020F0BD4C
:1044A0001C46481CC1B20229E2DB501CC2B2062ADB
:1044B000D5DB0120F3E770B504460D466C48007863
:1044C000C0EB00106B49097801EB800086B2C4EBA9
:1044D000041005EB8000B04206DC2A46214666A0A7
:1044E00013F018F8012070BD0020FCE710B50AE0B9
:1044F0006B480078401C6A49087008460078062816
:1045000001DB002010BD6648007800EB80004D49BB
:10451000085C0028ECD0624A127802EB82020B465B
:104520001A4411795E4A127802EB82021A44D0785A
:10453000FFF7C1FF0028DBD15948007800EB80006D
:10454000404908444078574908705548007800EBC6
:1045500080003C49084480785349087050480078EE
:1045600000EB800037490844C078504908704C4837
:10457000007800EB80003349084400794C4908700A
:104580000120BFE710B50246C2EB021001EB80002C
:1045900083B24848007858B942480078C0EB001010
:1045A000414C247804EB8000984211DC012010BDBE
:1045B0004048007801280BD13C480078C0EB00103F
:1045C0003B4C247804EB8000984201DC0220EEE7AB
:1045D0000020ECE77CB50646304612F050FB04465E
:1045E00002460B4634A1684612F0A4FF6A46162123
:1045F00001200EF0E6FF7CBD10B51D480078C0EB31
:1046000000101C4B1B7803EB800082B20F482C4B30
:104610001B78C05C01287ED1002183E0920000203D
:104620006C08002068080020290000206E08002087
:104630003409002020090020800000206A080020A2
:104640006D080020180D0020830000208400002049
:104650000000C8424C000020000D00208010070818
:10466000A00000207C1307087800002060070020CD
:1046700096000020970000200A77696E646F77200B
:104680005B2A2D2A202D2D2D3E2025642D256420EA
:104690002068617320657870697265640A000000A3
:1046A00094000020990000209A0000209B00002028
:1046B0009C00002093000020252E326600000000A0
:1046C0009D00002001EB81006B4B185C012827D175
:1046D00001EB81001844807801EB8103664C234490
:1046E0005B78C3EB031300EB8300904202DD634869
:1046F000006810BD01EB81005F4B1844007901EBAD
:1047000081035D4C2344DB78C3EB031300EB830090
:10471000904205DD00E00AE0594850F82100E8E742
:10472000481CC1B20629CDDB54480068E1E70020EF
:10473000DFE7002053490870704710B54F48046800
:10474000002050490870504850490978405C0128C1
:1047500026D100204E4908704E490870FFF7C6FE6A
:10476000D0B10120474908704B480078C0EB0010D9
:104770004A49097801EB800049490978C1EB0111E8
:10478000484A127802EB810188420ADB3C484149E1
:10479000097850F8214004E063203D49087000E0AA
:1047A00000244148007810B14048007818B92046EC
:1047B00005F0D3F803E03E48006805F0CEF810BDE0
:1047C00010B5FFF7BAFF01203A4908703A4908705E
:1047D00000203A49087001203949087110BD10B510
:1047E00028480078F0B32A480078632843D02B4843
:1047F000017829480078FFF7C5FE012813D1314818
:10480000007860B92848007848B92E48007830B957
:104810001B49204A127851F8220005F09EF8012029
:104820001B49087027E01D4801781B480078FFF7F6
:10483000A9FE02281FD11C48007818B90F4800684B
:1048400005F08BF800201249087012480078401CCF
:104850001049087008460078052809DCFFF746FE75
:10486000012800E003E006D063200949087002E057
:1048700063200749087010BD180D00208C0000202F
:10488000000D002082000020840000209D000020F8
:104890009300002094000020960000209700002044
:1048A000990000209A00002090000020780000204D
:1048B000A0000020910000201C0000205A080020C9
:1048C000200A002060070020FD4A42F821007047BE
:1048D0002DE9F04705460E4617469846DDF820902C
:1048E000B5F5A57F01DD4FF4A075002D00DA002598
:1048F000052095FBF0F0C4B2F24951F8340012F0F3
:1049000086F9C8F80000EF4A611C52F8310012F035
:104910007EF9C9F80000EB4800EBC4004068306045
:10492000E849601C01EBC00040683860BDE8F087D2
:104930002DE9F04705460E4617469846DDE9089AE8
:10494000B5F5A57F00DDDC25002D00DA00250A2065
:1049500095FBF0F0C4B2BAF1010F1AD1DA4951F85F
:10496000340012F054F9C8F80000D74A611C52F81C
:10497000310012F04CF9C9F80000D34800EBC40034
:1049800040683060D049601C01EBC000406838606E
:104990001CE0BAF1020F19D1CC4951F8340012F0E1
:1049A00036F9C8F80000C94A611C52F8310012F00B
:1049B0002EF9C9F80000C54800EBC400406830601B
:1049C000C249601C01EBC00040683860BDE8F08758
:1049D0002DE9F04705460E4617469846DDE9089A48
:1049E000B5F5A57F00DDDC25002D00DA00250A20C5
:1049F00095FBF0F0C4B2BAF1030F1AD1B44951F8E3
:104A0000340012F004F9C8F80000B14A611C52F8F1
:104A1000310012F0FCF8C9F80000AD4800EBC4000A
:104A200040683060AA49601C01EBC00040683860F3
:104A30001CE0BAF1040F19D1A64951F8340012F064
:104A4000E6F8C8F80000A34A611C52F8310012F0E1
:104A5000DEF8C9F800009F4800EBC40040683060F1
:104A60009C49601C01EBC00040683860BDE8F087DD
:104A70002DE9F04780468946B8F1000F0DD19648E0
:104A8000006812F0FCF80446944A954B12F024F8A2
:104A9000064612F033F9BDE8F087B8F1010F12D1E4
:104AA000B9F1010F02D0B9F1020F0CD18D480068A5
:104AB00012F0E5F80646894A894B12F00DF80446D3
:104AC00012F01CF9E7E78849CA78897802EB0120DF
:104AD00012F07FF804460022844B11F0FDFF0646D9
:104AE00012F00CF9D7E72DE9F04F87B004460D46D8
:104AF00016464FF07E58012C01D0022C30D1E3B283
:104B000003AACDE9002304AB05AA06A92846FFF7AE
:104B10000FFF21463046FFF7ABFF8046DDE9031269
:104B2000881A12F048F80290DDE9051011F042FEF3
:104B300001900499481B12F03EF88346019911F048
:104B40003FFE8246029911F071FE8146069911F0EE
:104B5000DFFD07464146384611F032FE074659E070
:104B6000032C01D0042C30D1E3B203AACDE90023F9
:104B700004AB05AA06A92846FFF72AFF21463046BE
:104B8000FFF776FF8046DDE90312881A12F013F86A
:104B90000290DDE9051011F00DFE83460499481BD3
:104BA00012F009F85946019011F00AFE8246029966
:104BB00011F03CFE8146069911F0AAFD07464146D8
:104BC000384611F0FDFD074624E01CBB03AB009303
:104BD00004AB05AA06A92846FFF77AFEDDE9031211
:104BE000881A11F0E8FF0290DDE9051011F0E2FDEE
:104BF00083460499481B11F0DEFF5946019011F0DD
:104C0000DFFD8246029911F011FE8146069911F0EE
:104C10007FFD0746384607B0BDE8F08F2DE9F0412B
:104C200080460F4616464EB9404611F0F0FF044646
:104C300002462FA1384612F07DFC18E0012E0AD161
:104C4000404612F01CF8044602460B4629A138469D
:104C500012F070FC0BE0022E09D1404612F00FF862
:104C6000044602460B4625A1384612F063FCBDE817
:104C7000F08101464FF4A57001FB00F2D01702EB62
:104C800010500013704710B50022002014E00021DE
:104C900007E01C4B03EBC10333F810301A444B1CE4
:104CA000D9B23229F5DB322392FBF3F3164C24F808
:104CB00010300022431CD8B20428E8DB10BD0000ED
:104CC000600D0020DC000020F4020020040400201D
:104CD0001405002024060020F80800209A999999CC
:104CE0009999F93F14090020A00D002000408F4041
:104CF00025640000252E316600000000252E326656
:104D0000000000000C1B00204A0B0020F84A42F86B
:104D100020107047014659B9F6480078012800D1A3
:104D20007047F4480078022800D1F9E70120F7E73E
:104D300001292FD1F048007800F00F00012804D19C
:104D4000EE48007808B90520EAE7EB48407820B93A
:104D5000EA48007808B90320E2E7E948007820B97A
:104D6000E6480078012800D1DAE7E34840780128D6
:104D700004D1E248007808B90420D1E7E04800787F
:104D8000012805D1DD480078012801D10220C7E7BC
:104D90000120C5E70020C3E7014601290CD1D7480F
:104DA000007810B9D74880687047D4480078012847
:104DB00002D1D4484068F7E711B9D2480068F3E758
:104DC000012904DDCF4A481C52F82000ECE70020FE
:104DD000EAE70146012912D1CB480068CB4A127894
:104DE000904213DAC8480068401CC74A1060104659
:104DF0000068C64A1278904208DB01207047C2481A
:104E00000068002802DD0020BF4A10600020F5E79E
:104E100070B5BF480068BF49086007F0BBFF044693
:104E2000BA480078002816DD2046FFF7D2FF054675
:104E3000B948007840B9012D0DD10120B64908705C
:104E4000B6A012F067FB06E02CB90020B24908704A
:104E5000B8A012F05FFB012C03D1BB480068AC493D
:104E6000086070BD2DE9F04F89B00121B7480AF004
:104E70003CFF0121B6480BF064FA00BF0221B348A1
:104E80000BF08BF80028F9D0FFF7FDFE4FF000087B
:104E90000CE2B04931F81800FFF7EBFE04A921F845
:104EA0001800B8F1030F24D1AB48006811F0E7FEF9
:104EB00006460F4604A931F8180011F09BFE0022A7
:104EC000A64BCDE9000111F007FE32463B46CDE985
:104ED000020111F090FD044611F010FF81469E483A
:104EE0000168484611F030FF1BD29B48D0F8009073
:104EF00017E04046FFF70EFF824604A830F818106E
:104F000042465046FFF7EFFD81464046FFF744FF1B
:104F10000446494611F0FCFB814649464046FFF7EE
:104F2000F5FEB8F1000F4ED17948C0F800908C48DA
:104F300001687748006811F043FC7549086008462D
:104F4000006888490860022206A971480068FFF7D6
:104F500065FE06AA01212A200EF033FB7E48016877
:104F60006B48006811F0F0FE03D27B480068684986
:104F7000086000216648006811F0DCFE02D20020C3
:104F800063490860FFF744FF022206A961480068F0
:104F9000FFF744FE7448007801280ED1734800786A
:104FA00028B106AA232129200EF00BFB7AE106AADC
:104FB000232102200EF005FB74E106AA1521012031
:104FC0000EF0FFFA6EE1B8F1010F7ED14B48007888
:104FD000E0BBBAF1050F7FD04748C178807801EB7C
:104FE00000246348C0F80090204611F0E4FD054617
:104FF0005F480168284611F09DFE04D2204611F05A
:10500000DAFD5B49086000215948006811F092FE02
:1050100002D20020564908605548006811F0F7FD9B
:1050200085B22B4614220121084604F099FA4F4814
:10503000007860B14E48006811F0E9FD85B22B465A
:1050400020222921012004F08BFA0BE048E0484897
:10505000006811F0DCFD85B22B46202202210120E0
:1050600004F07EFA2449CA79897902EB012011F013
:10507000A2FD06463F49484611F0A2FB07463146CD
:1050800011F0D4FB05463B4911F05EFE06D25F23CA
:1050900037220121022004F063FA1CE01649CA7984
:1050A000897902EB012011F086FD07463149484617
:1050B00011F086FB8346394611F0B8FB064611F025
:1050C000A6FD85B22B46372201E099E004E00121DC
:1050D000022004F045FAE5E0002025490860E1E0FF
:1050E00007480078022849D1002023490860D9E008
:1050F000380D0020F5080020A00D00206E080020CB
:1051000010090020600D0020340700204007002017
:10511000540700203C0700200D00002054617267F6
:1051200065744C6F636B436F6E6669726D65642165
:105130000A00000054617267657420556E4C6F63FD
:105140006B6564210A000000E00900200024014092
:10515000080002404A0B0020F808002000C07240FE
:1051600070000020580700202000002025000020AB
:10517000500700200000BE42440700205748C0F8F6
:105180000090574801685548006811F019FB5349D1
:1051900008600846006853490860022206A9514881
:1051A0000068FFF73BFD06AA01212B200EF009FA4B
:1051B0004D4801684948006811F0C6FD03D24A48CD
:1051C00000684649086000214448006811F0B2FDBB
:1051D00002D2002041490860022206A93F48006827
:1051E000FFF71CFD06AA142101200EF0EAF9642045
:1051F0000FF0A6FC06AA202102200EF0E2F951E0F1
:10520000B8F1020F33D13948C0F80090012206A945
:105210004846FFF703FD06AA012126200EF0D1F92A
:1052200033480078E0B133A106A810F069FF06AA60
:10523000302101200EF0C5F92F480168484611F0D1
:1052400083FD06D24FF47842302101200EF020FF7A
:1052500028E04FF6FF72302101200EF019FF21E007
:10526000AFF26C52302101200EF0ABF91AE0B8F128
:10527000030F17D121480078A0B12148C0F8009051
:10528000006820490860022206A91D480068FFF74F
:10529000C5FC06AA362107200EF093F919480068CC
:1052A00004F05BFB08F1010000F0FF08B8F1040F07
:1052B000FFF6EFAD1448007850B11448007850B9AB
:1052C000FEF7D6FD0120114908700EF0A0F802E0AB
:1052D00001200D49087009B0BDE8F08F4407002097
:1052E000740000205C07002014090020880D0020B5
:1052F0007D000020A1E34300300000206007002073
:10530000640700208C000020380700200C000020DB
:10531000F8B506460D466A46CBA1304610F01EFF92
:1053200002240BE06421009890FBF1F201FB1200D3
:105330002855009890FBF1F00090641E002CF1DAE3
:10534000F8BD3EB5054600242946684610F0FCFE2F
:10535000BEA1684610F0D4FE0AE01DF8040039280A
:1053600003DC1DF80400302801DA03203EBD641C74
:105370001DF804002328F0D1062C01D00220F5E707
:105380000120F3E710B50446B149204610F0CEFEE7
:1053900008B1042010BD0520FCE770B504460E4698
:1053A00024B93046FFF7CDFF054605E0012C03D1B7
:1053B0003046FFF7E7FF0546284670BD70B5054645
:1053C0002946A4A012F0A6F82946A3480068FFF7D2
:1053D000E4FF0446A14850F824109EA012F09AF869
:1053E0009E4850F82420022109200EF0EAF8012CF2
:1053F00038D0052C3ED19AA012F08CF800209649A6
:1054000008609B480078012804D19A499048FFF72A
:105410007FFF03E098498E48FFF77AFF94480178B0
:1054200096A012F077F899A012F074F890480078DE
:10543000012808D1FEF7F0FCA52099490870042046
:105440000DF0E5FF04E0FEF7D1FC04200DF0DFFFD6
:1054500094A012F05FF881480221026809200EF042
:10546000B0F80BE001207C4908602946784810F02C
:105470006BFE03E000207849086000BF00BF70BDEC
:1054800010B504468D4850F8242002210E200EF05D
:1054900098F80E200DF0BBFF64200FF051FB10BDFB
:1054A00010B58748007808B9012010BD85480078FC
:1054B000012803D1FFF7E4FF0020F6E70120F4E71D
:1054C000F0B589B080480078401E112190FBF1F0C2
:1054D000401CC6B2002424E022467CA101A812F0A0
:1054E00029F801AA1C2121200EF06BF864200FF08E
:1054F00027FB01250FE0671C07EBD77104EB610167
:1055000001F1210076A229460EF05BF864200FF02D
:1055100017FB681CC5B2112DEDDD0BF004FC601CFF
:10552000C4B2B442D8DB6EA21C2121200EF049F88F
:1055300009B0F0BD70B59EB004460D465DB9FFF7E9
:10554000BFFF0020674908700120674908700020EC
:105550005D4908704EE0022D05D1224663A105A8E1
:1055600011F0E8FF12E06A4802786A4801786A4858
:10557000007801AB17C36948037869480093037842
:105580006848027868A105A811F0D4FF5549097848
:105590004E1C06EBD671534A127802EB610101F101
:1055A000210005AA504909780EF00BF864200FF08D
:1055B000C7FA45480078332804DA43480078401C8D
:1055C0004149087048480078112805DA46480078B3
:1055D000401C454908700DE042480078401C414994
:1055E000087008460078022801DD002008700120BC
:1055F0003D4908701EB070BD30B589B004460D46F7
:10560000DDB14CB91C4883780093437802784FA1F0
:1056100001A811F08FFF0AE0012C08D1154883780A
:105620000093437802784FA101A811F083FF01AAEB
:1056300004210F200DF0C5FF04E029A204210F2052
:105640000DF0BFFF09B030BD256C640023000000E1
:10565000AD07002025730A006C07002070070020AA
:1056600050494E5F434F4E4649524D4544200A0033
:1056700068070020A8070020F008002050696E4D40
:105680006F6465203D2025640A000000577269742C
:105690006550696E546F466C61736828293B0A0037
:1056A0006E000020476F206261636B20746F206D75
:1056B00061696E20736365656E0A000088070020CB
:1056C0002B000020A7070020A40700205061676579
:1056D0002564BCC7C2BCC7E5B3FDD6D02E2E2E00B4
:1056E00000000000A5070020A607002020202020A1
:1056F00020202020202020202020202020202020AA
:105700002020202020202020202D2D2D257300005A
:10571000980000209700002096000020160B002023
:10572000150B0020140B0020323025642D2530325B
:10573000642D2530326420253032643A25303264BD
:105740003A253032642D2D2D25730000B5B1C7B038
:10575000B2CECAFDC3DCC2EBA3BA253264253264E3
:1057600025326400B5B1C7B0CFB5CDB3C3DCC2EB51
:10577000A3BA2532642532642532640070B505462B
:105780000E46002405E055F82410FFA011F0C2FEDB
:10579000641CB442F7DBFEA011F0BCFE70BD0146F4
:1057A0000A4601EBD1704010A1EB40000123A3EBAE
:1057B0004000704770B5002421E0F64850F82400FE
:1057C000012801DA012000E00020C5B2C5F1010086
:1057D000C2B2F14810F8141001200DF077FE6420D9
:1057E0000FF0AEF9EC4800EB440041782A46012066
:1057F0000DF095FE64200FF0A3F9601CC4B2042CD8
:10580000DBDB0122122110460DF089FE64200FF02F
:1058100097F90022262101200DF058FE64200FF098
:105820008FF90122132110460DF079FE64200FF04C
:1058300087F970BD10B50221002004F027F902217C
:10584000012004F023F90221084604F01FF9022187
:10585000032004F01BF910BD10B5002229210720F8
:105860000DF034FE64200FF06BF9002208211020A7
:105870000DF02CFE64200FF063F900220C211020A3
:105880000DF024FE64200FF05BF900220D211020A2
:105890000DF01CFE64200FF053F900220F210120AF
:1058A0000DF03DFE64200FF04BF910BD70B50446BD
:1058B0000D46C5F10100C2B2B74810F8141001201E
:1058C0000DF004FE64200FF03BF9B34800EB4400F8
:1058D00041782A4601200DF022FE64200FF030F9B5
:1058E00070BDAE48007840B9AD480078022804D1B8
:1058F000AC48007808B900207047AA480078012811
:105900000FD0A848407801280BD0A64880780128FD
:1059100007D0A448C078012803D0A2480079012804
:1059200001D10120E8E70020E6E710B59E480078A5
:10593000C8B101210846FFF7B9FF00210846FFF76B
:10594000B5FF00210220FFF7B1FF00210320FFF780
:10595000ADFF00210420FFF7A9FF01208D49086059
:105960000020486048E000210120FFF79FFF8F489A
:105970000078002813DD00210846FFF797FF00217B
:105980000220FFF793FF01210320FFF78FFF012182
:105990000420FFF78BFF01207E49086029E084483E
:1059A000007838B100210846FFF780FF01207949CF
:1059B00008601EE0FFF795FF044621460020FFF730
:1059C00075FFC4F101007349086001210320FFF74E
:1059D0006DFF01210420FFF769FF7648007920B9A7
:1059E00001210220FFF762FF03E000210220FFF700
:1059F0005DFF01206749486010BD10B50446012CC9
:105A00004FD1002221210DF061FD64200FF098F8A4
:105A100001220F2110460DF082FD64200FF090F856
:105A20000122222110460DF051FD64200FF088F86C
:105A300000220E2101200DF072FD64200FF080F88D
:105A40000122232110460DF041FD64200FF078F86B
:105A50000022102101200DF062FD64200FF070F88B
:105A60000122252110460DF031FD64200FF068F869
:105A70000022112101200DF052FD64200FF060F88A
:105A80000122262110460DF021FD64200FF058F868
:105A90000022132101200DF042FD64200FF050F888
:105AA0004DE1F4BB0122212110460DF00FFD6420D1
:105AB0000FF046F800220F2101200DF030FD642088
:105AC0000FF03EF80022222101200DF0FFFC64209F
:105AD0000FF036F801220E2110460DF020FD642053
