:020000040800F2
:10000000D028002001010008594A01085B4A010874
:100010005F4A0108634A0108674A010800000000BE
:100020000000000000000000000000006B4A010812
:100030006D4A0108000000006F4A0108DF4A01080C
:100040001B0100081B0100081B0100081B01000820
:100050001B0100081B0100081B0100081B01000810
:100060001B0100081B0100081B0100081B01000800
:100070001B0100081B0100081B0100081B010008F0
:100080001B0100081B0100081B0100081B010008E0
:100090001B0100081B0100081B0100081B010008D0
:1000A0001B0100081B0100081B0100081B010008C0
:1000B0001B010008B74A01081B0100081B010008CA
:1000C0001B0100081B0100081B0100081B010008A0
:1000D0001B010008714A0108974A01081B0100082A
:1000E0001B0100081B0100081B010008DFF80CD0F1
:1000F00016F0A8FF0048004759010008D02800204A
:100100000648804706480047FEE7FEE7FEE7FEE7B1
:10011000FEE7FEE7FEE7FEE7FEE7FEE73D23010818
:10012000ED00000810B50446012C03D102209649C9
:10013000087010BD9448007860B193480078401E64
:10014000914908700846007820B990A20921012041
:1001500013F017FA00BFECE70025002600BF0024CB
:1001600000BF00BF00BF00BF14F008FD14F0D7FCB3
:100170004FF4165014F030FF4FF4165014F07FFF78
:1001800014F068FF14F0BAFF40F2DF11632014F09E
:10019000CAFF14F026FD14F037FD14F0B1FD0DF088
:1001A0004FFD15F0D1F812F049F97D2010F0F5FD62
:1001B00040B177A017F08EF901217BA005F0BAF9C4
:1001C00010F04CFF40F6C41106200FF011FC4FF464
:1001D000967014F095FC10F086FD14F08CFE14F06F
:1001E000DBFE14F009FE15F071F801207649087065
:1001F0000020764908707649087003F0BDFD04F0D0
:100200004FF8BFE04FF48071724812F05DF9044678
:10021000002C08DD6F484078072804D021466D483F
:1002200008F062FE19E0002C17DD6A4840780728C4
:1002300013D171B600BF6848006800F4E0606749F8
:1002400040EA010000F104004FF0E021C1F80C0D7C
:10025000BFF3408F00BF00BFFEE761480078012870
:100260000FD100205E49087005F0F6FA002108461B
:100270000EF061FA5BA21521012013F082F900F063
:100280008FFA51480078F0B357480068401B0A289D
:1002900078D35548056808F087FF54480088401C0B
:1002A0005249088009F072F95148016851480068C4
:1002B00016F020FD01D00BF05FF84F48007808B130
:1002C0000CF0BDF90CF026FA47480068801B642842
:1002D00058D30020454908804348066847480078BD
:1002E000012801D104F0BEFD08F0EEFF03F09CFFF1
:1002F00003F0BFFF08F0C7FF4148007830B141A0CC
:1003000017F0E8F800E03DE00CF05FFD0CF044FB76
:1003100046480078002805DD44480078401E4349DF
:10032000087007E00120414908704148007808B191
:100330000FF01DFB3F48007800280EDD3D48007897
:10034000401E3C4908700846007830B9012008700A
:100350002948007808B90CF072F90020FFF7E2FE96
:1003600000F06CF814F0BEFA3348007820B1002099
:100370003149087004F0E1F904F031FA15F08EFE0D
:1003800010F0B1FC3EE70000170000200000000064
:100390002F2A20B6C0C1A2BFB4C3C5B9B7B8B4CE66
:1003A000BB202A2F0A0000004957444720524553DA
:1003B00045542E2E2E2E2E2E2E2E2E2E2E2E2E2E20
:1003C0002E2E2E2E2E2E0000140000208100002044
:1003D000220A0020AC0B00200CED00E00000FA0522
:1003E000150000202D2D0000080000201000002026
:1003F000DC09002054070020020000202700002014
:100400000D0000205461726765744C6F636B436F1D
:100410006E6669726D65642C2046435F5265747226
:100420006561746F7228293B0A00000012000020E9
:100430000C000020130000209500002003480068F5
:10044000C0F101000249C1F8AC017047AC01214282
:1004500000002142024600200BE012F0800F02D083
:1004600001230B5401E000230B5453061A0E431CC6
:10047000D8B20828F1DB7047002005E0FF49095C8D
:10048000FF4A1154411CC8B20628F7DB704730B54B
:1004900097B0002515220CA9FA4814F093FE9DF898
:1004A000590023280AD0F8A20921012013F069F885
:1004B000F5A205210B2013F064F82BE00CA815F031
:1004C0000DFE401EC4B20FE00CA8025D2146EFA055
:1004D00017F000F80CA8005D232804D1681CC5B2F1
:1004E000601EC4B200E001E0002CEDDC00BF01AAF8
:1004F000ECA10CA815F012FE01A9EC4815F004FEC1
:1005000001AA05210B2013F03CF801AA09210120C2
:1005100013F037F817B030BDF0B589B005460026A6
:10052000002406E004F16800285C05A90855601C59
:10053000C4B20E2CF6DB9DF8210023280FD0D2A2E6
:100540001A21012013F01DF8CFA202210B2013F075
:1005500018F8CDA23621012013F013F844E005A8C5
:1005600015F0BCFD401EC4B22146D1A016F0B2FF6A
:1005700013E005A8025D2146C4A016F0ABFF05A854
:10058000005D232808D1701CC6B2601EC4B221468B
:10059000C7A016F09FFF00E001E0002CE9DC00BFDF
:1005A00001AAC0A105A815F0B9FD01A815F096FD96
:1005B00007460146C0A016F08DFF01A9C2A016F0A3
:1005C00089FF01A9C44815F09FFD01AA02210B2053
:1005D00012F0D7FFC1A21A21012012F0D2FF01AA06
:1005E0003621012012F0CDFF09B0F0BD01781529A8
:1005F00015DC0178142912DB417863290FDC81783E
:100600000C290CDC817851B1C1781F2907DCC17835
:1006100029B10179012902DC417901290ADD14217E
:100620000170322141700C2181701F21C1700021A5
:100630000171417170477FB50546002406E004F161
:100640007600285C02A90855601CC4B2062CF6DBB3
:1006500002A8FFF7CBFF9DF809009DF8081001EBF9
:10066000C10202EB011100EB81009F4908809DF857
:100670000A0088709DF80B00C8709DF80C00087186
:100680009DF80D0048719DF809009DF8081001EBD8
:10069000C10303EB011100EB810294A1684616F03F
:1006A00029FF6A460321202012F06BFF9DF80A20E3
:1006B0008EA1684616F01EFF6A460421202012F023
:1006C00060FF9DF80B2089A1684616F013FF6A466B
:1006D0000521202012F055FF9DF80C20012120203B
:1006E00012F026FF05F021F99DF80D2002212020AF
:1006F00012F01EFF7FBD08B50146002006E000F1A4
:100700007C028A5C0DF80020421CD0B20228F6DB85
:100710009DF80020012A02DD00228DF800209DF8BE
:100720000120012A02DD00228DF801209DF8002021
:100730006F4B1A709DF801206E4B1A7008BD38B5CA
:100740000546002406E004F17E00285C0DF8040054
:10075000601CC4B2022CF6DB9DF8000066490870EC
:100760009DF801006549087063480078012802DDA2
:10077000012061490870614800783C2802DC5F482C
:10078000007810B91E205D4908705B4801785CA0B4
:1007900016F0A0FE594801785FA016F09BFE38BD08
:1007A00030B587B0012205A9604814F00BFD9DF813
:1007B0001400092803DC9DF815000A2804DD002038
:1007C0005B490870487006E09DF8140058490870AD
:1007D0009DF8150048705648407840B955A016F06D
:1007E00079FE002052490870487007B030BD0024DF
:1007F00029E04F48007820440A2190FBF1F201FBE8
:1008000012004A49891C082202FB0015042205A98E
:10081000284614F0D7FC05A80EF000FD9DF81A300C
:100820009DF819209DF818109DF817008DE80F000D
:100830009DF816309DF815209DF8141040A016F074
:1008400049FE601CC4B23A484078A042D1DC00BFE7
:10085000CBE72DE9FC4105460E4635480078344982
:10086000497808440A2190FBF1F201FB12002F495C
:10087000891C082202FB00172D4877E0810900201F
:1008800075090020521307082000000028726561D6
:10089000645F627566665B25645D203D2025630AA2
:1008A00000000000255B5E235D000000D20C0020EC
:1008B00069203D2025640A006C656E677468203DE0
:1008C0002025640A0A000000257340404040404053
:1008D0004040404040404000C40C0020B7FECEF1F4
:1008E000C8C8CFDF000000005000002025640000D1
:1008F000AB070020AC070020D008002059080020DA
:10090000424C5F436F6E74726F6C5F456E61626CD8
:1009100065203D2025640A00424C5F4F6E5F54699C
:100920006D65203D2025640A00000000BA1007080C
:100930007A0000204E6F206572726F72210A0000EB
:100940003230253032642D253032642D253032642A
:1009500020253032643A253032643A253032642D15
:100960002D2DB9CAD5CF25640A00000040780A2889
:1009700009D1FF480078401C0A2190FBF1F201FBED
:100980001200FB490870FA4840780A2804DAF8484F
:100990004078401CF6494870F54800788DF8000012
:1009A000F34840788DF8010001226946F14814F0BF
:1009B0001AFC002404E0285D0DF80400601CC4B299
:1009C000062CF8DB8DF8066000208DF80700042265
:1009D0006946384614F007FCBDE8FC8108B5E648D6
:1009E00000788DF8000001226946E44814F0FBFB12
:1009F00008BD38B504468DF8004001226946DF483D
:100A0000801C14F0F0FB38BD38B504468DF800406A
:100A100001226946D948083014F0E5FB01226946F5
:100A2000D6480A3014F0DFFB38BD38B504468DF8DF
:100A3000004001226946D1480C3014F0D4FB38BD87
:100A400038B504468DF8004001226946CB480E3087
:100A500014F0C9FB38BD38B504468DF800400122BA
:100A60006946C648603814F0BEFB38BD38B5044648
:100A7000C349204615F084FE054616F0A8F8C0B21A
:100A80008DF8000001226946BC48801E14F0ABFBC3
:100A90009DF80020B949891EBAA016F01BFD38BD8B
:100AA00038B50446C149204615F06AFE054616F0E1
:100AB0008EF8C0B28DF8000001226946AF481030B0
:100AC00014F091FB38BD10B5B9480068FFF7E8FF96
:100AD00010BD38B504468DF8004000208DF80100A7
:100AE00001226946A548801D14F07DFB38BD38B54C
:100AF0000446AE49204615F043FE054616F067F859
:100B0000000A8DF80000A949204615F039FE054677
:100B100016F05DF8C0B28DF80100012269469748D1
:100B2000123014F060FB38BD38B504468DF8004033
:100B300000208DF80100012269469048001D14F044
:100B400052FB38BD08B5012269468C48603814F064
:100B500039FB9DF80000B42803DD1E20954908707C
:100B600003E09DF80000934908709248017892A034
:100B700016F0B0FC08BD2DE9F04F8BB0092205A995
:100B80007E485E3814F01EFB642013F0B9FF9DF818
:100B90002400002801DD012000E000208D490870BC
:100BA000084601788CA016F095FC9DF8150016F00B
:100BB00001F8804600228E4B15F06EFF04460D466C
:100BC0009DF8140015F0F6FF824622462B4615F0DC
:100BD0004DFECDE9000116F071F80746384616F0D3
:100BE0002EF804460022824B16F040F801D88148C6
:100BF00007609DF816100122A2EB41019DF8172015
:100C000001FB02F015F0C5FF044600227A4B15F0F7
:100C100043FF804616F052F806463146304615F03E
:100C2000AFFD804616F00BF804460022704B16F01C
:100C30001DF801D871480660704800687049C860A6
:100C40009DF8190015F0B6FF80460022684B15F09C
:100C500023FF04460D469DF8180015F0ABFF8246B1
:100C600022462B4615F002FECDE9000116F026F8CB
:100C7000644908600846006815F0E1FF0446002258
:100C8000614B16F007F809D35E48006815F0D7FFEE
:100C9000044600225D4B15F0E9FF02D25C48594939
:100CA00008605449086815F0CAFF044602460B461E
:100CB00058A102A816F01EFC02AA0221262012F05A
:100CC00060FC5048006815F0BAFF044602460B4627
:100CD00050A102A816F00EFC02AA0421262012F050
:100CE00050FC4649086815F0AAFF044602460B4628
:100CF00048A102A816F0FEFB02AA0321262012F04A
:100D000040FC3C49086815F09AFF044602460B4631
:100D100040A102A816F0EEFB02AA0221262012F042
:100D200030FC2C4802781A21262012F001FC0BB06E
:100D3000BDE8F08FF0B585B000262E4951F82600A9
:100D400015F07DFF044602460B46314633A016F0EF
:100D5000C1FB2A4951F8260015F071FF04460246EE
:100D60000B46314633A016F0B5FB22496CE000007B
:100D70007A000020BA1007089A0B00208013070899
:100D80000000C84253544D33325F464C4153485FD4
:100D900057726974652061206279746520746F20D0
:100DA000202578203A202025640A000000002041F8
:100DB0004C090020400700205461726765744C6F35
:100DC000636B657254696D696E67203D2025640A06
:100DD000000000007D00002054656D704D6F6E694D
:100DE000746F72456E61626C653D2025640A000077
:100DF000000059403000002000002440AC0C0020CE
:100E00005C0D00204800002000C0624000003E4011
:100E100000008242252E31660000000074656D706E
:100E20005F6C696D69745B25645D203D2025660AF1
:100E30000000000074656D705F626961735B25641A
:100E40005D203D2025660A0051F8260015F0BFFE02
:100E5000C0B20DF826001DF8260015F095FE0746D5
:100E6000FF4850F82610384615F087FC0546FD4926
:100E700015F086FC044615F0AAFEC0B2012101EB74
:100E800086010DF80100F84951F82600002115F0FF
:100E900031FF01D2012000E00020C0B2022101EBAD
:100EA00086010DF80100F04951F82600002115F0E7
:100EB00021FF0CD2EC4850F8260080F00045EB49A9
:100EC000284615F05DFC044615F081FE08E0E64971
:100ED00051F82600E54915F053FC044615F077FE5D
:100EE000C0B2032101EB86010DF801001DF8262098
:100EF000B100DFA016F0EEFA012000EB86001DF82D
:100F00000020012000EB8601D9A016F0E3FA0220B0
:100F100000EB86001DF80020022000EB8601D4A023
:100F200016F0D8FA032000EB86001DF800200320FD
:100F300000EB8601D2A016F0CDFAD548006815F076
:100F400046FEC0B28DF804009DF8040015F01CFEAA
:100F50000746CF480168384615F00FFC0546C149E1
:100F600015F00EFC044615F032FEC0B28DF80500F7
:100F7000C84800788DF8100009226946C64814F068
:100F800032F905B0F0BD10B5002409E0C348B449FA
:100F900041F824000020B44941F82400601CC4B288
:100FA000042CF3DBBE48BA4908600020B949087038
:100FB000FFF7C0FE10BD08B5BAA00068009001227E
:100FC0006946B5485A3014F00EF908BD2DE9FC5FAA
:100FD00006468846A8F10A0017287DD2DFE800F00F
:100FE000FDFC7C7C7CFB0C3BBFFAF9F8F7F67CF54A
:100FF000F4F37C7C7C7CF2003078AB49087070782C
:10100000AA490870F078AA490870F078401CA949EC
:1010100008703079A849087070794870B079887084
:10102000F179A64816F056FAF079072801DD032079
:10103000F071F07900F001009F49C870F079C0F3B9
:1010400040000871F079C0F380004871FFF714FA8E
:1010500004F06BFCE2E2307A99490870B27A717A56
:1010600002EB012015F087FD834615F0E8FD0446EC
:101070000022944B15F010FD814615F01FFE924999
:1010800008600846006815F0DAFD044602460B4683
:101090008EA016F01FFAF07A10F0800F20D0327B6D
:1010A000F17A01F07F0102EB012015F064FD834627
:1010B00015F0C5FD81460022824B15F0EDFC04467B
:1010C0000022134615F074FCCDE9000115F0F6FD81
:1010D0008549086085A000E09FE216F0FBF912E068
:1010E000327BF17A02EB012015F053FD814600229C
:1010F000744B15F0D1FC044615F0E0FD7A49086008
:1011000081A016F0E7F900217748006803F0DCFBC6
:10111000707B84490870B07B15F04CFD814600223D
:10112000684B15F0B9FC044615F0C8FD7E4908600F
:10113000F07B7E490870727C317C02EB012015F057
:101140001AFD834615F07BFD814600225D4B15F0AC
:10115000A3FC044615F0B2FD754908605EE275A077
:1011600016F0B8F9B07C7F490870327DF17C02EB53
:10117000012015F000FD834615F061FD04460022B4
:10118000504B15F089FC814615F098FD76490860B2
:10119000707D10F0800F2BD0B27D717D01F07F014A
:1011A00002EB012015F0E7FC834615F048FD81466F
:1011B0000022444B15F070FC04460022134615F043
:1011C000F7FB0BE01DE2D0E134E1F8E0DAE1BFE14A
:1011D0006EE149E13BE118E20DE21AE2CDE90001DE
:1011E00015F06CFD6149086061A016F073F912E01A
:1011F000B27D717D02EB012015F0CBFC044600228C
:10120000304B15F049FC814615F058FD57490860F0
:101210005EA016F05FF901215448006803F054FB0A
:10122000F07D15F0C7FC81460022264B15F034FCFA
:10123000044615F043FD5C490860717E307E01EB89
:1012400000205A490880B07E15F0B4FC8146002287
:101250001C4B15F021FC044615F030FD5449A9E063
:10126000300000200000C842AC0C002000002041EB
:10127000627566665B25645D203D2025642C000058
:10128000627566665B25645D203D2025640A0A0060
:10129000480000207D000020221307080000B4420F
:1012A00000008242002800006E080020EF080020A5
:1012B000F008002050090020810900204C8C010812
:1012C000F108002000005940F40800204F75746CAC
:1012D00065745F53656E736F725F52616E676520F0
:1012E0003D2025660A000000F80800204F75746C48
:1012F00065745F50726573737572655F426961737F
:10130000203C20300A0000004F75746C65745F50FB
:10131000726573737572655F42696173203E203038
:101320000A000000FC080020000900200409002039
:1013300008090020737461727420766172696162B9
:101340006C65735F757064617465205343524545E5
:101350004E5F454E5452414E43455F53454E534FA9
:10136000520A00000C090020100900201409002076
:10137000456E7472616E63655F50726573737572EA
:10138000655F42696173203C20300A00456E7472CB
:10139000616E63655F50726573737572655F4269F4
:1013A0006173203E20300A00180900201C0900202B
:1013B000200900200860F8A016F08CF82EE1002724
:1013C00006E007F11C00305CFF49C855781CC7B225
:1013D0000C2FF6DBFC48007910F0800F0DD0FA4896
:1013E0004179007900F07F0001EB00204042F7498D
:1013F0000860F7A016F06EF809E0F348417900792B
:1014000001EB0020F1490860F5A016F063F8EF4801
:10141000006815F0B0FB0446022103F055FAEB48D2
:101420000168F3A016F056F8E7480178F4A016F02A
:1014300051F8F3E0012707E007F12700315C781E3F
:10144000F64A1154781CC7B2042FF5DDE6E00127F7
:1014500007E007F12B00315C781EF14A1154781C2B
:10146000C7B2102FF5DDD9E0012707E007F13B00F7
:10147000315C781EEB4A1154781CC7B2092FF5DD98
:10148000E8490878C11700EB11710911E64A11709B
:1014900010460178E5A016F01DF8E2490878C1175A
:1014A00000EB11710911A0EB0111DE4A1170B5E0DA
:1014B000012707E007F14500315C781EE24A11542C
:1014C000781CC7B20C2FF5DDDF48407A10F0800F92
:1014D0001FD0DD498A7A497A01F07F0102EB0120B1
:1014E00015F049FB834615F0AAFB04460022D74BB2
:1014F00015F0D2FA81460022134615F059FACDE9CB
:10150000000115F0DBFBD2490860D2A015F0E2FF24
:1015100013E0CD498A7A497A02EB012015F039FBB4
:1015200081460022C94B15F0B7FA044615F0C6FBF8
:10153000C7490860CCA015F0CDFFC348007A022847
:1015400001DD002001E0C048007ABF49087265E073
:10155000012707E007F15100315C781EC74A11549A
:10156000781CC7B2082FF5DD58E0012707E007F126
:101570005900315C781EC24A1154781CC7B2052F3D
:10158000F5DD4BE0012707E007F15F00315C781ED5
:10159000BC4A1154781CC7B2082FF5DDB948007851
:1015A0000A2190FBF1F0B8490870B64800780A218A
:1015B00090FBF1F201FB1200B2490870B2480178C9
:1015C000B2A015F087FFAF48C178807801EB00200A
:1015D000B4490880AB484179007901EB0020B24959
:1015E0000880A848C179807901EB0020AF490880C4
:1015F000FFF7A8FA12E0FEF74AFF3046FEF78CFF2D
:101600000CE03046FFF717F808E03046FFF773F8B4
:1016100004E03046FFF793F800E000BF00BFBDE8EC
:10162000FC9F1CB5A248027801210A2011F080FF1E
:10163000A0480278AFF64C51684615F05BFF6A4649
:1016400002210A2011F09DFF9A480078C0EB00109B
:101650008004030C0022FF219548007811F0E8FA7D
:101660001CBD1CB594A015F035FF9E480278AFF65E
:101670008451684615F03EFF6A460B21102011F098
:1016800080FF9948007868BB00220721012011F0F3
:10169000FDFE01221146102011F04AFF0022022116
:1016A000102011F045FF00220321102011F040FF0F
:1016B00000222421012011F0E9FE00220B2101204B
:1016C00011F0E4FE01223721104611F0DFFE002266
:1016D0002121022011F0DAFE00222221022011F045
:1016E000D5FE44E08048007801282DD10122072151
:1016F000104611F0CBFE00220121102011F018FF3E
:1017000001220221102011F013FF002203211020DA
:1017100011F00EFF01222421104611F0B7FE012224
:101720000B21104611F0B2FE00223721012011F0EA
:10173000ADFE01222121022011F0A8FE012222216A
:10174000022011F0A3FE12E06748007802280ED1B3
:1017500000220121102011F0EBFE002202211020B6
:1017600011F0E6FE01220321102011F0E1FE6420B9
:1017700013F0C6F90024C9E05C48025D211D102069
:1017800011F0D6FE5948005DC0F10100C2B204F16B
:1017900028010120ACE00000456E6420766172698A
:1017A00061626C65735F7570646174652053435248
:1017B00045454E5F454E5452414E43455F53454E5D
:1017C000534F520A000000009C0D0020C408002066
:1017D000574C5F42696173203C20300A00000000D2
:1017E000574C5F42696173203E20300A00000000C0
:1017F000574C5F42696173203D2025640A00000058
:10180000456E7472616E63655F73656E736F72307F
:101810005B305D203D20253032780A00240900200D
:10182000A80D0020B80D00205E000020536C6565F7
:1018300070696E67456E61626C654D6F6465203DD1
:101840002025640A00000000C10D00200000244093
:10185000C80800204663467265714F75744269611D
:1018600073203C20300A00004663467265714F7554
:101870007442696173203E20300A0000280900206C
:101880003009002036090020E80900205265616413
:101890002050756D70506F696E746572203D202503
:1018A000640A0000D0090020D2090020D4090020D9
:1018B000D00800205908002020636F6E74726F6C8E
:1018C000735F7570646174655F53435245454E5F45
:1018D00050554D505F47524F5550494E4728290AA1
:1018E00000000000EF0800206E08002081090020A1
:1018F00011F0CCFDFF48005DC0F10100C2B204F15F
:101900007801012011F0C2FD601CC4B2032CFFF667
:1019100033AFF848C2780321102011F009FEF548D2
:10192000C078C0F10100C2B2F348017F012011F07C
:10193000ADFDF048C078C0F10100C2B2EE48417F71
:10194000012011F0A3FDEB4802790E21102011F0C7
:10195000EFFDE8480079C0F10100C2B2E64890F816
:101960002410012011F092FDE2480079C0F101003D
:10197000C2B2E14890F82510012011F087FDDD4842
:1019800042790721102011F0D3FDDA484079C0F1E7
:101990000100C2B2D84890F82C10012011F076FD59
:1019A000D4484079C0F10100C2B2D34890F82D105C
:1019B000012011F06BFDD14802780921102011F0AF
:1019C000B7FD1CBD7CB5CEA015F084FDD7480068DE
:1019D00015F035F9044602460B46D5A1684615F0C8
:1019E00089FD6A460521112011F0CBFDD24800681F
:1019F00015F025F9044602460B46D0A015F06AFD05
:101A0000CD48006815F01BF9044602460B46C8A1F4
:101A1000684615F06FFD6A4602212A2011F0B1FDDB
:101A2000CE48006815F00BF9044602460B46C0A1EB
:101A3000684615F05FFD6A4603212A2011F0A1FDDA
:101A4000C748006815F0FBF8044602460B46B8A1EB
:101A5000684615F04FFD6A460721112011F091FDEF
:101A6000C048006815F0EBF8044602460B46B0A1EA
:101A7000684615F03FFD6A460821112011F081FDEE
:101A8000B948007801280AD101221146112011F02D
:101A90004FFD00220221112011F04AFD0DE0B24855
:101AA0000078022809D100220121112011F040FD07
:101AB00001220221112011F03BFDAC4802780321E4
:101AC000112011F035FDAA4802780421112011F0EF
:101AD0002FFD7CBD7CB5A748006815F0B0F8044622
:101AE00002460B4692A1684615F004FD6A460521A0
:101AF000122011F046FDA048006815F0A0F8044639
:101B000002460B468AA1684615F0F4FC6A4602219B
:101B10002B2011F036FD9948006815F090F8044626
:101B200002460B4682A1684615F0E4FC6A46032192
:101B30002B2011F026FD9248006815F080F804462D
:101B400002460B467AA1684615F0D4FC6A46072186
:101B5000122011F016FD8B4802888BA1684615F003
:101B6000C9FC6A460821122011F00BFD8748006865
:101B700015F065F8044602460B466DA1684615F05F
:101B8000B9FC6A460921122011F0FBFC804800785C
:101B900070B901221146122011F0CAFC0022022164
:101BA000122011F0C5FC00220321122011F0C0FC0C
:101BB0007748007801280ED100220121122011F06F
:101BC000B7FC01220221122011F0B2FC00220321F5
:101BD000122011F0ADFC6E480078022818D10022C6
:101BE0000121122011F0A4FC00220221122011F088
:101BF0009FFC01220321122011F09AFC65A21421FE
:101C0000012011F0BEFC63A22021022011F0B9FCDA
:101C10007CBD7CB504242FE0052C06D15E485AA17A
:101C20000268684615F066FC1FE0042C0BD15B4887
:101C3000C178807801EB002086B2324652A1684616
:101C400015F058FC11E00520C0EB44005349095C35
:101C50000620C0EB4400514A105C01EB002086B224
:101C6000324649A1684615F045FC6A4621461920CE
:101C700011F087FC601CC4B2082CCDDD4748007809
:101C800000F00F020121192011F052FC43480078A6
:101C90000511022D00DD0025A5B901220A21192018
:101CA00011F046FC00220B21192011F041FC00220A
:101CB0000C21192011F03CFC39A20A21012011F05D
:101CC00060FC8BE0012D73D100220A21192011F054
:101CD0002FFC01220B21192011F02AFC00220C21DB
:101CE000192011F025FC30A20A21012011F049FC35
:101CF00074E05DE081090020C88D0108F008002033
:101D000020636F6E74726F6C735F7570646174655D
:101D10005F53435245454E5F4F55544C45545F53B6
:101D2000454E534F5228290A00000000F4080020B5
:101D3000252E326600000000F80800204F75746CF4
:101D400065745F50726573737572655F4269617324
:101D5000203D2025302E32660A0000007000002051
:101D60000009002008090020F1080020FC080020DC
:101D7000040900201009002014090020740000202C
:101D8000180900201C0900202564000020090020FB
:101D90000C0900202D2D0000C40800209C0D0020FF
:101DA000286D6D290000000028636D2900000000E7
:101DB000022D13D100220A21192011F0B9FB0022B3
:101DC0000B21192011F0B4FB01220C21192011F074
:101DD000AFFBFFA20A21012011F0D3FBFD480078E0
:101DE00000F00F00012823D101221146192011F023
:101DF0009FFB00220221192011F09AFB00220321EF
:101E0000192011F095FBAFF274021421012011F09A
:101E1000B8FBAFF280022021022011F0B2FB432276
:101E20003721012011F062FCEBA015F053FB1CE000
:101E300000220121192011F07BFBE648407850B9BF
:101E400001220221192011F073FB00220321192025
:101E500011F06EFB09E000220221192011F068FB4D
:101E600001220321192011F063FB7CBD2DE9FC4107
:101E7000E5498A78497802EB012014F08AFE06468B
:101E80000022E24B14F008FE044614F017FF8046CF
:101E9000404614F0D4FE044602460B46AFF27011E1
:101EA000684615F027FB6A4603211A2011F069FBEA
:101EB000D549C87814F07EFE04460022D34B14F0B6
:101EC000EBFD064614F0FAFE8046404614F0B7FEDD
:101ED000044602460B46AFF2A811684615F00AFB0D
:101EE0006A4604211A2011F04CFBC748007850B90B
:101EF000012211461A2011F01BFB002202211A2098
:101F000011F016FB09E0002201211A2011F010FB4C
:101F1000012202211A2011F00BFBBDE8FC812DE902
:101F2000FC47012655E0012E09D0022E07D0042ED1
:101F300005D0072E03D0082E01D0092E15D1B448A4
:101F400050F82600401CB349095CB14850F82600FF
:101F5000B04A105C01EB00201FFA80FA5246AFF243
:101F6000D811684615F0C6FA2CE0032E03D0052ED2
:101F700001D0062E0CD1A64850F82600A54911F82C
:101F800000A05246AFF20021684615F0B3FA19E0FE
:101F90000A2E17D19F49C87B14F00CFE044600227C
:101FA0009A4B14F079FD804614F088FE07463846B7
:101FB00014F045FE044602460B46AFF28C216846FB
:101FC00015F098FA6A463146132011F0DAFA701CBF
:101FD000C6B20A2EA7DD90480278AFF254216846B7
:101FE00015F088FA6A460C21132011F0CAFA8B48C2
:101FF000006814F024FE044602460B46AFF2D021DE
:10200000684615F077FA6A460521122011F0B9FAF0
:102010008348006814F013FE044602460B46AFF2F4
:10202000F021684615F066FA6A460621122011F082
:10203000A8FA7C48006814F002FE044602460B46EB
:10204000AFF21431684615F055FA6A46072112209E
:1020500011F097FA74480288AFF2D421684615F05F
:1020600049FA6A460821122011F08BFA6F4800687D
:1020700014F0E5FD044602460B46AFF24C316846CB
:1020800015F038FA6A460921122011F07AFA6848E8
:10209000006814F0D4FD044602460B4665496846C4
:1020A00015F028FA6A460D21132011F06AFA6248E9
:1020B000007870B901221146122011F039FA00227D
:1020C0000221122011F034FA00220321122011F013
:1020D0002FFA5948007801280ED100220121122040
:1020E00011F026FA01220221122011F021FA002219
:1020F0000321122011F01CFA4F48007802280ED15B
:1021000000220121122011F013FA002202211220D4
:1021100011F00EFA01220321122011F009FABDE894
:10212000FC872DE9FC474FF001088DE0B8F1010F65
:1021300002D0B8F1040F15D1404850F82800401CD7
:102140003F49095C3D4850F828003D4A105C01EBCE
:1021500000201FFA80FA5246AFF2D431684615F0DB
:10216000C9F92DE0B8F1030F02D0B8F1060F1BD169
:10217000324951F82810324A505C14F01BFD0446D5
:102180000022224B14F088FC064614F097FD81468D
:10219000484614F054FD044602460B46AFF2704127
:1021A000684615F0A7F90BE0244850F828002449A8
:1021B00011F800A05246AFF23041684615F09AF986
:1021C0006A464146142011F0DCF908F1010039E0BB
:1021D000286D29009C0D002053657450726F677242
:1021E00065737356616C75652853435245454E5F60
:1021F0004D41494E5F312C2035352C203130302077
:102200002F2032293B0A00002409002000005940F9
:1022100078080020A80D00205D0000201009002093
:1022200014090020180900201C09002020090020A2
:10223000C8090020140E00080C090020A008002086
:10224000B80D002000F0FF08B8F1070F7FF76EAF60
:10225000FF48007820B1012812D0022830D11FE0B9
:1022600001220921142011F063F900220A2114200F
:1022700011F05EF900220B21142011F059F920E031
:1022800000220921142011F053F901220A211420FF
:1022900011F04EF900220B21142011F049F910E041
:1022A00000220921142011F043F900220A211420F0
:1022B00011F03EF901220B21142011F039F900E050
:1022C00000BF00BFBDE8FC872DE9FC41012609E005
:1022D000701EE0490F5C3A463146152011F028F98E
:1022E000701CC6B2072EF3DDDA48C079C0F3800255
:1022F0000821152011F01CF9D648C079C0F340021E
:102300000921152011F014F9D248C07900F001021A
:102310000A21152011F00CF9CF4802781021152060
:1023200011F006F9CC4802780F21102011F0AEF818
:10233000C9480078C0F10100C2B20921102011F093
:10234000CEF8C64802780F21152011F0F1F8C448E4
:10235000006814F074FC044602460B46C149684606
:1023600015F0C8F86A460A21152011F00AF9B94893
:10237000C17A007A01EB00201FFA80F84246AFF2E2
:10238000F851684615F0B6F86A460B21152011F091
:10239000F8F8BDE8FC812DE9FC5F01264AE0032E38
:1023A00001D0042E19D10320C0EB4600AE49095CD0
:1023B0000420C0EB4600AC4A105C01EB00201FFA81
:1023C00080F84246AFF24061684615F093F86A46DD
:1023D0003146162011F0D5F82AE0052E01D0062E40
:1023E0001ED1A14A711C505C14F0E4FB044600228B
:1023F0009E4B14F051FB824614F060FC8146484627
:1024000014F01DFC044602460B46AFF2DC61684640
:1024100015F070F86A463146162011F0B2F807E060
:10242000701E91490F5C3A463146162011F080F833
:10243000701CC6B2062EB2DDBDE8FC9F2DE9FC473C
:10244000012632E0012E01D0052E1ED1711E884AD0
:10245000505C14F0AFFB04460022844B14F01CFBCC
:10246000814614F02BFC8046404614F0E8FB0446FD
:1024700002460B46AFF24871684615F03BF86A46D3
:1024800031461B2011F07DF80DE0701E78490F5C7D
:102490003A46AFF20C71684615F02CF86A463146A0
:1024A0001B2011F06EF8701CC6B2052ECADDBDE807
:1024B000FC872DE9F04786B06E4A07CA01AB07C317
:1024C000012639E0012E06D16B48027831461720EB
:1024D00011F02EF82EE0022E1CD16749487814F036
:1024E00069FB04460022654B14F0D6FA814614F0CD
:1024F000E5FB8046404614F0A2FB044602460B462C
:102500005FA104A814F0F6FF04AA3146172011F0C9
:1025100038F80FE0F01E01A951F8200007883A466C
:10252000AFF29C7104A814F0E5FF04AA314617200D
:1025300011F027F8701CC6B2052EC3DD524807788B
:102540003A46AFF2BC7104A814F0D4FF04AA0721E4
:10255000172011F016F84D48006814F070FB04467F
:1025600002460B463F4904A814F0C4FF04AA082100
:10257000172011F006F806B0BDE8F08710B5044644
:1025800043A014F0A7FFA4F10A0012282ED2DFE81E
:1025900000F02A2D2D2D2D2D090C0F181B1E212783
:1025A0002D121524FFF75DF821E0FFF70BFA1EE06E
:1025B000FFF790FA1BE0FFF72CFB18E0FFF756FC43
:1025C00015E0FFF7ACFC12E0FFF7ABFD0FE0FFF703
:1025D0007BFE0CE0FFF7DFFE09E0FFF72FFF06E0D0
:1025E000FFF767FF03E0FFF71CF800E000BF00BF44
:1025F00010BD2DE9FF5F074697F800A0BAF1070F5D
:1026000072D178783049FDF725FF072011F069FB7A
:1026100001267BE0B01E052190FBF1F000F0FF0BDE
:10262000B01E90FBF1F201FB120000F0FF092748F9
:1026300010F80680B8F1010F61D0B8F10A0F47DB3E
:10264000B8F10F0F44DCB95D404611F05CFB56E079
:102650005E000020C10D0020250000205C0000204D
:10266000C8080020140E0008280900200000594066
:1026700030090020408C0108360900200000244069
:1026800025302E3166000000400700204C09002054
:102690003D3D3D3D3D3D3D3D3D3D3D3D3D3D3D3D6A
:1026A0003D3D3D3D3D3D3D3D3D3D3D3D3D3D7374ED
:1026B0006172743A636F6E74726F6C735F7570647D
:1026C0006174650A0000000084000020E8880108A9
:1026D00009EBD9714910B9EB410106D1BA5DFFA1EF
:1026E00002A814F007FF06E080E0BA5DAFF66811BB
:1026F00002A814F0FFFE02A9404611F07AFBB85D73
:102700004A46594601F0D9FD701CC6B2202E81DB25
:1027100097F8212097F8201002EB012014F039FAE5
:1027200004460022EF4B14F0B7F9CDE9000114F094
:10273000C5FAED4908600846006814F080FA0446BE
:1027400002460B46AFF6182102A814F0D3FE02A9E8
:10275000362011F04EFB00262DE0232101EB46012F
:102760007A5C222101EB4601795C02EB012014F036
:1027700010FA04460022DB4B14F08EF9CDE900017B
:1027800014F09CFAD94941F8260006F1300000F017
:10279000FF0851F8260014F052FA044602460B4690
:1027A000AFF6742102A814F0A5FE02A9404611F06C
:1027B00020FB701CC6B2062ECFDB002609E0F01C01
:1027C00000F0FF08CA48815D404611F09CFA701C79
:1027D000C6B2072EF3DB0120C6490870C648C17A8D
:1027E000007A01EB0020C549088006E051463846D2
:1027F000FEF7ECFB5046FFF7C1FE0120C049087010
:10280000BDE8FF9F08B5BF4800788DF80000BE48BE
:1028100000788DF8010001226946BC4812F0E3FC03
:1028200008BD2DE9F04F85B00646102E33D1B848CB
:1028300000788DF80C00B74800788DF80D00002066
:102840008DF80E00B44800788DF80F00B34800787A
:102850008DF81000B14840788DF81100AF488078AD
:102860008DF81200AD48C078AC49097940EA4100C2
:10287000AA49497940EA8100C0B28DF813009DF859
:102880001310A7A014F026FE042203A99F487E3847
:1028900012F0A9FCD2E3112E75D1A549A548006814
:1028A00013F06EFF824614F092F90446C01704EB51
:1028B0001060C0F307259E499E48006813F060FF32
:1028C000824614F084F90446C01704EB106000122D
:1028D000A4EB0020C7B296499748006813F050FF58
:1028E000824614F074F90446C01704EB1060C0F37C
:1028F000072001908E499048006813F041FF8246FE
:1029000014F065F90446C01704EB10600012A4EB44
:102910000020C0B20090894800788DF808008DF83A
:1029200009508DF80A7000218548006814F0E2F91A
:102930002AD28348006880F0004B7D49584613F046
:102940001FFF824614F043F90446C01704EB1060E1
:1029500000128030C0B28DF80B007948006880F01A
:10296000004B7349584613F00BFF824614F02FF9C1
:102970000446C01704EB10600012A4EB0020C0B2A4
:102980008DF80C0021E050E069496D48006813F0B3
:10299000F7FE824614F01BF90446C01704EB1060E2
:1029A000000A8DF80B0062496548006813F0E8FEE4
:1029B000824614F00CF90446C01704EB10600012B4
:1029C000A4EB0020C0B28DF80C005E4800788DF8B2
:1029D0000D0057495C48006813F0D2FE044614F01D
:1029E000F6F8C0B28DF80E00584800788DF80F0048
:1029F00001988DF8100000988DF81100052202A9A9
:102A00004248763812F0EFFB49495148006813F00C
:102A1000B7FE044614F0DBF8C0B28DF808000122BE
:102A200002A94C4812F0DFFB08E3122E55D14049B1
:102A30004948006813F0A4FE824614F0C8F8044622
:102A4000C01704EB1060C0F30720019038494248DA
:102A5000006813F095FE824614F0B9F80446C017DA
:102A600004EB10600012A4EB0020C5B23B490888BB
:102A7000C11700EB1161C1F3072738490888C11756
:102A800000EB11610912A0EB0121C9B20091344899
:102A900000788DF8080001988DF809008DF80A502B
:102AA00000213048006814F025F972D22D480068E2
:102AB00080F0004B1E49584613F062FE824614F027
:102AC00086F80446C01704EB106000128030C0B2D4
:102AD0008DF80B002348006846E0ACE025303264F6
:102AE00000000000000059408C000020FC0C002079
:102AF0008400002027000020C10D00201E000020BF
:102B00002A000020D0080020590800207E10070865
:102B10006E080020EF080020F00800208109002046
:102B200074656D705B375D203D2025640A000000F0
:102B30000000C842F408002008090020F108002025
:102B4000F8080020FC0800200009002004090020EB
:102B50007000002088130708100900201C090020BD
:102B60000C0900201409002080F0004BFF49584652
:102B700013F006FE824614F02AF80446C01704EB50
:102B800010600012A4EB0020C0B28DF80C0021E010
:102B9000FFE7F649F648006813F0F2FD824614F0AC
:102BA00016F80446C01704EB1060000A8DF80B00FD
:102BB000EE49EF48006813F0E3FD824614F007F891
:102BC0000446C01704EB10600012A4EB0020C0B252
:102BD0008DF80C00E549E748006813F0D1FD044684
:102BE00013F0F5FFC0B28DF80D008DF80E7000984F
:102BF0008DF80F00DD49E048006813F0C1FD044680
:102C000013F0E5FFC0B28DF81000052202A9DB48E1
:102C100012F0E9FAD549DA48006813F0B1FD04462C
:102C200013F0D5FFC0B28DF80800012202A9D548E3
:102C300012F0D9FA02E2192E3AD1D34800680028DE
:102C400014DAD14909684842C11700EB1161091231
:102C50008031CE4A1171CC4909684842C11700EB56
:102C600011610912A0EB0121517110E0C6490868F9
:102C7000C11700EB1161090AC44A1171C249086801
:102C8000C11700EB11610912A0EB01215171002461
:102C900005E0BE48005D02A90855601CC4B20C2CBA
:102CA000F7DB062202A9B5480A3012F09CFAC5E10A
:102CB0001A2E18D11A208DF80C00012406E0601E8F
:102CC000B349085C03A90855601CC4B2042CF6DDA6
:102CD000B04890F8088090F8099003AA4946404609
:102CE00010F00AFBAAE1132E4DD1002705E0AA48F7
:102CF000C05D01A9C855781CC7B2102FF7DB0822A8
:102D000001A99E481A3012F06EFAA44800788DF896
:102D1000040000208DF80500012201A99948001F38
:102D200012F061FA9E499F48006813F029FD04469D
:102D300013F04DFF000A8DF8040099499948006886
:102D400013F01EFD044613F042FFC0B28DF80500DB
:102D50009448006813F073FF044602460B4692A0A5
:102D600014F0B8FB9DF8041096A014F0B3FB9DF886
:102D7000051098A014F0AEFB012201A9814808308B
:102D800012F031FA5AE1142E19D1002405E09548C9
:102D9000005D02A90855601CC4B20A2CF7DB9DF83F
:102DA00008109148007801EB0010C0B28DF80800BF
:102DB000052202A971482A3012F015FA3EE1152EBB
:102DC00070D100218948006813F094FF27D287480A
:102DD000006880F0004A7249504613F0D1FC074663
:102DE00013F0F5FE0546C01705EB106000128030A9
:102DF0007F4948727D48006880F0004A6849504623
:102E000013F0BEFC074613F0E2FE0546C01705EBC3
:102E100010600012A5EB0020754988721FE0604920
:102E20007248006813F0ACFC074613F0D0FE05466C
:102E3000C01705EB1060000A6D49487258496B488D
:102E4000006813F09DFC074613F0C1FE0546C0174D
:102E500005EB10600012A5EB002065498872002484
:102E600005E06348005D02A90855601CC4B20C2C43
:102E7000F7DB062202A94148343012F0B4F95D486C
:102E800000788DF8080000208DF80900012202A9C1
:102E90003C48801F12F0A7F957480078FDF7A9FDBC
:102EA000CCE0FFE7162E10D1002405E05348005D6A
:102EB00003A90855601CC4B2082CF7DB042203A93F
:102EC0002E48403012F08FF9B8E01B2E10D10024AC
:102ED00005E04B48005D03A90855601CC4B2062CF0
:102EE000F7DB032203A92548483012F07CF9A5E05E
:102EF000172E39D1434800788DF80C0041484078AE
:102F00008DF80D0040490888C11700EB1161090ACE
:102F10008DF80E103C490888C11700EB11610912A9
:102F2000A0EB0121C9B28DF80F1038490888C117EC
:102F300000EB1161090A8DF8101034490888C11797
:102F400000EB11610912A0EB0121C9B28DF811103B
:102F50002F490888C11700EB1161090A8DF812107A
:102F60002B490888C11755E064E000000000C84202
:102F70001409002018090020200900201210070859
:102F8000740000208A130708C40800209C0D00204C
:102F9000240900200C8C0108A80D00205D000020F1
:102FA00000002041C8090020536176652050756DEE
:102FB00070204D617820467265713A20252E316669
:102FC0000A00000074656D705B305D203D20256453
:102FD0000A00000074656D705B315D203D20256442
:102FE0000A000000B80D00205E000020C808002084
:102FF000C10D0020250000205C00002028090020D1
:103000003009002036090020D0090020D209002014
:10301000D409002000EB11610912A0EB0121C9B213
:103020008DF81310042203A9FC4812F0DCF8FDF718
:103030004AFD03E00A2E01D1FFF7E4FB05B0BDE82D
:10304000F08F38B504468DF8004000208DF801005F
:1030500001226946F148563012F0C5F838BD70B506
:103060008CB00646304613F039F8C4B2314601A898
:1030700013F04AF82A2C0CDA012C0ADD601CC5B2C8
:1030800005E0E7A101A813F01BF8681CC5B22A2DC2
:10309000F7DD01A9E3A014F01DFA152201A9E24809
:1030A00012F0A1F80CB070BD7FB50646304613F0A3
:1030B00015F8C4B22146DDA014F00CFA314668467A
:1030C00013F022F80E2C0ADA601CC5B205E0D4A178
:1030D000684612F0F5FF681CC5B20E2DF7DD694693
:1030E000D0A014F0F7F907226946CC48083012F056
:1030F0007AF87FBD01464FF4C87091FBF0F300FBF6
:10310000131068B10A46C81701EB90708010B1EB3C
:10311000800007D1642091FBF0F300FB131008B18D
:10312000012000E00020C0B2704730B501460A46D9
:1031300001EBD1704010A1EB40000C46CD1701EB24
:10314000557500EBE50303EBD3704010A3EB400093
:10315000C0B230BD10B50446A078022817D120882F
:10316000FFF7C8FF48B1E0781D281DDD0320A070DF
:10317000E0781D38E070012010BDE0781C2813DDD8
:103180000320A070E0781C38E0700120F4E7A078FC
:10319000FFF7CBFF40B9E0781E2805DDA078401C82
:1031A000A0700120E070E7E70020E5E72DE9FC4191
:1031B00004460D4616461F46DDF82080642094FB29
:1031C000F0F0C0B28DF80000642094FBF0F100FB39
:1031D0001140C0B28DF801008DF802508DF80360E7
:1031E0008DF804708DF80580032269468B481630EF
:1031F00011F0F9FFBDE8FC812DE9F04786B00746E4
:1032000097F880008F49FDF725F9072010F069FD38
:10321000012642E0B01E052190FBF1F000F0FF0A0C
:10322000B01E90FBF1F201FB120000F0FF0986488E
:1032300010F80680B8F1010F26D0B8F10A0F09DBAB
:10324000B8F10F0F06DC06F17F00395C404610F044
:103250005AFD19E009EBD9714910B9EB410108D1C8
:1032600006F17F003A5CAFF28C7103A814F042F9CA
:1032700006E006F17F003A5C74A103A814F03AF965
:1032800003A9404610F0B5FD06F17F01785C4A467F
:10329000514601F012F8701CC6B2202EBADB97F826
:1032A000A02097F89F1002EB012013F072FC00227F
:1032B000674BCDE9000113F0EFFB044613F0FEFC71
:1032C000644908600846006863490860012202A951
:1032D00055482A3011F076FF9DF809209DF8081016
:1032E00002EB012013F055FC04460022584B13F06A
:1032F000D3FBCDE9000113F0E1FC584908605849BF
:103300005648006813F000FD02D256485349086041
:103310005148006813F093FC044602460B4652499C
:1033200003A814F0E7F803A9362010F062FD002688
:103330002CE0A22101EB46017A5CA12101EB4601C0
:10334000795C02EB012013F024FC04460022404B80
:1033500013F0A2FBCDE9000113F0B0FC434941F8A2
:10336000260006F1300000F0FF0851F8260013F0A7
:1033700066FC044602460B463B4903A814F0BAF823
:1033800003A9404610F035FD701CC6B2062ED0DBF6
:10339000002609E0F01C00F0FF082A48815D404645
:1033A00010F0B1FC701CC6B2072EF3DB3048017878
:1033B000282010F0A8FC2F4801782A2010F0A3FC48
:1033C00001202D4908702D48C17A007A01EB0020B8
:1033D0002B49088006B0BDE8F08770B505460C465D
:1033E00021462846FDF7F2FD2046FFF7C7F8642086
:1033F00011F086FB70BDF8B5012269460A482C30F1
:1034000011F0E0FE9DF80000032802DC9DF80000AA
:1034100018B91C481C49086046E037E060100708EE
:103420002300000025730A005213070853617665D4
:1034300050686F6E654E627228293A2069203D20DF
:1034400025640A0084000020E88801082564000043
:10345000000059404C0000208C000020A0000020FB
:1034600000004842CDCCCC3E301D0008FC0C0020B2
:10347000780000206007002027000020C10D0020F8
:103480001E0000200AD7233CCC0900209DF8000034
:1034900013F090FB0446FF4AFF4B13F08CFA0646EC
:1034A00013F00CFCFD490860F8BD08B5012269461F
:1034B000FB4811F087FE9DF80000FA49087008BD2E
:1034C00008B501226946F648801C11F07BFE9DF884
:1034D0000010F5A013F0FEFF9DF80000012802DDAA
:1034E00000208DF800009DF80000F849087008469B
:1034F0000078012801D13C2000E03220F449087016
:1035000008460178F3A013F0E5FF08BD08B50122D5
:103510006946E348001D11F055FE9DF80010F2A029
:1035200013F0D8FF9DF80000012802DD00208DF87F
:1035300000009DF80000F549087008460178F4A0E5
:1035400013F0C8FF08BD08B501226946D448801DA4
:1035500011F038FE9DF80010F1A013F0BBFF9DF8AC
:103560000000322802DD14208DF800009DF80000D4
:10357000F549087008460178F4A013F0ABFF08BDC8
:10358000F8B501226946C648083011F01BFE9DF8C7
:103590000010F4A013F09EFF9DF80000962803DCB5
:1035A0009DF80000322802DA64208DF800009DF8B2
:1035B000000013F0FFFA04460022F64B13F06CFAF9
:1035C000064613F07BFBF44908600846006813F0D8
:1035D00036FB044602460B46F0A013F07BFFF8BD15
:1035E000F8B501226946AE480A3011F0EBFD9DF8AE
:1035F0000010F2A013F06EFF9DF80000962803DC87
:103600009DF80000322802DA64208DF800009DF851
:10361000000013F0CFFA04460022DE4B13F03CFA10
:10362000064613F04BFBF24908600846006813F0A9
:1036300006FB044602460B46EEA013F04BFFF8BD16
:1036400008B50122694696480C3011F0BBFD9DF883
:103650000010F1A013F03EFF9DF80000012802DDEC
:1036600000208DF800009DF80000F649087008461B
:103670000178F5A013F02EFF08BD08B501226946B8
:1036800087480E3011F09EFD9DF80010F5A013F054
:1036900021FF9DF80000012802DD00208DF80000C8
:1036A0009DF80000FA49087008460178F9A013F067
:1036B00011FF08BDF8B5012269467948103011F0B4
:1036C00081FD9DF80010FAA013F004FF9DF80000A2
:1036D000642803DC9DF800000A2802DA14208DF823
:1036E00000009DF8000013F065FA04460022F94B33
:1036F00013F0D2F9064613F0E1FAF74908600846DC
:10370000006813F09CFA044602460B46F3A013F03F
:10371000E1FEF8BDF8B5012269466148123011F0AA
:1037200051FD9DF801209DF80010F2A013F0D2FE8B
:103730009DF801109DF8002041EA022013F029FABB
:1037400004460022E34B13F0A7F9064613F0B6FA3D
:10375000F24908605E48007813F016FA0446EF4814
:103760000168204613F0C6FA05D25948007813F0D4
:103770000BFAEA490860E948006813F060FA044669
:1037800002460B46E6A013F0A5FEF8BD30B5B1B079
:10379000E84BE84AB13AB221E74813F09BFE5922C0
:1037A00004A9E448B13811F00DFD0DF09CFAFFF7C3
:1037B00087FEFFF7ABFEFFF7C6FEFFF7E1FEFFF760
:1037C0000FFFFFF73DFFFFF758FFFFF773FFFFF70E
:1037D000A1FF102104A8FFF700FE112104A8FFF7A4
:1037E000FCFD122104A8FFF7F8FD192104A8FFF73A
:1037F000F4FD1A2104A8FFF7F0FD0DF074FA13216F
:1038000004A8FFF7EAFD142104A8FFF7E6FD15213F
:1038100004A8FFF7E2FD162104A8FFF7DEFD1B2137
:1038200004A8FFF7DAFD0DF05EFA172104A8FFF7F0
:10383000D4FD0B2104A8FFF7D0FD202104A8FFF739
:10384000CCFD0F2104A8FFF7C8FD0A2104A8FFF74B
:10385000C4FD04A8FFF7D0FCFFF7CDFDFFF72AFF5A
:10386000FDF789F9FFF721FE0E480278AFF22441F7
:1038700001A813F03FFE01AA012128200FF081FECC
:10388000AEA2202104200FF07CFE0DF02CFAAE48F1
:1038900000685BE17B14AE47E17A843FCC090020ED
:1038A000801307089A0B00206C6F61645F75736565
:1038B0003630687A28766F6964293A2062756666C0
:1038C0005B305D203D2025640A0000005C00002084
:1038D000240000204D6178467265714F7574203D5B
:1038E000202564487A0A00006C6F61645F61766627
:1038F0005F6D6F646528766F6964293A206275662A
:10390000665B305D203D2025640A00002500002014
:103910004176664D6F6465203D2025640A000000F5
:103920006C6F61645F70756D705F63616E63656C11
:103930005F667265713A20627566665B305D203D38
:103940002025640A000000005D00002050756D70A5
:1039500043616E63656C46726571203D2025640A83
:10396000000000006C6F61645F6F75746C65745F5C
:1039700070726573737572655F63616C695F636FA5
:103980006566663A20627566665B305D203D20257F
:10399000640A000000005940700000204F75746CEC
:1039A0006574507265737375726543616C69436FBA
:1039B000656666203D20252E32660A006C6F6164C4
:1039C0005F656E7472616E63655F70726573737547
:1039D00072655F63616C695F636F6566663A2062FA
:1039E0007566665B305D203D2025640A000000009E
:1039F00074000020456E7472616E63655072657369
:103A00007375726543616C69436F656666203D201E
:103A1000252E32660A0000006C6F61645F72656D6E
:103A20006F74652074617267657420656E61626C85
:103A3000653A20627566665B305D203D2025640A2C
:103A4000000000007800002052656D6F74655461BD
:103A500072676574456E61626C65203D2025640A5D
:103A6000000000006C6F61645F7573655F696F5F74
:103A70007461726765745F70726573737572653AAD
:103A800020627566665B305D203D2025640A00007B
:103A900060070020557365496F5461726765745003
:103AA00072657373757265203D2025640A000000FD
:103AB0006C6F61645F73706565645F75705F66618C
:103AC00063746F723A20627566665B305D203D20DC
:103AD00025640A00000024404C09002053706565ED
:103AE0006420557020466163746F72203D20252E3E
:103AF00031660A006C6F61645F70756D705F6D6137
:103B0000785F667265713A20627566665B205D203B
:103B10003D207B25642C2025647D0A00C8090020F7
:103B200050756D704D617846726571203D20252E6F
:103B300031660A00B1100708988C01085665722D8D
:103B4000312E332E32000000A000002013F077F851
:103B5000044602460B46F9A013F0BCFCFF4800687F
:103B600013F06DF8044602460B46FD4901A813F018
:103B7000C1FC01AA012107200FF003FDF9480068EC
:103B800013F05DF8044602460B46F7A013F0A2FCC2
:103B9000F448006813F053F8044602460B46F04917
:103BA00001A813F0A7FC01AA092117200FF0E9FCD6
:103BB00001A9AFF2907013F08DFC0120F14908705B
:103BC00031B030BD38B504468DF800400122694659
:103BD000ED4811F008FB38BD30B5ADB00546002406
:103BE00007E0EA4850F82400C0B20DF80400601C59
:103BF000C4B2B22CF5DB5A2D03D02846FFF7E2FF02
:103C00002EE059226946E048AE3811F0ECFA0BF08C
:103C1000D0FE1E20FCF71FFFFDF7B5F9DCA0FFF773
:103C20001EFAFDF7C8F9DB48FCF720FF1420FCF76B
:103C300050FF0120D8490870FCF7D0FE0020FCF7A7
:103C4000D8FE6420FCF7E0FE0020FCF7EEFE00202A
:103C5000FCF7F6FED148FCF723FFD148FCF747FFFD
:103C60002DB030BD10B5CF48007858280BD1CD48C5
:103C70000078582807D1CB480078582803D1002075
:103C8000C949087002E00120C7490870C648027897
:103C900001210F200FF04CFC642010F031FF10BD0B
:103CA00010B50446C14813F015FC6078BD49087092
:103CB000A0784870E0788870A07ABD4908700846FE
:103CC0000178BCA013F006FCB9480078A52808D0FC
:103CD0004220BE49087048708870BDA013F0FAFBFE
:103CE0001AE02079642801DA207900E04220B749FF
:103CF00008706079642801DA607900E04220B349F5
:103D00004870A079642801DAA07900E04220AF4928
:103D10008870B5A013F0DEFBA2480178B8A013F0BC
:103D2000D9FBA0484178BBA013F0D4FB9D48817813
:103D3000BDA013F0CFFBA5480178C0A013F0CAFBCB
:103D4000A2484178C2A013F0C5FBA0488178C5A065
:103D500013F0C0FB9348007858280AD19148407866
:103D6000582806D18F488078582802D10120C249AE
:103D70000870FFF777FF10BD0EB5834A0B328249FA
:103D80008A484C3013F0A6FB062269467E4811F0A3
:103D900019FA9DF8080018B19DF808000A2802DDFC
:103DA00001208DF808009DF80800B4490870B44857
:103DB0000078D0B9B3A013F08DFB9DF800005A280D
:103DC00008D09DF800107948903013F083FB5A20FA
:103DD000FFF702FFB1A013F07DFB6846FFF760FF1D
:103DE0000120A7490870FFF7D1FC0EBD08B55A2085
:103DF0008DF800006B4800788DF801006948407824
:103E00008DF80200674880788DF803000222694629
:103E10005D4811F0E8F908BD08B56C4800788DF8E8
:103E200000006A4840788DF80100684880788DF875
:103E30000200022269465448001D11F0D4F9A52061
:103E40008DF8000000208DF80100012269464E48DF
:103E50000A3011F0C8F908BD0020002105E0974A9A
:103E6000525C0244D0B24A1CD1B20629F7DB70473B
:103E700000B593B005F0FAF99148407980B19048C7
:103E8000016804918088ADF814008E4801680291A1
:103E90008088ADF80C0002A80FC805F0BBF9B8BBCC
:103EA00089480078012832D1002087490870874866
:103EB000007800280ADD85480078401E8349087094
:103EC0000846007810B900208149086000220D21C1
:103ED00001200FF0DBFA642010F012FE7D4800781C
:103EE000012807D17CA21E210FF04BFB01207E4947
:103EF000087007E07DA21E2101200FF042FB002088
:103F000079490870642010F0FBFD01F00EFD56E1C8
:103F1000FFE76D48007878B977A013F0DBFA01204D
:103F20006949087069480078401C68490870012098
:103F3000674908600246EFE041E1000052656D6F9D
:103F400074655461726765745072657373757265D8
:103F5000203D20252E32660A00000000A00000202F
:103F6000301D0008CC0900205461726765744C6FE5
:103F7000636B657244656C7461203D2025302E3280
:103F8000660A00002A000020AE1007081089010808
:103F9000200000000AD7233C9A0B0020000040407C
:103FA00000004842EC080020AB070020DC8C010830
:103FB0006E000020466163746F7279496E666F4CC3
:103FC0006F636B6564203D2025640A00A80700200C
:103FD000464143542050494E204E4F54205345549F
:103FE000205945540A000000464143542050494E90
:103FF00020414C524541445920534554200A000069
:104000005573657250696E5B305D203D2025640AF2
:10401000000000005573657250696E5B315D203D94
:104020002025640A000000005573657250696E5BBC
:10403000325D203D2025640A000000004661637463
:104040006F727950696E5B305D203D2025640A00F7
:10405000466163746F727950696E5B315D203D20FB
:1040600025640A00466163746F727950696E5B3231
:104070005D203D2025640A006708002079000020AB
:1040800064080020466163746F7279206368656319
:104090006B696E672E2E2E0A000000006368656350
:1040A0006B206F6B2C206A756D7020746F206E65AD
:1040B00078742070686173650A000000810900202F
:1040C000500000205600002026000020240A002076
:1040D000AC0123421C000020D7D4B6AFD4CBD0D043
:1040E000D7B4CCAC00000000A00B0020B5C8B4FDD4
:1040F000D7B4CCAC00000000212121547269616C5E
:1041000020706572696F64206861732065787069DA
:104110007265640A0A0000004FF00D0110460FF0AE
:10412000B5F9642010F0ECFC26480078012809D18C
:1041300000202449087024490871012008F025F95D
:1041400009F02CFC21A21E2101200FF01AFA0020F8
:1041500022490870642010F0D3FCAFF204220B2136
:1041600005200FF00EFA642010F0CAFC1CA31E48B4
:1041700002781E4801781E480078CDE90323CDE976
:1041800001011C4803781C48009303781B480278FF
:104190001BA106A813F0AEF906AA22480078411C1C
:1041A00005200FF0EEF91F480078401C0A2190FB13
:1041B000F1F201FB12001B49087001F0B6FB13B0CD
:1041C00000BD00001C0000201C0A0020B5C8B4FD82
:1041D000D7B4CCAC2DB9CAD5CF000000A00B0020BD
:1041E000B9CAD5CF00000000980000209700002039
:1041F00096000020120B0020110B0020100B002055
:10420000323025642D253032642D2530326420254E
:104210003032643A253032643A253032642D2D2D07
:1042200025730000270A0020FC48007880B1FC4874
:10423000007868B9FB480088401CFA4908800846A5
:104240000088F9490978884202DB0120F4490870A6
:1042500070470020F3490880F14908707047F3481F
:104260000078022802D1F24840787047F14800886F
:10427000FBE700B5F0480078012810D1EF4800882E
:10428000401CEE490880FFF7EAFFEC4909888842A4
:1042900005DC0120EA4908700020E749087000BDEC
:1042A0000020E6490880E64908707047024602EBA4
:1042B0008200E44B1844405C704710B501EB810369
:1042C000E04C2344985410BD10B502460B46002123
:1042D00008E04406200E545C012C01D1441CE0B2DD
:1042E0004C1CE1B29942F4DB10BDF0B58DB0D6485C
:1042F0000078D649C8710821D448FFF7E5FF8DF84A
:104300000400002412E000250CE004EB8400CD49F9
:104310000844415D04EB84002844401C01AA115468
:10432000681CC5B2052DF0DB601CC4B2062CEADBAC
:10433000C749C848006812F023FA074612F047FC44
:104340000646C01706EB1060000A8DF82300C0492E
:10435000C048006812F014FA074612F038FC06460E
:10436000C01706EB10600012A6EB0020C0B28DF85B
:10437000240000242AE0B84951F82400B44912F07E
:10438000FFF9074612F023FC0646C01706EB106043
:10439000C0F30720212101EB440101AA5054AE498A
:1043A00051F82400AA4912F0EBF9074612F00FFC6D
:1043B0000646C01706EB10600012A6EB0020222173
:1043C00001EB440101AA5054601CC4B2062CD2DB9C
:1043D000172201A9A14810F006FF9D49A0480068D6
:1043E00012F0CEF9074612F0F2FB0646C01706EBB4
:1043F0001060000A8DF8000095499948006812F095
:10440000BFF9074612F0E3FB0646C01706EB106043
:104410000012A6EB0020C0B28DF80100012269460F
:10442000904810F0E0FE90480078FCF7FEFA8F48C4
:104430000078FCF705FB0DB0F0BD002106E08348D5
:10444000405C012800D17047481CC1B20729F6DB47
:104450000020F8E7F0B500256C1E002227E002EBF3
:104460008200784E305C00B3681CC5B200211AE0AF
:1044700002EB8200734E3044022606EB4106805D5B
:1044800002EB82066F4F3E44012707EB4107F65DC2
:10449000C6EB061600EB8603A34201DC0020F0BD4C
:1044A0001C46481CC1B20229E2DB501CC2B2062ADB
:1044B000D5DB0120F3E770B504460D466C48007863
:1044C000C0EB00106B49097801EB800086B2C4EBA9
:1044D000041005EB8000B04206DC2A46214666A0A7
:1044E00012F0F8FF012070BD0020FCE710B50AE0D3
:1044F0006B480078401C6A49087008460078062816
:1045000001DB002010BD6648007800EB80004D49BB
:10451000085C0028ECD0624A127802EB82020B465B
:104520001A4411795E4A127802EB82021A44D0785A
:10453000FFF7C1FF0028DBD15948007800EB80006D
:10454000404908444078574908705548007800EBC6
:1045500080003C49084480785349087050480078EE
:1045600000EB800037490844C078504908704C4837
:10457000007800EB80003349084400794C4908700A
:104580000120BFE710B50246C2EB021001EB80002C
:1045900083B24848007858B942480078C0EB001010
:1045A000414C247804EB8000984211DC012010BDBE
:1045B0004048007801280BD13C480078C0EB00103F
:1045C0003B4C247804EB8000984201DC0220EEE7AB
:1045D0000020ECE77CB50646304612F030FB04467E
:1045E00002460B4634A1684612F084FF6A46162143
:1045F00001200EF0C6FF7CBD10B51D480078C0EB51
:1046000000101C4B1B7803EB800082B20F482C4B30
:104610001B78C05C01287ED1002183E0920000203D
:104620006C08002068080020290000206E08002087
:10463000300900201C090020800000206A080020AA
:104640006D080020140D002083000020840000204D
:104650000000C8424C000020FC0C0020801007081D
:10466000A00000207C1307087800002060070020CD
:1046700096000020970000200A77696E646F77200B
:104680005B2A2D2A202D2D2D3E2025642D256420EA
:104690002068617320657870697265640A000000A3
:1046A00094000020990000209A0000209B00002028
:1046B0009C00002093000020252E326600000000A0
:1046C0009D00002001EB81006B4B185C012827D175
:1046D00001EB81001844807801EB8103664C234490
:1046E0005B78C3EB031300EB8300904202DD634869
:1046F000006810BD01EB81005F4B1844007901EBAD
:1047000081035D4C2344DB78C3EB031300EB830090
:10471000904205DD00E00AE0594850F82100E8E742
:10472000481CC1B20629CDDB54480068E1E70020EF
:10473000DFE7002053490870704710B54F48046800
:10474000002050490870504850490978405C0128C1
:1047500026D100204E4908704E490870FFF7C6FE6A
:10476000D0B10120474908704B480078C0EB0010D9
:104770004A49097801EB800049490978C1EB0111E8
:10478000484A127802EB810188420ADB3C484149E1
:10479000097850F8214004E063203D49087000E0AA
:1047A00000244148007810B14048007818B92046EC
:1047B00005F0BBF803E03E48006805F0B6F810BD10
:1047C00010B5FFF7BAFF01203A4908703A4908705E
:1047D00000203A49087001203949087110BD10B510
:1047E00028480078F0B32A480078632843D02B4843
:1047F000017829480078FFF7C5FE012813D1314818
:10480000007860B92848007848B92E48007830B957
:104810001B49204A127851F8220005F086F8012041
:104820001B49087027E01D4801781B480078FFF7F6
:10483000A9FE02281FD11C48007818B90F4800684B
:1048400005F073F800201249087012480078401CE7
:104850001049087008460078052809DCFFF746FE75
:10486000012800E003E006D063200949087002E057
:1048700063200749087010BD140D00208C00002033
:10488000FC0C002082000020840000209D000020FD
:104890009300002094000020960000209700002044
:1048A000990000209A00002090000020780000204D
:1048B000A0000020910000201C0000205A080020C9
:1048C0001C0A002060070020FD4A42F821007047C2
:1048D0002DE9F04705460E4617469846DDF820902C
:1048E000B5F5A57F01DD4FF4A075002D00DA002598
:1048F000052095FBF0F0C4B2F24951F8340012F0F3
:1049000066F9C8F80000EF4A611C52F8310012F055
:104910005EF9C9F80000EB4800EBC4004068306065
:10492000E849601C01EBC00040683860BDE8F087D2
:104930002DE9F04705460E4617469846DDE9089AE8
:10494000B5F5A57F00DDDC25002D00DA00250A2065
:1049500095FBF0F0C4B2BAF1010F1AD1DA4951F85F
:10496000340012F034F9C8F80000D74A611C52F83C
:10497000310012F02CF9C9F80000D34800EBC40054
:1049800040683060D049601C01EBC000406838606E
:104990001CE0BAF1020F19D1CC4951F8340012F0E1
:1049A00016F9C8F80000C94A611C52F8310012F02B
:1049B0000EF9C9F80000C54800EBC400406830603B
:1049C000C249601C01EBC00040683860BDE8F08758
:1049D0002DE9F04705460E4617469846DDE9089A48
:1049E000B5F5A57F00DDDC25002D00DA00250A20C5
:1049F00095FBF0F0C4B2BAF1030F1AD1B44951F8E3
:104A0000340012F0E4F8C8F80000B14A611C52F812
:104A1000310012F0DCF8C9F80000AD4800EBC4002A
:104A200040683060AA49601C01EBC00040683860F3
:104A30001CE0BAF1040F19D1A64951F8340012F064
:104A4000C6F8C8F80000A34A611C52F8310012F001
:104A5000BEF8C9F800009F4800EBC4004068306011
:104A60009C49601C01EBC00040683860BDE8F087DD
:104A70002DE9F04780468946B8F1000F0DD19648E0
:104A8000006812F0DCF80446944A954B12F004F8E2
:104A9000064612F013F9BDE8F087B8F1010F12D104
:104AA000B9F1010F02D0B9F1020F0CD18D480068A5
:104AB00012F0C5F80646894A894B11F0EDFF04460D
:104AC00012F0FCF8E7E78849CA78897802EB012000
:104AD00012F05FF804460022844B11F0DDFF064619
:104AE00012F0ECF8D7E72DE9F04F87B004460D46F9
:104AF00016464FF07E58012C01D0022C30D1E3B283
:104B000003AACDE9002304AB05AA06A92846FFF7AE
:104B10000FFF21463046FFF7ABFF8046DDE9031269
:104B2000881A12F028F80290DDE9051011F022FE33
:104B300001900499481B12F01EF88346019911F068
:104B40001FFE8246029911F051FE8146069911F02E
:104B5000BFFD07464146384611F012FE074659E0B0
:104B6000032C01D0042C30D1E3B203AACDE90023F9
:104B700004AB05AA06A92846FFF72AFF21463046BE
:104B8000FFF776FF8046DDE90312881A11F0F3FF84
:104B90000290DDE9051011F0EDFD83460499481BF4
:104BA00011F0E9FF5946019011F0EAFD82460299A1
:104BB00011F01CFE8146069911F08AFD0746414618
:104BC000384611F0DDFD074624E01CBB03AB009323
:104BD00004AB05AA06A92846FFF77AFEDDE9031211
:104BE000881A11F0C8FF0290DDE9051011F0C2FD2E
:104BF00083460499481B11F0BEFF5946019011F0FD
:104C0000BFFD8246029911F0F1FD8146069911F02F
:104C10005FFD0746384607B0BDE8F08F2DE9F0414B
:104C200080460F4616464EB9404611F0D0FF044666
:104C300002462FA1384612F05DFC18E0012E0AD181
:104C4000404611F0FCFF044602460B4629A13846B7
:104C500012F050FC0BE0022E09D1404611F0EFFF9C
:104C6000044602460B4625A1384612F043FCBDE837
:104C7000F08101464FF4A57001FB00F2D01702EB62
:104C800010500013704710B50022002014E00021DE
:104C900007E01C4B03EBC10333F810301A444B1CE4
:104CA000D9B23229F5DB322392FBF3F3164C24F808
:104CB00010300022431CD8B20428E8DB10BD0000ED
:104CC0005C0D0020DC000020F40200200404002021
:104CD0001405002024060020F40800209A999999D0
:104CE0009999F93F100900209C0D002000408F4049
:104CF00025640000252E316600000000252E326656
:104D000000000000081B0020460B0020F84A42F873
:104D100020107047014659B9F6480078012800D1A3
:104D20007047F4480078022800D1F9E70120F7E73E
:104D300001292FD1F048007800F00F00012804D19C
:104D4000EE48007808B90520EAE7EB48407820B93A
:104D5000EA48007808B90320E2E7E948007820B97A
:104D6000E6480078012800D1DAE7E34840780128D6
:104D700004D1E248007808B90420D1E7E04800787F
:104D8000012805D1DD480078012801D10220C7E7BC
:104D90000120C5E70020C3E7014601290CD1D7480F
:104DA000007810B9D74880687047D4480078012847
:104DB00002D1D4484068F7E711B9D2480068F3E758
:104DC000012904DDCF4A481C52F82000ECE70020FE
:104DD000EAE70146012912D1CB480068CB4A127894
:104DE000904213DAC8480068401CC74A1060104659
:104DF0000068C64A1278904208DB01207047C2481A
:104E00000068002802DD0020BF4A10600020F5E79E
:104E100070B5BF480068BF49086007F0B6FF044698
:104E2000BA480078002816DD2046FFF7D2FF054675
:104E3000B948007840B9012D0DD10120B64908705C
:104E4000B6A012F047FB06E02CB90020B24908706A
:104E5000B8A012F03FFB012C03D1BB480068AC495D
:104E6000086070BD2DE9F04F89B00121B7480AF004
:104E70001CFF0121B6480BF044FA00BF0221B348E1
:104E80000BF06BF80028F9D0FFF7FDFE4FF000089B
:104E90000CE2B04931F81800FFF7EBFE04A921F845
:104EA0001800B8F1030F24D1AB48006811F0C7FE19
:104EB00006460F4604A931F8180011F07BFE0022C7
:104EC000A64BCDE9000111F0E7FD32463B46CDE9A6
:104ED000020111F070FD044611F0F0FE81469E487B
:104EE0000168484611F010FF1BD29B48D0F8009093
:104EF00017E04046FFF70EFF824604A830F818106E
:104F000042465046FFF7EFFD81464046FFF744FF1B
:104F10000446494611F0DCFB814649464046FFF70E
:104F2000F5FEB8F1000F4ED17948C0F800908C48DA
:104F300001687748006811F023FC7549086008464D
:104F4000006888490860022206A971480068FFF7D6
:104F500065FE06AA01212A200EF013FB7E48016897
:104F60006B48006811F0D0FE03D27B4800686849A6
:104F7000086000216648006811F0BCFE02D20020E3
:104F800063490860FFF744FF022206A961480068F0
:104F9000FFF744FE7448007801280ED1734800786A
:104FA00028B106AA232129200EF0EBFA7AE106AAFD
:104FB000232102200EF0E5FA74E106AA1521012052
:104FC0000EF0DFFA6EE1B8F1010F7ED14B480078A8
:104FD000E0BBBAF1050F7FD04748C178807801EB7C
:104FE00000246348C0F80090204611F0C4FD054637
:104FF0005F480168284611F07DFE04D2204611F07A
:10500000BAFD5B49086000215948006811F072FE42
:1050100002D20020564908605548006811F0D7FDBB
:1050200085B22B4614220121084604F081FA4F482C
:10503000007860B14E48006811F0C9FD85B22B467A
:1050400020222921012004F073FA0BE048E04848AF
:10505000006811F0BCFD85B22B4620220221012000
:1050600004F066FA2449CA79897902EB012011F02B
:1050700082FD06463F49484611F082FB074631460D
:1050800011F0B4FB05463B4911F03EFE06D25F230A
:1050900037220121022004F04BFA1CE01649CA799C
:1050A000897902EB012011F066FD07463149484637
:1050B00011F066FB8346394611F098FB064611F065
:1050C00086FD85B22B46372201E099E004E00121FC
:1050D000022004F02DFAE5E0002025490860E1E017
:1050E00007480078022849D1002023490860D9E008
:1050F000340D0020F10800209C0D00206E080020D7
:105100000C0900205C0D002034070020400700201F
:10511000540700203C0700200D00002054617267F6
:1051200065744C6F636B436F6E6669726D65642165
:105130000A00000054617267657420556E4C6F63FD
:105140006B6564210A000000DC0900200024014096
:1051500008000240460B0020F408002000C0724006
:1051600070000020580700202000002025000020AB
:10517000500700200000BE42440700205748C0F8F6
:105180000090574801685548006811F0F9FA5349F2
:1051900008600846006853490860022206A9514881
:1051A0000068FFF73BFD06AA01212B200EF0E9F96C
:1051B0004D4801684948006811F0A6FD03D24A48ED
:1051C00000684649086000214448006811F092FDDB
:1051D00002D2002041490860022206A93F48006827
:1051E000FFF71CFD06AA142101200EF0CAF9642065
:1051F0000FF086FC06AA202102200EF0C2F951E031
:10520000B8F1020F33D13948C0F80090012206A945
:105210004846FFF703FD06AA012126200EF0B1F94A
:1052200033480078E0B133A106A810F049FF06AA80
:10523000302101200EF0A5F92F480168484611F0F1
:1052400063FD06D24FF47842302101200EF000FFBA
:1052500028E04FF6FF72302101200EF0F9FE21E028
:10526000AFF26C52302101200EF08BF91AE0B8F148
:10527000030F17D121480078A0B12148C0F8009051
:10528000006820490860022206A91D480068FFF74F
:10529000C5FC06AA362107200EF073F919480068EC
:1052A00004F043FB08F1010000F0FF08B8F1040F1F
:1052B000FFF6EFAD1448007850B11448007850B9AB
:1052C000FEF7D6FD0120114908700EF080F802E0CB
:1052D00001200D49087009B0BDE8F08F4407002097
:1052E000740000205C07002010090020840D0020BD
:1052F0007D000020A1E34300300000206007002073
:10530000640700208C000020380700200C000020DB
:10531000F8B506460D466A46CBA1304610F0FEFEB3
:1053200002240BE06421009890FBF1F201FB1200D3
:105330002855009890FBF1F00090641E002CF1DAE3
:10534000F8BD3EB5054600242946684610F0DCFE4F
:10535000BEA1684610F0B4FE0AE01DF8040039282A
:1053600003DC1DF80400302801DA03203EBD641C74
:105370001DF804002328F0D1062C01D00220F5E707
:105380000120F3E710B50446B149204610F0AEFE07
:1053900008B1042010BD0520FCE770B504460E4698
:1053A00024B93046FFF7CDFF054605E0012C03D1B7
:1053B0003046FFF7E7FF0546284670BD70B5054645
:1053C0002946A4A012F086F82946A3480068FFF7F2
:1053D000E4FF0446A14850F824109EA012F07AF889
:1053E0009E4850F82420022109200EF0CAF8012C12
:1053F00038D0052C3ED19AA012F06CF800209649C6
:1054000008609B480078012804D19A499048FFF72A
:105410007FFF03E098498E48FFF77AFF94480178B0
:1054200096A012F057F899A012F054F8904800781E
:10543000012808D1FEF7F0FCA52099490870042046
:105440000DF0C5FF04E0FEF7D1FC04200DF0BFFF16
:1054500094A012F03FF881480221026809200EF062
:1054600090F80BE001207C4908602946784810F04C
:105470004BFE03E000207849086000BF00BF70BD0C
:1054800010B504468D4850F8242002210E200EF05D
:1054900078F80E200DF09BFF64200FF031FB10BD5B
:1054A00010B58748007808B9012010BD85480078FC
:1054B000012803D1FFF7E4FF0020F6E70120F4E71D
:1054C000F0B589B080480078401E112190FBF1F0C2
:1054D000401CC6B2002424E022467CA101A812F0A0
:1054E00009F801AA1C2121200EF04BF864200FF0CE
:1054F00007FB01250FE0671C07EBD77104EB610187
:1055000001F1210076A229460EF03BF864200FF04D
:10551000F7FA681CC5B2112DEDDD0BF0E4FB601C41
:10552000C4B2B442D8DB6EA21C2121200EF029F8AF
:1055300009B0F0BD70B59EB004460D465DB9FFF7E9
:10554000BFFF0020674908700120674908700020EC
:105550005D4908704EE0022D05D1224663A105A8E1
:1055600011F0C8FF12E06A4802786A4801786A4878
:10557000007801AB17C36948037869480093037842
:105580006848027868A105A811F0B4FF5549097868
:105590004E1C06EBD671534A127802EB610101F101
:1055A000210005AA504909780DF0EBFF64200FF0A7
:1055B000A7FA45480078332804DA43480078401CAD
:1055C0004149087048480078112805DA46480078B3
:1055D000401C454908700DE042480078401C414994
:1055E000087008460078022801DD002008700120BC
:1055F0003D4908701EB070BD30B589B004460D46F7
:10560000DDB14CB91C4883780093437802784FA1F0
:1056100001A811F06FFF0AE0012C08D1154883782A
:105620000093437802784FA101A811F063FF01AA0B
:1056300004210F200DF0A5FF04E029A204210F2072
:105640000DF09FFF09B030BD256C64002300000001
:10565000AD07002025730A006C07002070070020AA
:1056600050494E5F434F4E4649524D4544200A0033
:1056700068070020A8070020EC08002050696E4D44
:105680006F6465203D2025640A000000577269742C
:105690006550696E546F466C61736828293B0A0037
:1056A0006E000020476F206261636B20746F206D75
:1056B00061696E20736365656E0A000088070020CB
:1056C0002B000020A7070020A40700205061676579
:1056D0002564BCC7C2BCC7E5B3FDD6D02E2E2E00B4
:1056E00000000000A5070020A607002020202020A1
:1056F00020202020202020202020202020202020AA
:105700002020202020202020202D2D2D257300005A
:10571000980000209700002096000020120B002027
:10572000110B0020100B0020323025642D25303263
:10573000642D2530326420253032643A25303264BD
:105740003A253032642D2D2D25730000B5B1C7B038
:10575000B2CECAFDC3DCC2EBA3BA253264253264E3
:1057600025326400B5B1C7B0CFB5CDB3C3DCC2EB51
:10577000A3BA2532642532642532640070B505462B
:105780000E46002405E055F82410FFA011F0A2FEFB
:10579000641CB442F7DBFEA011F09CFE70BD014614
:1057A0000A4601EBD1704010A1EB40000123A3EBAE
:1057B0004000704770B5002421E0F64850F82400FE
:1057C000012801DA012000E00020C5B2C5F1010086
:1057D000C2B2F14810F8141001200DF057FE6420F9
:1057E0000FF08EF9EC4800EB440041782A46012086
:1057F0000DF075FE64200FF083F9601CC4B2042C18
:10580000DBDB0122122110460DF069FE64200FF04F
:1058100077F90022262101200DF038FE64200FF0D8
:105820006FF90122132110460DF059FE64200FF08C
:1058300067F970BD10B50221002004F00FF90221B4
:10584000012004F00BF90221084604F007F90221B7
:10585000032004F003F910BD10B500222921072010
:105860000DF014FE64200FF04BF9002208211020E7
:105870000DF00CFE64200FF043F900220C211020E3
:105880000DF004FE64200FF03BF900220D211020E2
:105890000DF0FCFD64200FF033F900220F210120F0
:1058A0000DF01DFE64200FF02BF910BD70B50446FD
:1058B0000D46C5F10100C2B2B74810F8141001201E
:1058C0000DF0E4FD64200FF01BF9B34800EB440039
:1058D00041782A4601200DF002FE64200FF010F9F5
:1058E00070BDAE48007840B9AD480078022804D1B8
:1058F000AC48007808B900207047AA480078012811
:105900000FD0A848407801280BD0A64880780128FD
:1059100007D0A448C078012803D0A2480079012804
:1059200001D10120E8E70020E6E710B59E480078A5
:10593000C8B101210846FFF7B9FF00210846FFF76B
:10594000B5FF00210220FFF7B1FF00210320FFF780
:10595000ADFF00210420FFF7A9FF01208D49086059
:105960000020486048E000210120FFF79FFF8F489A
:105970000078002813DD00210846FFF797FF00217B
:105980000220FFF793FF01210320FFF78FFF012182
:105990000420FFF78BFF01207E49086029E084483E
:1059A000007838B100210846FFF780FF01207949CF
:1059B00008601EE0FFF795FF044621460020FFF730
:1059C00075FFC4F101007349086001210320FFF74E
:1059D0006DFF01210420FFF769FF7648007920B9A7
:1059E00001210220FFF762FF03E000210220FFF700
:1059F0005DFF01206749486010BD10B50446012CC9
:105A00004FD1002221210DF041FD64200FF078F8E4
:105A100001220F2110460DF062FD64200FF070F896
:105A20000122222110460DF031FD64200FF068F8AC
:105A300000220E2101200DF052FD64200FF060F8CD
:105A40000122232110460DF021FD64200FF058F8AB
:105A50000022102101200DF042FD64200FF050F8CB
:105A60000122252110460DF011FD64200FF048F8A9
:105A70000022112101200DF032FD64200FF040F8CA
:105A80000122262110460DF001FD64200FF038F8A8
:105A90000022132101200DF022FD64200FF030F8C8
:105AA0004DE1F4BB0122212110460DF0EFFC6420F2
:105AB0000FF026F800220F2101200DF010FD6420C8
:105AC0000FF01EF80022222101200DF0DFFC6420DF
:105AD0000FF016F801220E2110460DF000FD642093
