:020000040800F2
:10000000D028002001010008194A01081B4A0108F4
:100010001F4A0108234A0108274A0108000000007E
:100020000000000000000000000000002B4A010852
:100030002D4A0108000000002F4A01089F4A0108CC
:100040001B0100081B0100081B0100081B01000820
:100050001B0100081B0100081B0100081B01000810
:100060001B0100081B0100081B0100081B01000800
:100070001B0100081B0100081B0100081B010008F0
:100080001B0100081B0100081B0100081B010008E0
:100090001B0100081B0100081B0100081B010008D0
:1000A0001B0100081B0100081B0100081B010008C0
:1000B0001B010008774A01081B0100081B0100080A
:1000C0001B0100081B0100081B0100081B010008A0
:1000D0001B010008314A0108574A01081B010008AA
:1000E0001B0100081B0100081B010008DFF80CD0F1
:1000F00016F088FF0048004759010008D02800206A
:100100000648804706480047FEE7FEE7FEE7FEE7B1
:10011000FEE7FEE7FEE7FEE7FEE7FEE7FD22010859
:10012000ED00000810B50446012C03D102209649C9
:10013000087010BD9448007860B193480078401E64
:10014000914908700846007820B990A20921012041
:1001500013F0F7F900BFECE70025002600BF0024EC
:1001600000BF00BF00BF00BF14F0E8FC14F0B7FCF4
:100170004FF4165014F010FF4FF4165014F05FFFB8
:1001800014F048FF14F09AFF40F2DF11632014F0DE
:10019000AAFF14F006FD14F017FD14F091FD0DF008
:1001A00033FD15F0B1F812F029F97D2010F0D5FDDE
:1001B00040B177A017F06EF901217BA005F0BAF9E4
:1001C00010F02CFF40F6C41106200FF0F6FB4FF4A0
:1001D000967014F075FC10F066FD14F06CFE14F0CF
:1001E000BBFE14F0E9FD15F051F8012076490870C6
:1001F0000020764908707649087003F0BDFD04F0D0
:100200004FF8BFE04FF48071724812F03DF9044698
:10021000002C08DD6F484078072804D021466D483F
:1002200008F056FE19E0002C17DD6A4840780728D0
:1002300013D171B600BF6848006800F4E0606749F8
:1002400040EA010000F104004FF0E021C1F80C0D7C
:10025000BFF3408F00BF00BFFEE761480078012870
:100260000FD100205E49087005F0F6FA002108461B
:100270000EF03CFA5BA21521012013F062F900F0A8
:100280008FFA51480078F0B357480068401B0A289D
:1002900078D35548056808F0D8FE54480088401CBB
:1002A0005249088009F056F95148016851480068E0
:1002B00016F000FD01D00BF043F84F48007808B16C
:1002C0000CF0A1F90CF00AFA47480068801B64287A
:1002D00058D30020454908804348066847480078BD
:1002E000012801D104F0BEFD08F0D2FF03F09CFF0D
:1002F00003F0BFFF08F0ABFF4148007830B141A0E8
:1003000017F0C8F800E03DE00CF043FD0CF028FBCE
:1003100046480078002805DD44480078401E4349DF
:10032000087007E00120414908704148007808B191
:100330000FF002FB3F48007800280EDD3D480078B2
:10034000401E3C4908700846007830B9012008700A
:100350002948007808B90CF056F90020FFF7E2FEB2
:1003600000F06CF814F09EFA3348007820B10020B9
:100370003149087004F0E1F904F031FA15F06EFE2D
:1003800010F091FC3EE70000170000200000000084
:100390002F2A20B6C0C1A2BFB4C3C5B9B7B8B4CE66
:1003A000BB202A2F0A0000004957444720524553DA
:1003B00045542E2E2E2E2E2E2E2E2E2E2E2E2E2E20
:1003C0002E2E2E2E2E2E0000140000208100002044
:1003D000220A0020AC0B00200CED00E00000FA0522
:1003E000150000202D2D0000080000201000002026
:1003F000DC09002054070020020000202700002014
:100400000D0000205461726765744C6F636B436F1D
:100410006E6669726D65642C2046435F5265747226
:100420006561746F7228293B0A00000012000020E9
:100430000C000020130000209500002003480068F5
:10044000C0F101000249C1F8AC017047AC01214282
:1004500000002142024600200BE012F0800F02D083
:1004600001230B5401E000230B5453061A0E431CC6
:10047000D8B20828F1DB7047002005E0FF49095C8D
:10048000FF4A1154411CC8B20628F7DB704730B54B
:1004900097B0002515220CA9FA4814F073FE9DF8B8
:1004A000590023280AD0F8A20921012013F049F8A5
:1004B000F5A205210B2013F044F82BE00CA815F051
:1004C000EDFD401EC4B20FE00CA8025D2146EFA076
:1004D00016F0E0FF0CA8005D232804D1681CC5B20B
:1004E000601EC4B200E001E0002CEDDC00BF01AAF8
:1004F000ECA10CA815F0F2FD01A9EC4815F0E4FD03
:1005000001AA05210B2013F01CF801AA09210120E2
:1005100013F017F817B030BDF0B589B005460026C6
:10052000002406E004F16800285C05A90855601C59
:10053000C4B20E2CF6DB9DF8210023280FD0D2A2E6
:100540001A21012012F0FDFFCFA202210B2012F090
:10055000F8FFCDA23621012012F0F3FF44E005A8F8
:1005600015F09CFD401EC4B22146D1A016F092FFAA
:1005700013E005A8025D2146C4A016F08BFF05A874
:10058000005D232808D1701CC6B2601EC4B221468B
:10059000C7A016F07FFF00E001E0002CE9DC00BFFF
:1005A00001AAC0A105A815F099FD01A815F076FDD6
:1005B00007460146C0A016F06DFF01A9C2A016F0C3
:1005C00069FF01A9C44815F07FFD01AA02210B2093
:1005D00012F0B7FFC1A21A21012012F0B2FF01AA46
:1005E0003621012012F0ADFF09B0F0BD01781529C8
:1005F00015DC0178142912DB417863290FDC81783E
:100600000C290CDC817851B1C1781F2907DCC17835
:1006100029B10179012902DC417901290ADD14217E
:100620000170322141700C2181701F21C1700021A5
:100630000171417170477FB50546002406E004F161
:100640007600285C02A90855601CC4B2062CF6DBB3
:1006500002A8FFF7CBFF9DF809009DF8081001EBF9
:10066000C10202EB011100EB81009F4908809DF857
:100670000A0088709DF80B00C8709DF80C00087186
:100680009DF80D0048719DF809009DF8081001EBD8
:10069000C10303EB011100EB810294A1684616F03F
:1006A00009FF6A460321202012F04BFF9DF80A2023
:1006B0008EA1684616F0FEFE6A460421202012F044
:1006C00040FF9DF80B2089A1684616F0F3FE6A46AC
:1006D0000521202012F035FF9DF80C20012120205B
:1006E00012F006FF05F021F99DF80D2002212020CF
:1006F00012F0FEFE7FBD08B50146002006E000F1C5
:100700007C028A5C0DF80020421CD0B20228F6DB85
:100710009DF80020012A02DD00228DF800209DF8BE
:100720000120012A02DD00228DF801209DF8002021
:100730006F4B1A709DF801206E4B1A7008BD38B5CA
:100740000546002406E004F17E00285C0DF8040054
:10075000601CC4B2022CF6DB9DF8000066490870EC
:100760009DF801006549087063480078012802DDA2
:10077000012061490870614800783C2802DC5F482C
:10078000007810B91E205D4908705B4801785CA0B4
:1007900016F080FE594801785FA016F07BFE38BD48
:1007A00030B587B0012205A9604814F0EBFC9DF834
:1007B0001400092803DC9DF815000A2804DD002038
:1007C0005B490870487006E09DF8140058490870AD
:1007D0009DF8150048705648407840B955A016F06D
:1007E00059FE002052490870487007B030BD0024FF
:1007F00029E04F48007820440A2190FBF1F201FBE8
:1008000012004A49891C082202FB0015042205A98E
:10081000284614F0B7FC05A80EF0DCFC9DF81A3051
:100820009DF819209DF818109DF817008DE80F000D
:100830009DF816309DF815209DF8141040A016F074
:1008400029FE601CC4B23A484078A042D1DC00BF07
:10085000CBE72DE9FC4105460E4635480078344982
:10086000497808440A2190FBF1F201FB12002F495C
:10087000891C082202FB00172D4877E0810900201F
:1008800075090020521307082000000028726561D6
:10089000645F627566665B25645D203D2025630AA2
:1008A00000000000255B5E235D000000D20C0020EC
:1008B00069203D2025640A006C656E677468203DE0
:1008C0002025640A0A000000257340404040404053
:1008D0004040404040404000C40C0020B7FECEF1F4
:1008E000C8C8CFDF000000005000002025640000D1
:1008F000AB070020AC070020D008002059080020DA
:10090000424C5F436F6E74726F6C5F456E61626CD8
:1009100065203D2025640A00424C5F4F6E5F54699C
:100920006D65203D2025640A00000000BA1007080C
:100930007A0000204E6F206572726F72210A0000EB
:100940003230253032642D253032642D253032642A
:1009500020253032643A253032643A253032642D15
:100960002D2DB9CAD5CF25640A00000040780A2889
:1009700009D1FF480078401C0A2190FBF1F201FBED
:100980001200FB490870FA4840780A2804DAF8484F
:100990004078401CF6494870F54800788DF8000012
:1009A000F34840788DF8010001226946F14814F0BF
:1009B000FAFB002404E0285D0DF80400601CC4B2BA
:1009C000062CF8DB8DF8066000208DF80700042265
:1009D0006946384614F0E7FBBDE8FC8108B5E648F7
:1009E00000788DF8000001226946E44814F0DBFB32
:1009F00008BD38B504468DF8004001226946DF483D
:100A0000801C14F0D0FB38BD38B504468DF800408A
:100A100001226946D948083014F0C5FB0122694615
:100A2000D6480A3014F0BFFB38BD38B504468DF8FF
:100A3000004001226946D1480C3014F0B4FB38BDA7
:100A400038B504468DF8004001226946CB480E3087
:100A500014F0A9FB38BD38B504468DF800400122DA
:100A60006946C648603814F09EFB38BD38B5044668
:100A7000C349204615F064FE054616F088F8C0B25A
:100A80008DF8000001226946BC48801E14F08BFBE3
:100A90009DF80020B949891EBAA016F0FBFC38BDAC
:100AA00038B50446C149204615F04AFE054616F001
:100AB0006EF8C0B28DF8000001226946AF481030D0
:100AC00014F071FB38BD10B5B9480068FFF7E8FFB6
:100AD00010BD38B504468DF8004000208DF80100A7
:100AE00001226946A548801D14F05DFB38BD38B56C
:100AF0000446AE49204615F023FE054616F047F899
:100B0000000A8DF80000A949204615F019FE054697
:100B100016F03DF8C0B28DF80100012269469748F1
:100B2000123014F040FB38BD38B504468DF8004053
:100B300000208DF80100012269469048001D14F044
:100B400032FB38BD08B5012269468C48603814F084
:100B500019FB9DF80000B42803DD1E20954908709C
:100B600003E09DF80000934908709248017892A034
:100B700016F090FC08BD2DE9F04F8BB0092205A9B5
:100B80007E485E3814F0FEFA642013F099FF9DF859
:100B90002400002801DD012000E000208D490870BC
:100BA000084601788CA016F075FC9DF8150015F02C
:100BB000E1FF804600228E4B15F04EFF04460D46A5
:100BC0009DF8140015F0D6FF824622462B4615F0FC
:100BD0002DFECDE9000116F051F80746384616F013
:100BE0000EF804460022824B16F020F801D8814806
:100BF00007609DF816100122A2EB41019DF8172015
:100C000001FB02F015F0A5FF044600227A4B15F017
:100C100023FF804616F032F806463146304615F07E
:100C20008FFD804615F0EBFF04460022704B15F057
:100C3000FDFF01D871480660704800687049C860BF
:100C40009DF8190015F096FF80460022684B15F0BC
:100C500003FF04460D469DF8180015F08BFF8246F1
:100C600022462B4615F0E2FDCDE9000116F006F80C
:100C7000644908600846006815F0C1FF0446002278
:100C8000614B15F0E7FF09D35E48006815F0B7FF28
:100C9000044600225D4B15F0C9FF02D25C48594959
:100CA00008605449086815F0AAFF044602460B463E
:100CB00058A102A816F0FEFB02AA0221262012F07B
:100CC00040FC5048006815F09AFF044602460B4667
:100CD00050A102A816F0EEFB02AA0421262012F071
:100CE00030FC4649086815F08AFF044602460B4668
:100CF00048A102A816F0DEFB02AA0321262012F06A
:100D000020FC3C49086815F07AFF044602460B4671
:100D100040A102A816F0CEFB02AA0221262012F062
:100D200010FC2C4802781A21262012F0E1FB0BB0AF
:100D3000BDE8F08FF0B585B000262E4951F82600A9
:100D400015F05DFF044602460B46314633A016F00F
:100D5000A1FB2A4951F8260015F051FF044602462E
:100D60000B46314633A016F095FB22496CE000009B
:100D70007A000020BA1007089A0B00208013070899
:100D80000000C84253544D33325F464C4153485FD4
:100D900057726974652061206279746520746F20D0
:100DA000202578203A202025640A000000002041F8
:100DB0004C090020400700205461726765744C6F35
:100DC000636B657254696D696E67203D2025640A06
:100DD000000000007D00002054656D704D6F6E694D
:100DE000746F72456E61626C653D2025640A000077
:100DF000000059403000002000002440AC0C0020CE
:100E00005C0D00204800002000C0624000003E4011
:100E100000008242252E31660000000074656D706E
:100E20005F6C696D69745B25645D203D2025660AF1
:100E30000000000074656D705F626961735B25641A
:100E40005D203D2025660A0051F8260015F09FFE22
:100E5000C0B20DF826001DF8260015F075FE0746F5
:100E6000FF4850F82610384615F067FC0546FD4946
:100E700015F066FC044615F08AFEC0B2012101EBB4
:100E800086010DF80100F84951F82600002115F0FF
:100E900011FF01D2012000E00020C0B2022101EBCD
:100EA00086010DF80100F04951F82600002115F0E7
:100EB00001FF0CD2EC4850F8260080F00045EB49C9
:100EC000284615F03DFC044615F061FE08E0E649B1
:100ED00051F82600E54915F033FC044615F057FE9D
:100EE000C0B2032101EB86010DF801001DF8262098
:100EF000B100DFA016F0CEFA012000EB86001DF84D
:100F00000020012000EB8601D9A016F0C3FA0220D0
:100F100000EB86001DF80020022000EB8601D4A023
:100F200016F0B8FA032000EB86001DF8002003201D
:100F300000EB8601D2A016F0ADFAD548006815F096
:100F400026FEC0B28DF804009DF8040015F0FCFDEB
:100F50000746CF480168384615F0EFFB0546C14902
:100F600015F0EEFB044615F012FEC0B28DF8050038
:100F7000C84800788DF8100009226946C64814F068
:100F800012F905B0F0BD10B5002409E0C348B4491A
:100F900041F824000020B44941F82400601CC4B288
:100FA000042CF3DBBE48BA4908600020B949087038
:100FB000FFF7C0FE10BD08B5BAA00068009001227E
:100FC0006946B5485A3014F0EEF808BD2DE9FC5FCB
:100FD00006468846A8F10A0017287DD2DFE800F00F
:100FE000FDFC7C7C7CFB0C3BBFFAF9F8F7F67CF54A
:100FF000F4F37C7C7C7CF2003078AB49087070782C
:10100000AA490870F078AA490870F078401CA949EC
:1010100008703079A849087070794870B079887084
:10102000F179A64816F036FAF079072801DD032099
:10103000F071F07900F001009F49C870F079C0F3B9
:1010400040000871F079C0F380004871FFF714FA8E
:1010500004F06BFCE2E2307A99490870B27A717A56
:1010600002EB012015F067FD834615F0C8FD04462C
:101070000022944B15F0F0FC814615F0FFFD9249DB
:1010800008600846006815F0BAFD044602460B46A3
:101090008EA016F0FFF9F07A10F0800F20D0327B8E
:1010A000F17A01F07F0102EB012015F044FD834647
:1010B00015F0A5FD81460022824B15F0CDFC0446BB
:1010C0000022134615F054FCCDE9000115F0D6FDC1
:1010D0008549086085A000E09FE216F0DBF912E088
:1010E000327BF17A02EB012015F033FD81460022BC
:1010F000744B15F0B1FC044615F0C0FD7A49086048
:1011000081A016F0C7F900217748006803F0DCFBE6
:10111000707B84490870B07B15F02CFD814600225D
:10112000684B15F099FC044615F0A8FD7E4908604F
:10113000F07B7E490870727C317C02EB012015F057
:10114000FAFC834615F05BFD814600225D4B15F0ED
:1011500083FC044615F092FD754908605EE275A0B7
:1011600016F098F9B07C7F490870327DF17C02EB73
:10117000012015F0E0FC834615F041FD04460022F5
:10118000504B15F069FC814615F078FD76490860F2
:10119000707D10F0800F2BD0B27D717D01F07F014A
:1011A00002EB012015F0C7FC834615F028FD8146AF
:1011B0000022444B15F050FC04460022134615F063
:1011C000D7FB0BE01DE2D0E134E1F8E0DAE1BFE16A
:1011D0006EE149E13BE118E20DE21AE2CDE90001DE
:1011E00015F04CFD6149086061A016F053F912E05A
:1011F000B27D717D02EB012015F0ABFC04460022AC
:10120000304B15F029FC814615F038FD5749086030
:101210005EA016F03FF901215448006803F054FB2A
:10122000F07D15F0A7FC81460022264B15F014FC3A
:10123000044615F023FD5C490860717E307E01EBA9
:1012400000205A490880B07E15F094FC81460022A7
:101250001C4B15F001FC044615F010FD5449A9E0A3
:10126000300000200000C842AC0C002000002041EB
:10127000627566665B25645D203D2025642C000058
:10128000627566665B25645D203D2025640A0A0060
:10129000480000207D000020221307080000B4420F
:1012A00000008242002800006E080020EF080020A5
:1012B000F008002050090020810900200C8C010852
:1012C000F108002000005940F40800204F75746CAC
:1012D00065745F53656E736F725F52616E676520F0
:1012E0003D2025660A000000F80800204F75746C48
:1012F00065745F50726573737572655F426961737F
:10130000203C20300A0000004F75746C65745F50FB
:10131000726573737572655F42696173203E203038
:101320000A000000FC080020000900200409002039
:1013300008090020737461727420766172696162B9
:101340006C65735F757064617465205343524545E5
:101350004E5F454E5452414E43455F53454E534FA9
:10136000520A00000C090020100900201409002076
:10137000456E7472616E63655F50726573737572EA
:10138000655F42696173203C20300A00456E7472CB
:10139000616E63655F50726573737572655F4269F4
:1013A0006173203E20300A00180900201C0900202B
:1013B000200900200860F8A016F06CF82EE1002744
:1013C00006E007F11C00305CFF49C855781CC7B225
:1013D0000C2FF6DBFC48007910F0800F0DD0FA4896
:1013E0004179007900F07F0001EB00204042F7498D
:1013F0000860F7A016F04EF809E0F348417900794B
:1014000001EB0020F1490860F5A016F043F8EF4821
:10141000006815F090FB0446022103F055FAEB48F2
:101420000168F3A016F036F8E7480178F4A016F04A
:1014300031F8F3E0012707E007F12700315C781E5F
:10144000F64A1154781CC7B2042FF5DDE6E00127F7
:1014500007E007F12B00315C781EF14A1154781C2B
:10146000C7B2102FF5DDD9E0012707E007F13B00F7
:10147000315C781EEB4A1154781CC7B2092FF5DD98
:10148000E8490878C11700EB11710911E64A11709B
:1014900010460178E5A015F0FDFFE2490878C11774
:1014A00000EB11710911A0EB0111DE4A1170B5E0DA
:1014B000012707E007F14500315C781EE24A11542C
:1014C000781CC7B20C2FF5DDDF48407A10F0800F92
:1014D0001FD0DD498A7A497A01F07F0102EB0120B1
:1014E00015F029FB834615F08AFB04460022D74BF2
:1014F00015F0B2FA81460022134615F039FACDE90B
:10150000000115F0BBFBD2490860D2A015F0C2FF64
:1015100013E0CD498A7A497A02EB012015F019FBD4
:1015200081460022C94B15F097FA044615F0A6FB38
:10153000C7490860CCA015F0ADFFC348007A022867
:1015400001DD002001E0C048007ABF49087265E073
:10155000012707E007F15100315C781EC74A11549A
:10156000781CC7B2082FF5DD58E0012707E007F126
:101570005900315C781EC24A1154781CC7B2052F3D
:10158000F5DD4BE0012707E007F15F00315C781ED5
:10159000BC4A1154781CC7B2082FF5DDB948007851
:1015A0000A2190FBF1F0B8490870B64800780A218A
:1015B00090FBF1F201FB1200B2490870B2480178C9
:1015C000B2A015F067FFAF48C178807801EB00202A
:1015D000B4490880AB484179007901EB0020B24959
:1015E0000880A848C179807901EB0020AF490880C4
:1015F000FFF7A8FA12E0FEF74AFF3046FEF78CFF2D
:101600000CE03046FFF717F808E03046FFF773F8B4
:1016100004E03046FFF793F800E000BF00BFBDE8EC
:10162000FC9F1CB5A248027801210A2011F060FF3E
:10163000A0480278AFF64C51684615F03BFF6A4669
:1016400002210A2011F07DFF9A480078C0EB0010BB
:101650008004030C0022FF219548007811F0C8FA9D
:101660001CBD1CB594A015F015FF9E480278AFF67E
:101670008451684615F01EFF6A460B21102011F0B8
:1016800060FF9948007868BB00220721012011F013
:10169000DDFE01221146102011F02AFF0022022156
:1016A000102011F025FF00220321102011F020FF4F
:1016B00000222421012011F0C9FE00220B2101206B
:1016C00011F0C4FE01223721104611F0BFFE0022A6
:1016D0002121022011F0BAFE00222221022011F065
:1016E000B5FE44E08048007801282DD10122072171
:1016F000104611F0ABFE00220121102011F0F8FE7F
:1017000001220221102011F0F3FE002203211020FB
:1017100011F0EEFE01222421104611F097FE012265
:101720000B21104611F092FE00223721012011F00A
:101730008DFE01222121022011F088FE01222221AA
:10174000022011F083FE12E06748007802280ED1D3
:1017500000220121102011F0CBFE002202211020D6
:1017600011F0C6FE01220321102011F0C1FE6420F9
:1017700013F0A6F90024C9E05C48025D211D102089
:1017800011F0B6FE5948005DC0F10100C2B204F18B
:1017900028010120ACE00000456E6420766172698A
:1017A00061626C65735F7570646174652053435248
:1017B00045454E5F454E5452414E43455F53454E5D
:1017C000534F520A000000009C0D0020C408002066
:1017D000574C5F42696173203C20300A00000000D2
:1017E000574C5F42696173203E20300A00000000C0
:1017F000574C5F42696173203D2025640A00000058
:10180000456E7472616E63655F73656E736F72307F
:101810005B305D203D20253032780A00240900200D
:10182000A80D0020B80D00205E000020536C6565F7
:1018300070696E67456E61626C654D6F6465203DD1
:101840002025640A00000000C10D00200000244093
:10185000C80800204663467265714F75744269611D
:1018600073203C20300A00004663467265714F7554
:101870007442696173203E20300A0000280900206C
:101880003009002036090020E80900205265616413
:101890002050756D70506F696E746572203D202503
:1018A000640A0000D0090020D2090020D4090020D9
:1018B000D00800205908002020636F6E74726F6C8E
:1018C000735F7570646174655F53435245454E5F45
:1018D00050554D505F47524F5550494E4728290AA1
:1018E00000000000EF0800206E08002081090020A1
:1018F00011F0ACFDFF48005DC0F10100C2B204F17F
:101900007801012011F0A2FD601CC4B2032CFFF687
:1019100033AFF848C2780321102011F0E9FDF548F3
:10192000C078C0F10100C2B2F348017F012011F07C
:101930008DFDF048C078C0F10100C2B2EE48417F91
:10194000012011F083FDEB4802790E21102011F0E7
:10195000CFFDE8480079C0F10100C2B2E64890F836
:101960002410012011F072FDE2480079C0F101005D
:10197000C2B2E14890F82510012011F067FDDD4862
:1019800042790721102011F0B3FDDA484079C0F107
:101990000100C2B2D84890F82C10012011F056FD79
:1019A000D4484079C0F10100C2B2D34890F82D105C
:1019B000012011F04BFDD14802780921102011F0CF
:1019C00097FD1CBD7CB5CEA015F064FDD74800681E
:1019D00015F015F9044602460B46D5A1684615F0E8
:1019E00069FD6A460521112011F0ABFDD24800685F
:1019F00015F005F9044602460B46D0A015F04AFD45
:101A0000CD48006815F0FBF8044602460B46C8A115
:101A1000684615F04FFD6A4602212A2011F091FD1B
:101A2000CE48006815F0EBF8044602460B46C0A10C
:101A3000684615F03FFD6A4603212A2011F081FD1A
:101A4000C748006815F0DBF8044602460B46B8A10B
:101A5000684615F02FFD6A460721112011F071FD2F
:101A6000C048006815F0CBF8044602460B46B0A10A
:101A7000684615F01FFD6A460821112011F061FD2E
:101A8000B948007801280AD101221146112011F02D
:101A90002FFD00220221112011F02AFD0DE0B24895
:101AA0000078022809D100220121112011F020FD27
:101AB00001220221112011F01BFDAC480278032104
:101AC000112011F015FDAA4802780421112011F00F
:101AD0000FFD7CBD7CB5A748006815F090F8044662
:101AE00002460B4692A1684615F0E4FC6A460521C1
:101AF000122011F026FDA048006815F080F8044679
:101B000002460B468AA1684615F0D4FC6A460221BB
:101B10002B2011F016FD9948006815F070F8044666
:101B200002460B4682A1684615F0C4FC6A460321B2
:101B30002B2011F006FD9248006815F060F804466D
:101B400002460B467AA1684615F0B4FC6A460721A6
:101B5000122011F0F6FC8B4802888BA1684615F024
:101B6000A9FC6A460821122011F0EBFC87480068A6
:101B700015F045F8044602460B466DA1684615F07F
:101B800099FC6A460921122011F0DBFC804800789C
:101B900070B901221146122011F0AAFC0022022184
:101BA000122011F0A5FC00220321122011F0A0FC4C
:101BB0007748007801280ED100220121122011F06F
:101BC00097FC01220221122011F092FC0022032135
:101BD000122011F08DFC6E480078022818D10022E6
:101BE0000121122011F084FC00220221122011F0A8
:101BF0007FFC01220321122011F07AFC65A214213E
:101C0000012011F09EFC63A22021022011F099FC1A
:101C10007CBD7CB504242FE0052C06D15E485AA17A
:101C20000268684615F046FC1FE0042C0BD15B48A7
:101C3000C178807801EB002086B2324652A1684616
:101C400015F038FC11E00520C0EB44005349095C55
:101C50000620C0EB4400514A105C01EB002086B224
:101C6000324649A1684615F025FC6A4621461920EE
:101C700011F067FC601CC4B2082CCDDD4748007829
:101C800000F00F020121192011F032FC43480078C6
:101C90000511022D00DD0025A5B901220A21192018
:101CA00011F026FC00220B21192011F021FC00224A
:101CB0000C21192011F01CFC39A20A21012011F07D
:101CC00040FC8BE0012D73D100220A21192011F074
:101CD0000FFC01220B21192011F00AFC00220C211B
:101CE000192011F005FC30A20A21012011F029FC75
:101CF00074E05DE081090020888D0108F008002073
:101D000020636F6E74726F6C735F7570646174655D
:101D10005F53435245454E5F4F55544C45545F53B6
:101D2000454E534F5228290A00000000F4080020B5
:101D3000252E326600000000F80800204F75746CF4
:101D400065745F50726573737572655F4269617324
:101D5000203D2025302E32660A0000007000002051
:101D60000009002008090020F1080020FC080020DC
:101D7000040900201009002014090020740000202C
:101D8000180900201C0900202564000020090020FB
:101D90000C0900202D2D0000C40800209C0D0020FF
:101DA000286D6D290000000028636D2900000000E7
:101DB000022D13D100220A21192011F099FB0022D3
:101DC0000B21192011F094FB01220C21192011F094
:101DD0008FFBFFA20A21012011F0B3FBFD48007820
:101DE00000F00F00012823D101221146192011F023
:101DF0007FFB00220221192011F07AFB002203212F
:101E0000192011F075FBAFF274021421012011F0BA
:101E100098FBAFF280022021022011F092FB4322B6
:101E20003721012011F042FCEBA015F033FB1CE040
:101E300000220121192011F05BFBE648407850B9DF
:101E400001220221192011F053FB00220321192045
:101E500011F04EFB09E000220221192011F048FB8D
:101E600001220321192011F043FB7CBD2DE9FC4127
:101E7000E5498A78497802EB012014F06AFE0646AB
:101E80000022E24B14F0E8FD044614F0F7FE804611
:101E9000404614F0B4FE044602460B46AFF2701101
:101EA000684615F007FB6A4603211A2011F049FB2A
:101EB000D549C87814F05EFE04460022D34B14F0D6
:101EC000CBFD064614F0DAFE8046404614F097FE3D
:101ED000044602460B46AFF2A811684615F0EAFA2E
:101EE0006A4604211A2011F02CFBC748007850B92B
:101EF000012211461A2011F0FBFA002202211A20B9
:101F000011F0F6FA09E0002201211A2011F0F0FA8E
:101F1000012202211A2011F0EBFABDE8FC812DE923
:101F2000FC47012655E0012E09D0022E07D0042ED1
:101F300005D0072E03D0082E01D0092E15D1B448A4
:101F400050F82600401CB349095CB14850F82600FF
:101F5000B04A105C01EB00201FFA80FA5246AFF243
:101F6000D811684615F0A6FA2CE0032E03D0052EF2
:101F700001D0062E0CD1A64850F82600A54911F82C
:101F800000A05246AFF20021684615F093FA19E01E
:101F90000A2E17D19F49C87B14F0ECFD044600229D
:101FA0009A4B14F059FD804614F068FE07463846F7
:101FB00014F025FE044602460B46AFF28C2168461B
:101FC00015F078FA6A463146132011F0BAFA701CFF
:101FD000C6B20A2EA7DD90480278AFF254216846B7
:101FE00015F068FA6A460C21132011F0AAFA8B4802
:101FF000006814F004FE044602460B46AFF2D021FE
:10200000684615F057FA6A460521122011F099FA30
:102010008348006814F0F3FD044602460B46AFF215
:10202000F021684615F046FA6A460621122011F0A2
:1020300088FA7C48006814F0E2FD044602460B462C
:10204000AFF21431684615F035FA6A4607211220BE
:1020500011F077FA74480288AFF2D421684615F07F
:1020600029FA6A460821122011F06BFA6F480068BD
:1020700014F0C5FD044602460B46AFF24C316846EB
:1020800015F018FA6A460921122011F05AFA684828
:10209000006814F0B4FD044602460B4665496846E4
:1020A00015F008FA6A460D21132011F04AFA624829
:1020B000007870B901221146122011F019FA00229D
:1020C0000221122011F014FA00220321122011F033
:1020D0000FFA5948007801280ED100220121122060
:1020E00011F006FA01220221122011F001FA002259
:1020F0000321122011F0FCF94F48007802280ED17C
:1021000000220121122011F0F3F9002202211220F5
:1021100011F0EEF901220321122011F0E9F9BDE8D6
:10212000FC872DE9FC474FF001088DE0B8F1010F65
:1021300002D0B8F1040F15D1404850F82800401CD7
:102140003F49095C3D4850F828003D4A105C01EBCE
:1021500000201FFA80FA5246AFF2D431684615F0DB
:10216000A9F92DE0B8F1030F02D0B8F1060F1BD189
:10217000324951F82810324A505C14F0FBFC0446F6
:102180000022224B14F068FC064614F077FD8146CD
:10219000484614F034FD044602460B46AFF2704147
:1021A000684615F087F90BE0244850F828002449C8
:1021B00011F800A05246AFF23041684615F07AF9A6
:1021C0006A464146142011F0BCF908F1010039E0DB
:1021D000286D29009C0D002053657450726F677242
:1021E00065737356616C75652853435245454E5F60
:1021F0004D41494E5F312C2035352C203130302077
:102200002F2032293B0A00002409002000005940F9
:1022100078080020A80D00205D0000201009002093
:1022200014090020180900201C09002020090020A2
:10223000C8090020140E00080C090020A008002086
:10224000B80D002000F0FF08B8F1070F7FF76EAF60
:10225000FF48007820B1012812D0022830D11FE0B9
:1022600001220921142011F043F900220A2114202F
:1022700011F03EF900220B21142011F039F920E071
:1022800000220921142011F033F901220A2114201F
:1022900011F02EF900220B21142011F029F910E081
:1022A00000220921142011F023F900220A21142010
:1022B00011F01EF901220B21142011F019F900E090
:1022C00000BF00BFBDE8FC872DE9FC41012609E005
:1022D000701EE0490F5C3A463146152011F008F9AE
:1022E000701CC6B2072EF3DDDA48C079C0F3800255
:1022F0000821152011F0FCF8D648C079C0F340023F
:102300000921152011F0F4F8D248C07900F001023B
:102310000A21152011F0ECF8CF4802781021152081
:1023200011F0E6F8CC4802780F21102011F08EF859
:10233000C9480078C0F10100C2B20921102011F093
:10234000AEF8C64802780F21152011F0D1F8C44824
:10235000006814F054FC044602460B46C149684626
:1023600015F0A8F86A460A21152011F0EAF8B948D4
:10237000C17A007A01EB00201FFA80F84246AFF2E2
:10238000F851684615F096F86A460B21152011F0B1
:10239000D8F8BDE8FC812DE9FC5F01264AE0032E58
:1023A00001D0042E19D10320C0EB4600AE49095CD0
:1023B0000420C0EB4600AC4A105C01EB00201FFA81
:1023C00080F84246AFF24061684615F073F86A46FD
:1023D0003146162011F0B5F82AE0052E01D0062E60
:1023E0001ED1A14A711C505C14F0C4FB04460022AB
:1023F0009E4B14F031FB824614F040FC8146484667
:1024000014F0FDFB044602460B46AFF2DC61684661
:1024100015F050F86A463146162011F092F807E0A0
:10242000701E91490F5C3A463146162011F060F853
:10243000701CC6B2062EB2DDBDE8FC9F2DE9FC473C
:10244000012632E0012E01D0052E1ED1711E884AD0
:10245000505C14F08FFB04460022844B14F0FCFA0D
:10246000814614F00BFC8046404614F0C8FB04463D
:1024700002460B46AFF24871684615F01BF86A46F3
:1024800031461B2011F05DF80DE0701E78490F5C9D
:102490003A46AFF20C71684615F00CF86A463146C0
:1024A0001B2011F04EF8701CC6B2052ECADDBDE827
:1024B000FC872DE9F04786B06E4A07CA01AB07C317
:1024C000012639E0012E06D16B48027831461720EB
:1024D00011F00EF82EE0022E1CD16749487814F056
:1024E00049FB04460022654B14F0B6FA814614F00D
:1024F000C5FB8046404614F082FB044602460B466C
:102500005FA104A814F0D6FF04AA3146172011F0E9
:1025100018F80FE0F01E01A951F8200007883A468C
:10252000AFF29C7104A814F0C5FF04AA314617202D
:1025300011F007F8701CC6B2052EC3DD52480778AB
:102540003A46AFF2BC7104A814F0B4FF04AA072104
:10255000172010F0F6FF4D48006814F050FB0446B9
:1025600002460B463F4904A814F0A4FF04AA082120
:10257000172010F0E6FF06B0BDE8F08710B504465E
:1025800043A014F087FFA4F10A0012282ED2DFE83E
:1025900000F02A2D2D2D2D2D090C0F181B1E212783
:1025A0002D121524FFF75DF821E0FFF70BFA1EE06E
:1025B000FFF790FA1BE0FFF72CFB18E0FFF756FC43
:1025C00015E0FFF7ACFC12E0FFF7ABFD0FE0FFF703
:1025D0007BFE0CE0FFF7DFFE09E0FFF72FFF06E0D0
:1025E000FFF767FF03E0FFF71CF800E000BF00BF44
:1025F00010BD2DE9FF5F074697F800A0BAF1070F5D
:1026000072D178783049FDF725FF072011F049FB9A
:1026100001267BE0B01E052190FBF1F000F0FF0BDE
:10262000B01E90FBF1F201FB120000F0FF092748F9
:1026300010F80680B8F1010F61D0B8F10A0F47DB3E
:10264000B8F10F0F44DCB95D404611F03CFB56E099
:102650005E000020C10D0020250000205C0000204D
:10266000C8080020140E0008280900200000594066
:1026700030090020008C01083609002000002440A9
:1026800025302E3166000000400700204C09002054
:102690003D3D3D3D3D3D3D3D3D3D3D3D3D3D3D3D6A
:1026A0003D3D3D3D3D3D3D3D3D3D3D3D3D3D7374ED
:1026B0006172743A636F6E74726F6C735F7570647D
:1026C0006174650A0000000084000020A8880108E9
:1026D00009EBD9714910B9EB410106D1BA5DFFA1EF
:1026E00002A814F0E7FE06E080E0BA5DAFF66811DC
:1026F00002A814F0DFFE02A9404611F05AFBB85DB3
:102700004A46594601F0D9FD701CC6B2202E81DB25
:1027100097F8212097F8201002EB012014F019FA05
:1027200004460022EF4B14F097F9CDE9000114F0B4
:10273000A5FAED4908600846006814F060FA0446FE
:1027400002460B46AFF6182102A814F0B3FE02A908
:10275000362011F02EFB00262DE0232101EB46014F
:102760007A5C222101EB4601795C02EB012014F036
:10277000F0F904460022DB4B14F06EF9CDE90001BC
:1027800014F07CFAD94941F8260006F1300000F037
:10279000FF0851F8260014F032FA044602460B46B0
:1027A000AFF6742102A814F085FE02A9404611F08C
:1027B00000FB701CC6B2062ECFDB002609E0F01C21
:1027C00000F0FF08CA48815D404611F07CFA701C99
:1027D000C6B2072EF3DB0120C6490870C648C17A8D
:1027E000007A01EB0020C549088006E051463846D2
:1027F000FEF7ECFB5046FFF7C1FE0120C049087010
:10280000BDE8FF9F08B5BF4800788DF80000BE48BE
:1028100000788DF8010001226946BC4812F0C3FC23
:1028200008BD2DE9F04F85B00646102E33D1B848CB
:1028300000788DF80C00B74800788DF80D00002066
:102840008DF80E00B44800788DF80F00B34800787A
:102850008DF81000B14840788DF81100AF488078AD
:102860008DF81200AD48C078AC49097940EA4100C2
:10287000AA49497940EA8100C0B28DF813009DF859
:102880001310A7A014F006FE042203A99F487E3867
:1028900012F089FCD2E3112E75D1A549A548006834
:1028A00013F04EFF824614F072F90446C01704EB91
:1028B0001060C0F307259E499E48006813F040FF52
:1028C000824614F064F90446C01704EB106000124D
:1028D000A4EB0020C7B296499748006813F030FF78
:1028E000824614F054F90446C01704EB1060C0F39C
:1028F000072001908E499048006813F021FF82461E
:1029000014F045F90446C01704EB10600012A4EB64
:102910000020C0B20090894800788DF808008DF83A
:1029200009508DF80A7000218548006814F0C2F93A
:102930002AD28348006880F0004B7D49584613F046
:10294000FFFE824614F023F90446C01704EB106022
:1029500000128030C0B28DF80B007948006880F01A
:10296000004B7349584613F0EBFE824614F00FF902
:102970000446C01704EB10600012A4EB0020C0B2A4
:102980008DF80C0021E050E069496D48006813F0B3
:10299000D7FE824614F0FBF80446C01704EB106023
:1029A000000A8DF80B0062496548006813F0C8FE04
:1029B000824614F0ECF80446C01704EB10600012D5
:1029C000A4EB0020C0B28DF80C005E4800788DF8B2
:1029D0000D0057495C48006813F0B2FE044614F03D
:1029E000D6F8C0B28DF80E00584800788DF80F0068
:1029F00001988DF8100000988DF81100052202A9A9
:102A00004248763812F0CFFB49495148006813F02C
:102A100097FE044614F0BBF8C0B28DF808000122FE
:102A200002A94C4812F0BFFB08E3122E55D14049D1
:102A30004948006813F084FE824614F0A8F8044662
:102A4000C01704EB1060C0F30720019038494248DA
:102A5000006813F075FE824614F099F80446C0171A
:102A600004EB10600012A4EB0020C5B23B490888BB
:102A7000C11700EB1161C1F3072738490888C11756
:102A800000EB11610912A0EB0121C9B20091344899
:102A900000788DF8080001988DF809008DF80A502B
:102AA00000213048006814F005F972D22D48006802
:102AB00080F0004B1E49584613F042FE824614F047
:102AC00066F80446C01704EB106000128030C0B2F4
:102AD0008DF80B002348006846E0ACE025303264F6
:102AE00000000000000059408C000020FC0C002079
:102AF0008400002027000020C10D00201E000020BF
:102B00002A000020D0080020590800207E10070865
:102B10006E080020EF080020F00800208109002046
:102B200074656D705B375D203D2025640A000000F0
:102B30000000C842F408002008090020F108002025
:102B4000F8080020FC0800200009002004090020EB
:102B50007000002088130708100900201C090020BD
:102B60000C0900201409002080F0004BFF49584652
:102B700013F0E6FD824614F00AF80446C01704EB91
:102B800010600012A4EB0020C0B28DF80C0021E010
:102B9000FFE7F649F648006813F0D2FD824613F0CD
:102BA000F6FF0446C01704EB1060000A8DF80B0016
:102BB000EE49EF48006813F0C3FD824613F0E7FFCB
:102BC0000446C01704EB10600012A4EB0020C0B252
:102BD0008DF80C00E549E748006813F0B1FD0446A4
:102BE00013F0D5FFC0B28DF80D008DF80E7000986F
:102BF0008DF80F00DD49E048006813F0A1FD0446A0
:102C000013F0C5FFC0B28DF81000052202A9DB4801
:102C100012F0C9FAD549DA48006813F091FD04466C
:102C200013F0B5FFC0B28DF80800012202A9D54803
:102C300012F0B9FA02E2192E3AD1D34800680028FE
:102C400014DAD14909684842C11700EB1161091231
:102C50008031CE4A1171CC4909684842C11700EB56
:102C600011610912A0EB0121517110E0C6490868F9
:102C7000C11700EB1161090AC44A1171C249086801
:102C8000C11700EB11610912A0EB01215171002461
:102C900005E0BE48005D02A90855601CC4B20C2CBA
:102CA000F7DB062202A9B5480A3012F07CFAC5E12A
:102CB0001A2E18D11A208DF80C00012406E0601E8F
:102CC000B349085C03A90855601CC4B2042CF6DDA6
:102CD000B04890F8088090F8099003AA4946404609
:102CE00010F0EAFAAAE1132E4DD1002705E0AA4818
:102CF000C05D01A9C855781CC7B2102FF7DB0822A8
:102D000001A99E481A3012F04EFAA44800788DF8B6
:102D1000040000208DF80500012201A99948001F38
:102D200012F041FA9E499F48006813F009FD0446DD
:102D300013F02DFF000A8DF80400994999480068A6
:102D400013F0FEFC044613F022FFC0B28DF805001C
:102D50009448006813F053FF044602460B4692A0C5
:102D600014F098FB9DF8041096A014F093FB9DF8C6
:102D7000051098A014F08EFB012201A981480830AB
:102D800012F011FA5AE1142E19D1002405E09548E9
:102D9000005D02A90855601CC4B20A2CF7DB9DF83F
:102DA00008109148007801EB0010C0B28DF80800BF
:102DB000052202A971482A3012F0F5F93EE1152EDC
:102DC00070D100218948006813F074FF27D287482A
:102DD000006880F0004A7249504613F0B1FC074683
:102DE00013F0D5FE0546C01705EB106000128030C9
:102DF0007F4948727D48006880F0004A6849504623
:102E000013F09EFC074613F0C2FE0546C01705EB03
:102E100010600012A5EB0020754988721FE0604920
:102E20007248006813F08CFC074613F0B0FE0546AC
:102E3000C01705EB1060000A6D49487258496B488D
:102E4000006813F07DFC074613F0A1FE0546C0178D
:102E500005EB10600012A5EB002065498872002484
:102E600005E06348005D02A90855601CC4B20C2C43
:102E7000F7DB062202A94148343012F094F95D488C
:102E800000788DF8080000208DF80900012202A9C1
:102E90003C48801F12F087F957480078FDF7A9FDDC
:102EA000CCE0FFE7162E10D1002405E05348005D6A
:102EB00003A90855601CC4B2082CF7DB042203A93F
:102EC0002E48403012F06FF9B8E01B2E10D10024CC
:102ED00005E04B48005D03A90855601CC4B2062CF0
:102EE000F7DB032203A92548483012F05CF9A5E07E
:102EF000172E39D1434800788DF80C0041484078AE
:102F00008DF80D0040490888C11700EB1161090ACE
:102F10008DF80E103C490888C11700EB11610912A9
:102F2000A0EB0121C9B28DF80F1038490888C117EC
:102F300000EB1161090A8DF8101034490888C11797
:102F400000EB11610912A0EB0121C9B28DF811103B
:102F50002F490888C11700EB1161090A8DF812107A
:102F60002B490888C11755E064E000000000C84202
:102F70001409002018090020200900201210070859
:102F8000740000208A130708C40800209C0D00204C
:102F900024090020CC8B0108A80D00205D00002032
:102FA00000002041C8090020536176652050756DEE
:102FB00070204D617820467265713A20252E316669
:102FC0000A00000074656D705B305D203D20256453
:102FD0000A00000074656D705B315D203D20256442
:102FE0000A000000B80D00205E000020C808002084
:102FF000C10D0020250000205C00002028090020D1
:103000003009002036090020D0090020D209002014
:10301000D409002000EB11610912A0EB0121C9B213
:103020008DF81310042203A9FC4812F0BCF8FDF738
:103030004AFD03E00A2E01D1FFF7E4FB05B0BDE82D
:10304000F08F38B504468DF8004000208DF801005F
:1030500001226946F148563012F0A5F838BD70B526
:103060008CB00646304613F019F8C4B2314601A8B8
:1030700013F02AF82A2C0CDA012C0ADD601CC5B2E8
:1030800005E0E7A101A812F0FBFF681CC5B22A2DDC
:10309000F7DD01A9E3A014F0FDF9152201A9E2482A
:1030A00012F081F80CB070BD7FB50646304612F0C4
:1030B000F5FFC4B22146DDA014F0ECF931466846B4
:1030C00013F002F80E2C0ADA601CC5B205E0D4A198
:1030D000684612F0D5FF681CC5B20E2DF7DD6946B3
:1030E000D0A014F0D7F907226946CC48083012F076
:1030F0005AF87FBD01464FF4C87091FBF0F300FB16
:10310000131068B10A46C81701EB90708010B1EB3C
:10311000800007D1642091FBF0F300FB131008B18D
:10312000012000E00020C0B2704730B501460A46D9
:1031300001EBD1704010A1EB40000C46CD1701EB24
:10314000557500EBE50303EBD3704010A3EB400093
:10315000C0B230BD10B50446A078022817D120882F
:10316000FFF7C8FF48B1E0781D281DDD0320A070DF
:10317000E0781D38E070012010BDE0781C2813DDD8
:103180000320A070E0781C38E0700120F4E7A078FC
:10319000FFF7CBFF40B9E0781E2805DDA078401C82
:1031A000A0700120E070E7E70020E5E72DE9FC4191
:1031B00004460D4616461F46DDF82080642094FB29
:1031C000F0F0C0B28DF80000642094FBF0F100FB39
:1031D0001140C0B28DF801008DF802508DF80360E7
:1031E0008DF804708DF80580032269468B481630EF
:1031F00011F0D9FFBDE8FC812DE9F04786B0074604
:1032000097F880008F49FDF725F9072010F049FD58
:10321000012642E0B01E052190FBF1F000F0FF0A0C
:10322000B01E90FBF1F201FB120000F0FF0986488E
:1032300010F80680B8F1010F26D0B8F10A0F09DBAB
:10324000B8F10F0F06DC06F17F00395C404610F044
:103250003AFD19E009EBD9714910B9EB410108D1E8
:1032600006F17F003A5CAFF28C7103A814F022F9EA
:1032700006E006F17F003A5C74A103A814F01AF985
:1032800003A9404610F095FD06F17F01785C4A469F
:10329000514601F012F8701CC6B2202EBADB97F826
:1032A000A02097F89F1002EB012013F052FC00229F
:1032B000674BCDE9000113F0CFFB044613F0DEFCB1
:1032C000644908600846006863490860012202A951
:1032D00055482A3011F056FF9DF809209DF8081036
:1032E00002EB012013F035FC04460022584B13F08A
:1032F000B3FBCDE9000113F0C1FC584908605849FF
:103300005648006813F0E0FC02D256485349086062
:103310005148006813F073FC044602460B465249BC
:1033200003A814F0C7F803A9362010F042FD0026C8
:103330002CE0A22101EB46017A5CA12101EB4601C0
:10334000795C02EB012013F004FC04460022404BA0
:1033500013F082FBCDE9000113F090FC434941F8E2
:10336000260006F1300000F0FF0851F8260013F0A7
:1033700046FC044602460B463B4903A814F09AF863
:1033800003A9404610F015FD701CC6B2062ED0DB16
:10339000002609E0F01C00F0FF082A48815D404645
:1033A00010F091FC701CC6B2072EF3DB3048017898
:1033B000282010F088FC2F4801782A2010F083FC88
:1033C00001202D4908702D48C17A007A01EB0020B8
:1033D0002B49088006B0BDE8F08770B505460C465D
:1033E00021462846FDF7F2FD2046FFF7C7F8642086
:1033F00011F066FB70BDF8B5012269460A482C3011
:1034000011F0C0FE9DF80000032802DC9DF80000CA
:1034100018B91C481C49086046E037E060100708EE
:103420002300000025730A005213070853617665D4
:1034300050686F6E654E627228293A2069203D20DF
:1034400025640A0084000020A88801082564000083
:10345000000059404C0000208C000020A0000020FB
:1034600000004842CDCCCC3E301D0008FC0C0020B2
:10347000780000206007002027000020C10D0020F8
:103480001E0000200AD7233CCC0900209DF8000034
:1034900013F070FB0446FF4AFF4B13F06CFA06462C
:1034A00013F0ECFBFD490860F8BD08B50122694640
:1034B000FB4811F067FE9DF80000FA49087008BD4E
:1034C00008B501226946F648801C11F05BFE9DF8A4
:1034D0000010F5A013F0DEFF9DF80000012802DDCA
:1034E00000208DF800009DF80000F849087008469B
:1034F0000078012801D13C2000E03220F449087016
:1035000008460178F3A013F0C5FF08BD08B50122F5
:103510006946E348001D11F035FE9DF80010F2A049
:1035200013F0B8FF9DF80000012802DD00208DF89F
:1035300000009DF80000F549087008460178F4A0E5
:1035400013F0A8FF08BD08B501226946D448801DC4
:1035500011F018FE9DF80010F1A013F09BFF9DF8EC
:103560000000322802DD14208DF800009DF80000D4
:10357000F549087008460178F4A013F08BFF08BDE8
:10358000F8B501226946C648083011F0FBFD9DF8E8
:103590000010F4A013F07EFF9DF80000962803DCD5
:1035A0009DF80000322802DA64208DF800009DF8B2
:1035B000000013F0DFFA04460022F64B13F04CFA39
:1035C000064613F05BFBF44908600846006813F0F8
:1035D00016FB044602460B46F0A013F05BFFF8BD55
:1035E000F8B501226946AE480A3011F0CBFD9DF8CE
:1035F0000010F2A013F04EFF9DF80000962803DCA7
:103600009DF80000322802DA64208DF800009DF851
:10361000000013F0AFFA04460022DE4B13F01CFA50
:10362000064613F02BFBF24908600846006813F0C9
:10363000E6FA044602460B46EEA013F02BFFF8BD57
:1036400008B50122694696480C3011F09BFD9DF8A3
:103650000010F1A013F01EFF9DF80000012802DD0C
:1036600000208DF800009DF80000F649087008461B
:103670000178F5A013F00EFF08BD08B501226946D8
:1036800087480E3011F07EFD9DF80010F5A013F074
:1036900001FF9DF80000012802DD00208DF80000E8
:1036A0009DF80000FA49087008460178F9A013F067
:1036B000F1FE08BDF8B5012269467948103011F0D5
:1036C00061FD9DF80010FAA013F0E4FE9DF80000E3
:1036D000642803DC9DF800000A2802DA14208DF823
:1036E00000009DF8000013F045FA04460022F94B53
:1036F00013F0B2F9064613F0C1FAF749086008461C
:10370000006813F07CFA044602460B46F3A013F05F
:10371000C1FEF8BDF8B5012269466148123011F0CA
:1037200031FD9DF801209DF80010F2A013F0B2FECB
:103730009DF801109DF8002041EA022013F009FADB
:1037400004460022E34B13F087F9064613F096FA7D
:10375000F24908605E48007813F0F6F90446EF4835
:103760000168204613F0A6FA05D25948007813F0F4
:10377000EBF9EA490860E948006813F040FA0446AA
:1037800002460B46E6A013F085FEF8BD30B5B1B099
:10379000E84BE84AB13AB221E74813F07BFE5922E0
:1037A00004A9E448B13811F0EDFC0DF07CFAFFF704
:1037B00087FEFFF7ABFEFFF7C6FEFFF7E1FEFFF760
:1037C0000FFFFFF73DFFFFF758FFFFF773FFFFF70E
:1037D000A1FF102104A8FFF700FE112104A8FFF7A4
:1037E000FCFD122104A8FFF7F8FD192104A8FFF73A
:1037F000F4FD1A2104A8FFF7F0FD0DF054FA13218F
:1038000004A8FFF7EAFD142104A8FFF7E6FD15213F
:1038100004A8FFF7E2FD162104A8FFF7DEFD1B2137
:1038200004A8FFF7DAFD0DF03EFA172104A8FFF710
:10383000D4FD0B2104A8FFF7D0FD202104A8FFF739
:10384000CCFD0F2104A8FFF7C8FD0A2104A8FFF74B
:10385000C4FD04A8FFF7D0FCFFF7CDFDFFF72AFF5A
:10386000FDF789F9FFF721FE0E480278AFF22441F7
:1038700001A813F01FFE01AA012128200FF061FE0C
:10388000AEA2202104200FF05CFE0DF00CFAAE4831
:1038900000685BE17B14AE47E17A843FCC090020ED
:1038A000801307089A0B00206C6F61645F75736565
:1038B0003630687A28766F6964293A2062756666C0
:1038C0005B305D203D2025640A0000005C00002084
:1038D000240000204D6178467265714F7574203D5B
:1038E000202564487A0A00006C6F61645F61766627
:1038F0005F6D6F646528766F6964293A206275662A
:10390000665B305D203D2025640A00002500002014
:103910004176664D6F6465203D2025640A000000F5
:103920006C6F61645F70756D705F63616E63656C11
:103930005F667265713A20627566665B305D203D38
:103940002025640A000000005D00002050756D70A5
:1039500043616E63656C46726571203D2025640A83
:10396000000000006C6F61645F6F75746C65745F5C
:1039700070726573737572655F63616C695F636FA5
:103980006566663A20627566665B305D203D20257F
:10399000640A000000005940700000204F75746CEC
:1039A0006574507265737375726543616C69436FBA
:1039B000656666203D20252E32660A006C6F6164C4
:1039C0005F656E7472616E63655F70726573737547
:1039D00072655F63616C695F636F6566663A2062FA
:1039E0007566665B305D203D2025640A000000009E
:1039F00074000020456E7472616E63655072657369
:103A00007375726543616C69436F656666203D201E
:103A1000252E32660A0000006C6F61645F72656D6E
:103A20006F74652074617267657420656E61626C85
:103A3000653A20627566665B305D203D2025640A2C
:103A4000000000007800002052656D6F74655461BD
:103A500072676574456E61626C65203D2025640A5D
:103A6000000000006C6F61645F7573655F696F5F74
:103A70007461726765745F70726573737572653AAD
:103A800020627566665B305D203D2025640A00007B
:103A900060070020557365496F5461726765745003
:103AA00072657373757265203D2025640A000000FD
:103AB0006C6F61645F73706565645F75705F66618C
:103AC00063746F723A20627566665B305D203D20DC
:103AD00025640A00000024404C09002053706565ED
:103AE0006420557020466163746F72203D20252E3E
:103AF00031660A006C6F61645F70756D705F6D6137
:103B0000785F667265713A20627566665B205D203B
:103B10003D207B25642C2025647D0A00C8090020F7
:103B200050756D704D617846726571203D20252E6F
:103B300031660A00B1100708588C01085665722DCD
:103B4000312E322E39000000A000002013F057F86B
:103B5000044602460B46F9A013F09CFCFF4800689F
:103B600013F04DF8044602460B46FD4901A813F038
:103B7000A1FC01AA012107200FF0E3FCF94800682D
:103B800013F03DF8044602460B46F7A013F082FC02
:103B9000F448006813F033F8044602460B46F04937
:103BA00001A813F087FC01AA092117200FF0C9FC16
:103BB00001A9AFF2907013F06DFC0120F14908707B
:103BC00031B030BD38B504468DF800400122694659
:103BD000ED4811F0E8FA38BD30B5ADB00546002427
:103BE00007E0EA4850F82400C0B20DF80400601C59
:103BF000C4B2B22CF5DB5A2D03D02846FFF7E2FF02
:103C00002EE059226946E048AE3811F0CCFA0BF0AC
:103C1000B5FE1E20FCF71FFFFDF7B5F9DCA0FFF78E
:103C20001EFAFDF7C8F9DB48FCF720FF1420FCF76B
:103C300050FF0120D8490870FCF7D0FE0020FCF7A7
:103C4000D8FE6420FCF7E0FE0020FCF7EEFE00202A
:103C5000FCF7F6FED148FCF723FFD148FCF747FFFD
:103C60002DB030BD10B5CF48007858280BD1CD48C5
:103C70000078582807D1CB480078582803D1002075
:103C8000C949087002E00120C7490870C648027897
:103C900001210F200FF02CFC642010F011FF10BD4B
:103CA00010B50446C14813F0F5FB6078BD490870B3
:103CB000A0784870E0788870A07ABD4908700846FE
:103CC0000178BCA013F0E6FBB9480078A52808D01D
:103CD0004220BE49087048708870BDA013F0DAFB1E
:103CE0001AE02079642801DA207900E04220B749FF
:103CF00008706079642801DA607900E04220B349F5
:103D00004870A079642801DAA07900E04220AF4928
:103D10008870B5A013F0BEFBA2480178B8A013F0DC
:103D2000B9FBA0484178BBA013F0B4FB9D48817853
:103D3000BDA013F0AFFBA5480178C0A013F0AAFB0B
:103D4000A2484178C2A013F0A5FBA0488178C5A085
:103D500013F0A0FB9348007858280AD19148407886
:103D6000582806D18F488078582802D10120C249AE
:103D70000870FFF777FF10BD0EB5834A0B328249FA
:103D80008A484C3013F086FB062269467E4811F0C3
:103D9000F9F99DF8080018B19DF808000A2802DD1D
:103DA00001208DF808009DF80800B4490870B44857
:103DB0000078D0B9B3A013F06DFB9DF800005A282D
:103DC00008D09DF800107948903013F063FB5A201A
:103DD000FFF702FFB1A013F05DFB6846FFF760FF3D
:103DE0000120A7490870FFF7D1FC0EBD08B55A2085
:103DF0008DF800006B4800788DF801006948407824
:103E00008DF80200674880788DF803000222694629
:103E10005D4811F0C8F908BD08B56C4800788DF808
:103E200000006A4840788DF80100684880788DF875
:103E30000200022269465448001D11F0B4F9A52081
:103E40008DF8000000208DF80100012269464E48DF
:103E50000A3011F0A8F908BD0020002105E0974ABA
:103E6000525C0244D0B24A1CD1B20629F7DB70473B
:103E700000B593B005F0DEF99148407980B19048E3
:103E8000016804918088ADF814008E4801680291A1
:103E90008088ADF80C0002A80FC805F09FF9B8BBE8
:103EA00089480078012832D1002087490870874866
:103EB000007800280ADD85480078401E8349087094
:103EC0000846007810B900208149086000220D21C1
:103ED00001200FF0BBFA642010F0F2FD7D4800785D
:103EE000012807D17CA21E210FF02BFB01207E4967
:103EF000087007E07DA21E2101200FF022FB0020A8
:103F000079490870642010F0DBFD01F00EFD56E1E8
:103F1000FFE76D48007878B977A013F0BBFA01206D
:103F20006949087069480078401C68490870012098
:103F3000674908600246EFE041E1000052656D6F9D
:103F400074655461726765745072657373757265D8
:103F5000203D20252E32660A00000000A00000202F
:103F6000301D0008CC0900205461726765744C6FE5
:103F7000636B657244656C7461203D2025302E3280
:103F8000660A00002A000020AE100708D088010849
:103F9000200000000AD7233C9A0B0020000040407C
:103FA00000004842EC080020AB0700209C8C010870
:103FB0006E000020466163746F7279496E666F4CC3
:103FC0006F636B6564203D2025640A00A80700200C
:103FD000464143542050494E204E4F54205345549F
:103FE000205945540A000000464143542050494E90
:103FF00020414C524541445920534554200A000069
:104000005573657250696E5B305D203D2025640AF2
:10401000000000005573657250696E5B315D203D94
:104020002025640A000000005573657250696E5BBC
:10403000325D203D2025640A000000004661637463
:104040006F727950696E5B305D203D2025640A00F7
:10405000466163746F727950696E5B315D203D20FB
:1040600025640A00466163746F727950696E5B3231
:104070005D203D2025640A006708002079000020AB
:1040800064080020466163746F7279206368656319
:104090006B696E672E2E2E0A000000006368656350
:1040A0006B206F6B2C206A756D7020746F206E65AD
:1040B00078742070686173650A000000810900202F
:1040C000500000205600002026000020240A002076
:1040D000AC0123421C000020D7D4B6AFD4CBD0D043
:1040E000D7B4CCAC00000000A00B0020B5C8B4FDD4
:1040F000D7B4CCAC00000000212121547269616C5E
:1041000020706572696F64206861732065787069DA
:104110007265640A0A0000004FF00D0110460FF0AE
:1041200095F9642010F0CCFC26480078012809D1CC
:1041300000202449087024490871012008F009F979
:1041400009F010FC21A21E2101200FF0FAF9002035
:1041500022490870642010F0B3FCAFF204220B2156
:1041600005200FF0EEF9642010F0AAFC1CA31E48F5
:1041700002781E4801781E480078CDE90323CDE976
:1041800001011C4803781C48009303781B480278FF
:104190001BA106A813F08EF906AA22480078411C3C
:1041A00005200FF0CEF91F480078401C0A2190FB33
:1041B000F1F201FB12001B49087001F0B6FB13B0CD
:1041C00000BD00001C0000201C0A0020B5C8B4FD82
:1041D000D7B4CCAC2DB9CAD5CF000000A00B0020BD
:1041E000B9CAD5CF00000000980000209700002039
:1041F00096000020120B0020110B0020100B002055
:10420000323025642D253032642D2530326420254E
:104210003032643A253032643A253032642D2D2D07
:1042200025730000270A0020FC48007880B1FC4874
:10423000007868B9FB480088401CFA4908800846A5
:104240000088F9490978884202DB0120F4490870A6
:1042500070470020F3490880F14908707047F3481F
:104260000078022802D1F24840787047F14800886F
:10427000FBE700B5F0480078012810D1EF4800882E
:10428000401CEE490880FFF7EAFFEC4909888842A4
:1042900005DC0120EA4908700020E749087000BDEC
:1042A0000020E6490880E64908707047024602EBA4
:1042B0008200E44B1844405C704710B501EB810369
:1042C000E04C2344985410BD10B502460B46002123
:1042D00008E04406200E545C012C01D1441CE0B2DD
:1042E0004C1CE1B29942F4DB10BDF0B58DB0D6485C
:1042F0000078D649C8710821D448FFF7E5FF8DF84A
:104300000400002412E000250CE004EB8400CD49F9
:104310000844415D04EB84002844401C01AA115468
:10432000681CC5B2052DF0DB601CC4B2062CEADBAC
:10433000C749C848006812F003FA074612F027FC84
:104340000646C01706EB1060000A8DF82300C0492E
:10435000C048006812F0F4F9074612F018FC06464F
:10436000C01706EB10600012A6EB0020C0B28DF85B
:10437000240000242AE0B84951F82400B44912F07E
:10438000DFF9074612F003FC0646C01706EB106083
:10439000C0F30720212101EB440101AA5054AE498A
:1043A00051F82400AA4912F0CBF9074612F0EFFBAE
:1043B0000646C01706EB10600012A6EB0020222173
:1043C00001EB440101AA5054601CC4B2062CD2DB9C
:1043D000172201A9A14810F0E6FE9D49A0480068F7
:1043E00012F0AEF9074612F0D2FB0646C01706EBF4
:1043F0001060000A8DF8000095499948006812F095
:104400009FF9074612F0C3FB0646C01706EB106083
:104410000012A6EB0020C0B28DF80100012269460F
:10442000904810F0C0FE90480078FCF7FEFA8F48E4
:104430000078FCF705FB0DB0F0BD002106E08348D5
:10444000405C012800D17047481CC1B20729F6DB47
:104450000020F8E7F0B500256C1E002227E002EBF3
:104460008200784E305C00B3681CC5B200211AE0AF
:1044700002EB8200734E3044022606EB4106805D5B
:1044800002EB82066F4F3E44012707EB4107F65DC2
:10449000C6EB061600EB8603A34201DC0020F0BD4C
:1044A0001C46481CC1B20229E2DB501CC2B2062ADB
:1044B000D5DB0120F3E770B504460D466C48007863
:1044C000C0EB00106B49097801EB800086B2C4EBA9
:1044D000041005EB8000B04206DC2A46214666A0A7
:1044E00012F0D8FF012070BD0020FCE710B50AE0F3
:1044F0006B480078401C6A49087008460078062816
:1045000001DB002010BD6648007800EB80004D49BB
:10451000085C0028ECD0624A127802EB82020B465B
:104520001A4411795E4A127802EB82021A44D0785A
:10453000FFF7C1FF0028DBD15948007800EB80006D
:10454000404908444078574908705548007800EBC6
:1045500080003C49084480785349087050480078EE
:1045600000EB800037490844C078504908704C4837
:10457000007800EB80003349084400794C4908700A
:104580000120BFE710B50246C2EB021001EB80002C
:1045900083B24848007858B942480078C0EB001010
:1045A000414C247804EB8000984211DC012010BDBE
:1045B0004048007801280BD13C480078C0EB00103F
:1045C0003B4C247804EB8000984201DC0220EEE7AB
:1045D0000020ECE77CB50646304612F010FB04469E
:1045E00002460B4634A1684612F064FF6A46162163
:1045F00001200EF0A6FF7CBD10B51D480078C0EB71
:1046000000101C4B1B7803EB800082B20F482C4B30
:104610001B78C05C01287ED1002183E0920000203D
:104620006C08002068080020290000206E08002087
:10463000300900201C090020800000206A080020AA
:104640006D080020140D002083000020840000204D
:104650000000C8424C000020FC0C0020801007081D
:10466000A00000207C1307087800002060070020CD
:1046700096000020970000200A77696E646F77200B
:104680005B2A2D2A202D2D2D3E2025642D256420EA
:104690002068617320657870697265640A000000A3
:1046A00094000020990000209A0000209B00002028
:1046B0009C00002093000020252E326600000000A0
:1046C0009D00002001EB81006B4B185C012827D175
:1046D00001EB81001844807801EB8103664C234490
:1046E0005B78C3EB031300EB8300904202DD634869
:1046F000006810BD01EB81005F4B1844007901EBAD
:1047000081035D4C2344DB78C3EB031300EB830090
:10471000904205DD00E00AE0594850F82100E8E742
:10472000481CC1B20629CDDB54480068E1E70020EF
:10473000DFE7002053490870704710B54F48046800
:10474000002050490870504850490978405C0128C1
:1047500026D100204E4908704E490870FFF7C6FE6A
:10476000D0B10120474908704B480078C0EB0010D9
:104770004A49097801EB800049490978C1EB0111E8
:10478000484A127802EB810188420ADB3C484149E1
:10479000097850F8214004E063203D49087000E0AA
:1047A00000244148007810B14048007818B92046EC
:1047B00005F09FF803E03E48006805F09AF810BD48
:1047C00010B5FFF7BAFF01203A4908703A4908705E
:1047D00000203A49087001203949087110BD10B510
:1047E00028480078F0B32A480078632843D02B4843
:1047F000017829480078FFF7C5FE012813D1314818
:10480000007860B92848007848B92E48007830B957
:104810001B49204A127851F8220005F06AF801205D
:104820001B49087027E01D4801781B480078FFF7F6
:10483000A9FE02281FD11C48007818B90F4800684B
:1048400005F057F800201249087012480078401C03
:104850001049087008460078052809DCFFF746FE75
:10486000012800E003E006D063200949087002E057
:1048700063200749087010BD140D00208C00002033
:10488000FC0C002082000020840000209D000020FD
:104890009300002094000020960000209700002044
:1048A000990000209A00002090000020780000204D
:1048B000A0000020910000201C0000205A080020C9
:1048C0001C0A002060070020FD4A42F821007047C2
:1048D0002DE9F04705460E4617469846DDF820902C
:1048E000B5F5A57F01DD4FF4A075002D00DA002598
:1048F000052095FBF0F0C4B2F24951F8340012F0F3
:1049000046F9C8F80000EF4A611C52F8310012F075
:104910003EF9C9F80000EB4800EBC4004068306085
:10492000E849601C01EBC00040683860BDE8F087D2
:104930002DE9F04705460E4617469846DDE9089AE8
:10494000B5F5A57F00DDDC25002D00DA00250A2065
:1049500095FBF0F0C4B2BAF1010F1AD1DA4951F85F
:10496000340012F014F9C8F80000D74A611C52F85C
:10497000310012F00CF9C9F80000D34800EBC40074
:1049800040683060D049601C01EBC000406838606E
:104990001CE0BAF1020F19D1CC4951F8340012F0E1
:1049A000F6F8C8F80000C94A611C52F8310012F04C
:1049B000EEF8C9F80000C54800EBC400406830605C
:1049C000C249601C01EBC00040683860BDE8F08758
:1049D0002DE9F04705460E4617469846DDE9089A48
:1049E000B5F5A57F00DDDC25002D00DA00250A20C5
:1049F00095FBF0F0C4B2BAF1030F1AD1B44951F8E3
:104A0000340012F0C4F8C8F80000B14A611C52F832
:104A1000310012F0BCF8C9F80000AD4800EBC4004A
:104A200040683060AA49601C01EBC00040683860F3
:104A30001CE0BAF1040F19D1A64951F8340012F064
:104A4000A6F8C8F80000A34A611C52F8310012F021
:104A50009EF8C9F800009F4800EBC4004068306031
:104A60009C49601C01EBC00040683860BDE8F087DD
:104A70002DE9F04780468946B8F1000F0DD19648E0
:104A8000006812F0BCF80446944A954B11F0E4FF1C
:104A9000064612F0F3F8BDE8F087B8F1010F12D125
:104AA000B9F1010F02D0B9F1020F0CD18D480068A5
:104AB00012F0A5F80646894A894B11F0CDFF04464D
:104AC00012F0DCF8E7E78849CA78897802EB012020
:104AD00012F03FF804460022844B11F0BDFF064659
:104AE00012F0CCF8D7E72DE9F04F87B004460D4619
:104AF00016464FF07E58012C01D0022C30D1E3B283
:104B000003AACDE9002304AB05AA06A92846FFF7AE
:104B10000FFF21463046FFF7ABFF8046DDE9031269
:104B2000881A12F008F80290DDE9051011F002FE73
:104B300001900499481B11F0FEFF8346019911F082
:104B4000FFFD8246029911F031FE8146069911F06F
:104B50009FFD07464146384611F0F2FD074659E0F1
:104B6000032C01D0042C30D1E3B203AACDE90023F9
:104B700004AB05AA06A92846FFF72AFF21463046BE
:104B8000FFF776FF8046DDE90312881A11F0D3FFA4
:104B90000290DDE9051011F0CDFD83460499481B14
:104BA00011F0C9FF5946019011F0CAFD82460299E1
:104BB00011F0FCFD8146069911F06AFD0746414659
:104BC000384611F0BDFD074624E01CBB03AB009343
:104BD00004AB05AA06A92846FFF77AFEDDE9031211
:104BE000881A11F0A8FF0290DDE9051011F0A2FD6E
:104BF00083460499481B11F09EFF5946019011F01D
:104C00009FFD8246029911F0D1FD8146069911F06F
:104C10003FFD0746384607B0BDE8F08F2DE9F0416B
:104C200080460F4616464EB9404611F0B0FF044686
:104C300002462FA1384612F03DFC18E0012E0AD1A1
:104C4000404611F0DCFF044602460B4629A13846D7
:104C500012F030FC0BE0022E09D1404611F0CFFFDC
:104C6000044602460B4625A1384612F023FCBDE857
:104C7000F08101464FF4A57001FB00F2D01702EB62
:104C800010500013704710B50022002014E00021DE
:104C900007E01C4B03EBC10333F810301A444B1CE4
:104CA000D9B23229F5DB322392FBF3F3164C24F808
:104CB00010300022431CD8B20428E8DB10BD0000ED
:104CC0005C0D0020DC000020F40200200404002021
:104CD0001405002024060020F40800209A999999D0
:104CE0009999F93F100900209C0D002000408F4049
:104CF00025640000252E316600000000252E326656
:104D000000000000081B0020460B0020F84A42F873
:104D100020107047014659B9F6480078012800D1A3
:104D20007047F4480078022800D1F9E70120F7E73E
:104D300001292FD1F048007800F00F00012804D19C
:104D4000EE48007808B90520EAE7EB48407820B93A
:104D5000EA48007808B90320E2E7E948007820B97A
:104D6000E6480078012800D1DAE7E34840780128D6
:104D700004D1E248007808B90420D1E7E04800787F
:104D8000012805D1DD480078012801D10220C7E7BC
:104D90000120C5E70020C3E7014601290CD1D7480F
:104DA000007810B9D74880687047D4480078012847
:104DB00002D1D4484068F7E711B9D2480068F3E758
:104DC000012904DDCF4A481C52F82000ECE70020FE
:104DD000EAE70146012912D1CB480068CB4A127894
:104DE000904213DAC8480068401CC74A1060104659
:104DF0000068C64A1278904208DB01207047C2481A
:104E00000068002802DD0020BF4A10600020F5E79E
:104E100070B5BF480068BF49086007F09AFF0446B4
:104E2000BA480078002816DD2046FFF7D2FF054675
:104E3000B948007840B9012D0DD10120B64908705C
:104E4000B6A012F027FB06E02CB90020B24908708A
:104E5000B8A012F01FFB012C03D1BB480068AC497D
:104E6000086070BD2DE9F04F89B00121B7480AF004
:104E7000FCFE0121B6480BF024FA00BF0221B34822
:104E80000BF04BF80028F9D0FFF7FDFE4FF00008BB
:104E90000CE2B04931F81800FFF7EBFE04A921F845
:104EA0001800B8F1030F24D1AB48006811F0A7FE39
:104EB00006460F4604A931F8180011F05BFE0022E7
:104EC000A64BCDE9000111F0C7FD32463B46CDE9C6
:104ED000020111F050FD044611F0D0FE81469E48BB
:104EE0000168484611F0F0FE1BD29B48D0F80090B4
:104EF00017E04046FFF70EFF824604A830F818106E
:104F000042465046FFF7EFFD81464046FFF744FF1B
:104F10000446494611F0BCFB814649464046FFF72E
:104F2000F5FEB8F1000F4ED17948C0F800908C48DA
:104F300001687748006811F003FC7549086008466D
:104F4000006888490860022206A971480068FFF7D6
:104F500065FE06AA01212A200EF0F3FA7E480168B8
:104F60006B48006811F0B0FE03D27B4800686849C6
:104F7000086000216648006811F09CFE02D2002003
:104F800063490860FFF744FF022206A961480068F0
:104F9000FFF744FE7448007801280ED1734800786A
:104FA00028B106AA232129200EF0CBFA7AE106AA1D
:104FB000232102200EF0C5FA74E106AA1521012072
:104FC0000EF0BFFA6EE1B8F1010F7ED14B480078C8
:104FD000E0BBBAF1050F7FD04748C178807801EB7C
:104FE00000246348C0F80090204611F0A4FD054657
:104FF0005F480168284611F05DFE04D2204611F09A
:105000009AFD5B49086000215948006811F052FE82
:1050100002D20020564908605548006811F0B7FDDB
:1050200085B22B4614220121084604F065FA4F4848
:10503000007860B14E48006811F0A9FD85B22B469A
:1050400020222921012004F057FA0BE048E04848CB
:10505000006811F09CFD85B22B4620220221012020
:1050600004F04AFA2449CA79897902EB012011F047
:1050700062FD06463F49484611F062FB074631464D
:1050800011F094FB05463B4911F01EFE06D25F234A
:1050900037220121022004F02FFA1CE01649CA79B8
:1050A000897902EB012011F046FD07463149484657
:1050B00011F046FB8346394611F078FB064611F0A5
:1050C00066FD85B22B46372201E099E004E001211C
:1050D000022004F011FAE5E0002025490860E1E033
:1050E00007480078022849D1002023490860D9E008
:1050F000340D0020F10800209C0D00206E080020D7
:105100000C0900205C0D002034070020400700201F
:10511000540700203C0700200D00002054617267F6
:1051200065744C6F636B436F6E6669726D65642165
:105130000A00000054617267657420556E4C6F63FD
:105140006B6564210A000000DC0900200024014096
:1051500008000240460B0020F408002000C0724006
:1051600070000020580700202000002025000020AB
:10517000500700200000BE42440700205748C0F8F6
:105180000090574801685548006811F0D9FA534912
:1051900008600846006853490860022206A9514881
:1051A0000068FFF73BFD06AA01212B200EF0C9F98C
:1051B0004D4801684948006811F086FD03D24A480D
:1051C00000684649086000214448006811F072FDFB
:1051D00002D2002041490860022206A93F48006827
:1051E000FFF71CFD06AA142101200EF0AAF9642085
:1051F0000FF066FC06AA202102200EF0A2F951E071
:10520000B8F1020F33D13948C0F80090012206A945
:105210004846FFF703FD06AA012126200EF091F96A
:1052200033480078E0B133A106A810F029FF06AAA0
:10523000302101200EF085F92F480168484611F011
:1052400043FD06D24FF47842302101200EF0E0FEFB
:1052500028E04FF6FF72302101200EF0D9FE21E048
:10526000AFF26C52302101200EF06BF91AE0B8F168
:10527000030F17D121480078A0B12148C0F8009051
:10528000006820490860022206A91D480068FFF74F
:10529000C5FC06AA362107200EF053F9194800680C
:1052A00004F027FB08F1010000F0FF08B8F1040F3B
:1052B000FFF6EFAD1448007850B11448007850B9AB
:1052C000FEF7D6FD0120114908700EF060F802E0EB
:1052D00001200D49087009B0BDE8F08F4407002097
:1052E000740000205C07002010090020840D0020BD
:1052F0007D000020A1E34300300000206007002073
:10530000640700208C000020380700200C000020DB
:10531000F8B506460D466A46CBA1304610F0DEFED3
:1053200002240BE06421009890FBF1F201FB1200D3
:105330002855009890FBF1F00090641E002CF1DAE3
:10534000F8BD3EB5054600242946684610F0BCFE6F
:10535000BEA1684610F094FE0AE01DF8040039284A
:1053600003DC1DF80400302801DA03203EBD641C74
:105370001DF804002328F0D1062C01D00220F5E707
:105380000120F3E710B50446B149204610F08EFE27
:1053900008B1042010BD0520FCE770B504460E4698
:1053A00024B93046FFF7CDFF054605E0012C03D1B7
:1053B0003046FFF7E7FF0546284670BD70B5054645
:1053C0002946A4A012F066F82946A3480068FFF712
:1053D000E4FF0446A14850F824109EA012F05AF8A9
:1053E0009E4850F82420022109200EF0AAF8012C32
:1053F00038D0052C3ED19AA012F04CF800209649E6
:1054000008609B480078012804D19A499048FFF72A
:105410007FFF03E098498E48FFF77AFF94480178B0
:1054200096A012F037F899A012F034F8904800785E
:10543000012808D1FEF7F0FCA52099490870042046
:105440000DF0A5FF04E0FEF7D1FC04200DF09FFF56
:1054500094A012F01FF881480221026809200EF082
:1054600070F80BE001207C4908602946784810F06C
:105470002BFE03E000207849086000BF00BF70BD2C
:1054800010B504468D4850F8242002210E200EF05D
:1054900058F80E200DF07BFF64200FF011FB10BDBB
:1054A00010B58748007808B9012010BD85480078FC
:1054B000012803D1FFF7E4FF0020F6E70120F4E71D
:1054C000F0B589B080480078401E112190FBF1F0C2
:1054D000401CC6B2002424E022467CA101A811F0A1
:1054E000E9FF01AA1C2121200EF02BF864200FF007
:1054F000E7FA01250FE0671C07EBD77104EB6101A8
:1055000001F1210076A229460EF01BF864200FF06D
:10551000D7FA681CC5B2112DEDDD0BF0C4FB601C81
:10552000C4B2B442D8DB6EA21C2121200EF009F8CF
:1055300009B0F0BD70B59EB004460D465DB9FFF7E9
:10554000BFFF0020674908700120674908700020EC
:105550005D4908704EE0022D05D1224663A105A8E1
:1055600011F0A8FF12E06A4802786A4801786A4898
:10557000007801AB17C36948037869480093037842
:105580006848027868A105A811F094FF5549097888
:105590004E1C06EBD671534A127802EB610101F101
:1055A000210005AA504909780DF0CBFF64200FF0C7
:1055B00087FA45480078332804DA43480078401CCD
:1055C0004149087048480078112805DA46480078B3
:1055D000401C454908700DE042480078401C414994
:1055E000087008460078022801DD002008700120BC
:1055F0003D4908701EB070BD30B589B004460D46F7
:10560000DDB14CB91C4883780093437802784FA1F0
:1056100001A811F04FFF0AE0012C08D1154883784A
:105620000093437802784FA101A811F043FF01AA2B
:1056300004210F200DF085FF04E029A204210F2092
:105640000DF07FFF09B030BD256C64002300000021
:10565000AD07002025730A006C07002070070020AA
:1056600050494E5F434F4E4649524D4544200A0033
:1056700068070020A8070020EC08002050696E4D44
:105680006F6465203D2025640A000000577269742C
:105690006550696E546F466C61736828293B0A0037
:1056A0006E000020476F206261636B20746F206D75
:1056B00061696E20736365656E0A000088070020CB
:1056C0002B000020A7070020A40700205061676579
:1056D0002564BCC7C2BCC7E5B3FDD6D02E2E2E00B4
:1056E00000000000A5070020A607002020202020A1
:1056F00020202020202020202020202020202020AA
:105700002020202020202020202D2D2D257300005A
:10571000980000209700002096000020120B002027
:10572000110B0020100B0020323025642D25303263
:10573000642D2530326420253032643A25303264BD
:105740003A253032642D2D2D25730000B5B1C7B038
:10575000B2CECAFDC3DCC2EBA3BA253264253264E3
:1057600025326400B5B1C7B0CFB5CDB3C3DCC2EB51
:10577000A3BA2532642532642532640070B505462B
:105780000E46002405E055F82410FFA011F082FE1B
:10579000641CB442F7DBFEA011F07CFE70BD014634
:1057A0000A4601EBD1704010A1EB40000123A3EBAE
:1057B0004000704770B5002421E0F64850F82400FE
:1057C000012801DA012000E00020C5B2C5F1010086
:1057D000C2B2F14810F8141001200DF037FE642019
:1057E0000FF06EF9EC4800EB440041782A460120A6
:1057F0000DF055FE64200FF063F9601CC4B2042C58
:10580000DBDB0122122110460DF049FE64200FF06F
:1058100057F90022262101200DF018FE64200FF018
:105820004FF90122132110460DF039FE64200FF0CC
:1058300047F970BD10B50221002004F0F3F80221F1
:10584000012004F0EFF80221084604F0EBF80221F1
:10585000032004F0E7F810BD10B50022292107202D
:105860000DF0F4FD64200FF02BF900220821102028
:105870000DF0ECFD64200FF023F900220C21102024
:105880000DF0E4FD64200FF01BF900220D21102023
:105890000DF0DCFD64200FF013F900220F21012030
:1058A0000DF0FDFD64200FF00BF910BD70B504463E
:1058B0000D46C5F10100C2B2B74810F8141001201E
:1058C0000DF0C4FD64200FF0FBF8B34800EB44007A
:1058D00041782A4601200DF0E2FD64200FF0F0F837
:1058E00070BDAE48007840B9AD480078022804D1B8
:1058F000AC48007808B900207047AA480078012811
:105900000FD0A848407801280BD0A64880780128FD
:1059100007D0A448C078012803D0A2480079012804
:1059200001D10120E8E70020E6E710B59E480078A5
:10593000C8B101210846FFF7B9FF00210846FFF76B
:10594000B5FF00210220FFF7B1FF00210320FFF780
:10595000ADFF00210420FFF7A9FF01208D49086059
:105960000020486048E000210120FFF79FFF8F489A
:105970000078002813DD00210846FFF797FF00217B
:105980000220FFF793FF01210320FFF78FFF012182
:105990000420FFF78BFF01207E49086029E084483E
:1059A000007838B100210846FFF780FF01207949CF
:1059B00008601EE0FFF795FF044621460020FFF730
:1059C00075FFC4F101007349086001210320FFF74E
:1059D0006DFF01210420FFF769FF7648007920B9A7
:1059E00001210220FFF762FF03E000210220FFF700
:1059F0005DFF01206749486010BD10B50446012CC9
:105A00004FD1002221210DF021FD64200FF058F824
:105A100001220F2110460DF042FD64200FF050F8D6
:105A20000122222110460DF011FD64200FF048F8EC
:105A300000220E2101200DF032FD64200FF040F80D
:105A40000122232110460DF001FD64200FF038F8EB
:105A50000022102101200DF022FD64200FF030F80B
:105A60000122252110460DF0F1FC64200FF028F8EA
:105A70000022112101200DF012FD64200FF020F80A
:105A80000122262110460DF0E1FC64200FF018F8E9
:105A90000022132101200DF002FD64200FF010F808
:105AA0004DE1F4BB0122212110460DF0CFFC642012
:105AB0000FF006F800220F2101200DF0F0FC642009
:105AC0000EF0FEFF0022222101200DF0BFFC642019
:105AD0000EF0F6FF01220E2110460DF0E0FC6420CE
